{
  "contracts/Curve.sol": {
    "Curve": {
      "abi": [
        {
          "inputs": [],
          "stateMutability": "nonpayable",
          "type": "constructor"
        },
        {
          "anonymous": false,
          "inputs": [
            {
              "indexed": false,
              "internalType": "address",
              "name": "from",
              "type": "address"
            },
            {
              "indexed": false,
              "internalType": "address",
              "name": "token",
              "type": "address"
            },
            {
              "indexed": false,
              "internalType": "uint256",
              "name": "amount",
              "type": "uint256"
            },
            {
              "indexed": false,
              "internalType": "uint256",
              "name": "amountLPTokenDeposited",
              "type": "uint256"
            },
            {
              "indexed": false,
              "internalType": "uint256",
              "name": "amountArrayMinted",
              "type": "uint256"
            }
          ],
          "name": "Buy",
          "type": "event"
        },
        {
          "anonymous": false,
          "inputs": [
            {
              "indexed": false,
              "internalType": "address",
              "name": "from",
              "type": "address"
            },
            {
              "indexed": false,
              "internalType": "uint256",
              "name": "amountArray",
              "type": "uint256"
            },
            {
              "indexed": false,
              "internalType": "uint256",
              "name": "amountReturnedLP",
              "type": "uint256"
            }
          ],
          "name": "Sell",
          "type": "event"
        },
        {
          "inputs": [],
          "name": "ChainLinkFeed",
          "outputs": [
            {
              "internalType": "contract IChainLinkFeed",
              "name": "",
              "type": "address"
            }
          ],
          "stateMutability": "view",
          "type": "function"
        },
        {
          "inputs": [
            {
              "internalType": "address",
              "name": "token",
              "type": "address"
            }
          ],
          "name": "addTokenToVirtualLP",
          "outputs": [
            {
              "internalType": "bool",
              "name": "success",
              "type": "bool"
            }
          ],
          "stateMutability": "nonpayable",
          "type": "function"
        },
        {
          "inputs": [],
          "name": "arrayBalancerPool",
          "outputs": [
            {
              "internalType": "contract IBPool",
              "name": "",
              "type": "address"
            }
          ],
          "stateMutability": "view",
          "type": "function"
        },
        {
          "inputs": [],
          "name": "arraySmartPool",
          "outputs": [
            {
              "internalType": "contract ISmartPool",
              "name": "",
              "type": "address"
            }
          ],
          "stateMutability": "view",
          "type": "function"
        },
        {
          "inputs": [],
          "name": "arrayToken",
          "outputs": [
            {
              "internalType": "contract IArray",
              "name": "",
              "type": "address"
            }
          ],
          "stateMutability": "view",
          "type": "function"
        },
        {
          "inputs": [
            {
              "internalType": "contract IERC20",
              "name": "token",
              "type": "address"
            },
            {
              "internalType": "uint256",
              "name": "amount",
              "type": "uint256"
            },
            {
              "internalType": "uint256",
              "name": "slippage",
              "type": "uint256"
            }
          ],
          "name": "buy",
          "outputs": [
            {
              "internalType": "uint256",
              "name": "returnAmount",
              "type": "uint256"
            }
          ],
          "stateMutability": "nonpayable",
          "type": "function"
        },
        {
          "inputs": [
            {
              "internalType": "address",
              "name": "token",
              "type": "address"
            },
            {
              "internalType": "uint256",
              "name": "amount",
              "type": "uint256"
            }
          ],
          "name": "calculateArrayMintedFromToken",
          "outputs": [
            {
              "internalType": "uint256",
              "name": "expectedAmountArrayToMint",
              "type": "uint256"
            }
          ],
          "stateMutability": "view",
          "type": "function"
        },
        {
          "inputs": [
            {
              "internalType": "uint256",
              "name": "amount",
              "type": "uint256"
            }
          ],
          "name": "calculateLPtokensGivenArrayTokens",
          "outputs": [
            {
              "internalType": "uint256",
              "name": "amountLPToken",
              "type": "uint256"
            }
          ],
          "stateMutability": "view",
          "type": "function"
        },
        {
          "inputs": [
            {
              "internalType": "address",
              "name": "_roles",
              "type": "address"
            },
            {
              "internalType": "address",
              "name": "_arrayToken",
              "type": "address"
            },
            {
              "internalType": "uint256",
              "name": "initialAmountLPToken",
              "type": "uint256"
            }
          ],
          "name": "initialize",
          "outputs": [],
          "stateMutability": "nonpayable",
          "type": "function"
        },
        {
          "inputs": [
            {
              "internalType": "address",
              "name": "_access",
              "type": "address"
            }
          ],
          "name": "initialize",
          "outputs": [],
          "stateMutability": "nonpayable",
          "type": "function"
        },
        {
          "inputs": [
            {
              "internalType": "address",
              "name": "token",
              "type": "address"
            }
          ],
          "name": "isTokenInLP",
          "outputs": [
            {
              "internalType": "bool",
              "name": "",
              "type": "bool"
            }
          ],
          "stateMutability": "view",
          "type": "function"
        },
        {
          "inputs": [
            {
              "internalType": "address",
              "name": "token",
              "type": "address"
            }
          ],
          "name": "isTokenInVirtualLP",
          "outputs": [
            {
              "internalType": "bool",
              "name": "contains",
              "type": "bool"
            }
          ],
          "stateMutability": "view",
          "type": "function"
        },
        {
          "inputs": [],
          "name": "maxGasPrice",
          "outputs": [
            {
              "internalType": "uint256",
              "name": "fastGas",
              "type": "uint256"
            }
          ],
          "stateMutability": "view",
          "type": "function"
        },
        {
          "inputs": [],
          "name": "maxSupply",
          "outputs": [
            {
              "internalType": "uint256",
              "name": "",
              "type": "uint256"
            }
          ],
          "stateMutability": "view",
          "type": "function"
        },
        {
          "inputs": [
            {
              "internalType": "address",
              "name": "token",
              "type": "address"
            }
          ],
          "name": "removeTokenFromVirtualLP",
          "outputs": [
            {
              "internalType": "bool",
              "name": "success",
              "type": "bool"
            }
          ],
          "stateMutability": "nonpayable",
          "type": "function"
        },
        {
          "inputs": [],
          "name": "reserveRatio",
          "outputs": [
            {
              "internalType": "uint32",
              "name": "",
              "type": "uint32"
            }
          ],
          "stateMutability": "view",
          "type": "function"
        },
        {
          "inputs": [
            {
              "internalType": "bool",
              "name": "max",
              "type": "bool"
            }
          ],
          "name": "sell",
          "outputs": [
            {
              "internalType": "uint256",
              "name": "amountReturnedLP",
              "type": "uint256"
            }
          ],
          "stateMutability": "nonpayable",
          "type": "function"
        },
        {
          "inputs": [
            {
              "internalType": "uint256",
              "name": "amountArray",
              "type": "uint256"
            }
          ],
          "name": "sell",
          "outputs": [
            {
              "internalType": "uint256",
              "name": "amountReturnedLP",
              "type": "uint256"
            }
          ],
          "stateMutability": "nonpayable",
          "type": "function"
        },
        {
          "inputs": [
            {
              "internalType": "uint256",
              "name": "amount",
              "type": "uint256"
            }
          ],
          "name": "setDaoPct",
          "outputs": [
            {
              "internalType": "bool",
              "name": "success",
              "type": "bool"
            }
          ],
          "stateMutability": "nonpayable",
          "type": "function"
        },
        {
          "inputs": [
            {
              "internalType": "uint256",
              "name": "amount",
              "type": "uint256"
            }
          ],
          "name": "setDevPct",
          "outputs": [
            {
              "internalType": "bool",
              "name": "success",
              "type": "bool"
            }
          ],
          "stateMutability": "nonpayable",
          "type": "function"
        },
        {
          "inputs": [
            {
              "internalType": "uint256",
              "name": "amount",
              "type": "uint256"
            }
          ],
          "name": "setMaxSupply",
          "outputs": [
            {
              "internalType": "bool",
              "name": "success",
              "type": "bool"
            }
          ],
          "stateMutability": "nonpayable",
          "type": "function"
        },
        {
          "inputs": [],
          "name": "virtualBalance",
          "outputs": [
            {
              "internalType": "uint256",
              "name": "",
              "type": "uint256"
            }
          ],
          "stateMutability": "view",
          "type": "function"
        },
        {
          "inputs": [],
          "name": "virtualSupply",
          "outputs": [
            {
              "internalType": "uint256",
              "name": "",
              "type": "uint256"
            }
          ],
          "stateMutability": "view",
          "type": "function"
        }
      ],
      "evm": {
        "bytecode": {
          "linkReferences": {},
          "object": "608060405273b60ef661cedc835836896191edb87cc025efd0b7600260006101000a81548173ffffffffffffffffffffffffffffffffffffffff021916908373ffffffffffffffffffffffffffffffffffffffff160217905550733c25c256e609f524bf8b35de7a517d5e883ff81c600360006101000a81548173ffffffffffffffffffffffffffffffffffffffff021916908373ffffffffffffffffffffffffffffffffffffffff160217905550670de0b6b3a7640000600455600454620aae60620000cd919062000292565b600555600454612710620000e2919062000292565b600655618235600760006101000a81548163ffffffff021916908363ffffffff16021790555067016345785d8a00006008556702c68af0bb140000600955600454620186a062000133919062000292565b600c5573a049894d5dcad406b7c827d6dc6a0b58ca4ae73a601060006101000a81548173ffffffffffffffffffffffffffffffffffffffff021916908373ffffffffffffffffffffffffffffffffffffffff16021790555073a800cda5f3416a6fb64ef93d84d6298a685d190d601160006101000a81548173ffffffffffffffffffffffffffffffffffffffff021916908373ffffffffffffffffffffffffffffffffffffffff1602179055507302e1300a7e6c3211c65317176cf1795f9bb1daab601260006101000a81548173ffffffffffffffffffffffffffffffffffffffff021916908373ffffffffffffffffffffffffffffffffffffffff1602179055503480156200024257600080fd5b50600160008190555033600160026101000a81548173ffffffffffffffffffffffffffffffffffffffff021916908373ffffffffffffffffffffffffffffffffffffffff1602179055506200032c565b60006200029f82620002f3565b9150620002ac83620002f3565b9250817fffffffffffffffffffffffffffffffffffffffffffffffffffffffffffffffff0483118215151615620002e857620002e7620002fd565b5b828202905092915050565b6000819050919050565b7f4e487b7100000000000000000000000000000000000000000000000000000000600052601160045260246000fd5b61429c806200033c6000396000f3fe608060405234801561001057600080fd5b506004361061014d5760003560e01c8063985e78d8116100c3578063d0854b771161007c578063d0854b7714610400578063d5abeb011461041e578063da13ae671461043c578063dcd2af171461046c578063e4849b321461048a578063fa32deff146104ba5761014d565b8063985e78d8146102f4578063a59ac6dd14610324578063b4ae8a5c14610354578063c4d66de814610384578063c60746f6146103a0578063cfbe1761146103d05761014d565b80634f2a082c116101155780634f2a082c146101e657806354d7a8a41461021657806361a25812146102465780636f8b44b01461027657806375d76266146102a6578063961d030f146102c45761014d565b80630575f819146101525780630c7d5cd8146101705780631794bb3c1461018e578063277b2f97146101aa5780633de39c11146101c8575b600080fd5b61015a6104d8565b60405161016791906135e4565b60405180910390f35b6101786104fe565b60405161018591906139d1565b60405180910390f35b6101a860048036038101906101a39190612f01565b610514565b005b6101b261089d565b6040516101bf9190613910565b60405180910390f35b6101d06108a3565b6040516101dd9190613910565b60405180910390f35b61020060048036038101906101fb9190613097565b61093c565b60405161020d91906135a0565b60405180910390f35b610230600480360381019061022b9190613097565b610a09565b60405161023d9190613910565b60405180910390f35b610260600480360381019061025b9190612ed8565b610ad9565b60405161026d91906135a0565b60405180910390f35b610290600480360381019061028b9190613097565b610c79565b60405161029d91906135a0565b60405180910390f35b6102ae610d46565b6040516102bb919061361a565b60405180910390f35b6102de60048036038101906102d99190613097565b610d5e565b6040516102eb91906135a0565b60405180910390f35b61030e60048036038101906103099190612ed8565b610e2b565b60405161031b91906135a0565b60405180910390f35b61033e6004803603810190610339919061301f565b610f7f565b60405161034b9190613910565b60405180910390f35b61036e60048036038101906103699190612f50565b611bb7565b60405161037b9190613910565b60405180910390f35b61039e60048036038101906103999190612ed8565b611cef565b005b6103ba60048036038101906103b59190612fcd565b611ec0565b6040516103c79190613910565b60405180910390f35b6103ea60048036038101906103e59190612ed8565b612018565b6040516103f791906135a0565b60405180910390f35b6104086121b8565b6040516104159190613635565b60405180910390f35b6104266121de565b6040516104339190613910565b60405180910390f35b61045660048036038101906104519190612ed8565b6121e4565b60405161046391906135a0565b60405180910390f35b610474612201565b6040516104819190613910565b60405180910390f35b6104a4600480360381019061049f9190613097565b612207565b6040516104b19190613910565b60405180910390f35b6104c2612283565b6040516104cf91906135ff565b60405180910390f35b600f60009054906101000a900473ffffffffffffffffffffffffffffffffffffffff1681565b600760009054906101000a900463ffffffff1681565b60018054906101000a900460ff168061053a5750600160009054906101000a900460ff16155b610579576040517f08c379a000000000000000000000000000000000000000000000000000000000815260040161057090613750565b60405180910390fd5b600060018054906101000a900460ff1615905080156105c75760018060016101000a81548160ff02191690831515021790555060018060006101000a81548160ff0219169083151502179055505b600160029054906101000a900473ffffffffffffffffffffffffffffffffffffffff1673ffffffffffffffffffffffffffffffffffffffff163373ffffffffffffffffffffffffffffffffffffffff1614610657576040517f08c379a000000000000000000000000000000000000000000000000000000000815260040161064e906138d0565b60405180910390fd5b82600f60006101000a81548173ffffffffffffffffffffffffffffffffffffffff021916908373ffffffffffffffffffffffffffffffffffffffff160217905550601160009054906101000a900473ffffffffffffffffffffffffffffffffffffffff1673ffffffffffffffffffffffffffffffffffffffff166323b872dd600260009054906101000a900473ffffffffffffffffffffffffffffffffffffffff1630856040518463ffffffff1660e01b8152600401610719939291906134b6565b602060405180830381600087803b15801561073357600080fd5b505af1158015610747573d6000803e3d6000fd5b505050506040513d601f19601f8201168201806040525081019061076b9190612ff6565b6107aa576040517f08c379a00000000000000000000000000000000000000000000000000000000081526004016107a190613690565b60405180910390fd5b6107b384611cef565b600f60009054906101000a900473ffffffffffffffffffffffffffffffffffffffff1673ffffffffffffffffffffffffffffffffffffffff166340c10f19600260009054906101000a900473ffffffffffffffffffffffffffffffffffffffff166006546040518363ffffffff1660e01b8152600401610834929190613540565b600060405180830381600087803b15801561084e57600080fd5b505af1158015610862573d6000803e3d6000fd5b5050505081600a81905550600654600b8190555080156108975760006001806101000a81548160ff0219169083151502179055505b50505050565b600b5481565b600073169e633a2d1e6c10dd91238ba11c4a708dfef37c73ffffffffffffffffffffffffffffffffffffffff166350d25bcd6040518163ffffffff1660e01b815260040160206040518083038186803b1580156108ff57600080fd5b505afa158015610913573d6000803e3d6000fd5b505050506040513d601f19601f82011682018060405250810190610937919061306e565b905090565b60006109466122a9565b73ffffffffffffffffffffffffffffffffffffffff166391d148547f10518cd1efd37f850ee27646f7020563391bf44e0e90d6ecae7e0334935b5a4c336040518363ffffffff1660e01b81526004016109a09291906135bb565b60206040518083038186803b1580156109b857600080fd5b505afa1580156109cc573d6000803e3d6000fd5b505050506040513d601f19601f820116820180604052508101906109f09190612ff6565b6109f957600080fd5b8160088190555060019050919050565b6000601060009054906101000a900473ffffffffffffffffffffffffffffffffffffffff1673ffffffffffffffffffffffffffffffffffffffff166376cf0b56600b54600a54600760009054906101000a900463ffffffff16866040518563ffffffff1660e01b8152600401610a82949392919061398c565b60206040518083038186803b158015610a9a57600080fd5b505afa158015610aae573d6000803e3d6000fd5b505050506040513d601f19601f82011682018060405250810190610ad291906130c0565b9050919050565b6000610ae36122a9565b73ffffffffffffffffffffffffffffffffffffffff166391d148547f10518cd1efd37f850ee27646f7020563391bf44e0e90d6ecae7e0334935b5a4c336040518363ffffffff1660e01b8152600401610b3d9291906135bb565b60206040518083038186803b158015610b5557600080fd5b505afa158015610b69573d6000803e3d6000fd5b505050506040513d601f19601f82011682018060405250810190610b8d9190612ff6565b610b9657600080fd5b3073ffffffffffffffffffffffffffffffffffffffff1663da13ae67836040518263ffffffff1660e01b8152600401610bcf9190613472565b60206040518083038186803b158015610be757600080fd5b505afa158015610bfb573d6000803e3d6000fd5b505050506040513d601f19601f82011682018060405250810190610c1f9190612ff6565b610c5e576040517f08c379a0000000000000000000000000000000000000000000000000000000008152600401610c5590613790565b60405180910390fd5b610c7282600d61230090919063ffffffff16565b9050919050565b6000610c836122a9565b73ffffffffffffffffffffffffffffffffffffffff166391d148547f10518cd1efd37f850ee27646f7020563391bf44e0e90d6ecae7e0334935b5a4c336040518363ffffffff1660e01b8152600401610cdd9291906135bb565b60206040518083038186803b158015610cf557600080fd5b505afa158015610d09573d6000803e3d6000fd5b505050506040513d601f19601f82011682018060405250810190610d2d9190612ff6565b610d3657600080fd5b81600c8190555060019050919050565b73169e633a2d1e6c10dd91238ba11c4a708dfef37c81565b6000610d686122a9565b73ffffffffffffffffffffffffffffffffffffffff166391d148547f10518cd1efd37f850ee27646f7020563391bf44e0e90d6ecae7e0334935b5a4c336040518363ffffffff1660e01b8152600401610dc29291906135bb565b60206040518083038186803b158015610dda57600080fd5b505afa158015610dee573d6000803e3d6000fd5b505050506040513d601f19601f82011682018060405250810190610e129190612ff6565b610e1b57600080fd5b8160088190555060019050919050565b600080601260009054906101000a900473ffffffffffffffffffffffffffffffffffffffff1673ffffffffffffffffffffffffffffffffffffffff1663cc77828d6040518163ffffffff1660e01b815260040160006040518083038186803b158015610e9657600080fd5b505afa158015610eaa573d6000803e3d6000fd5b505050506040513d6000823e3d601f19601f82011682018060405250810190610ed39190612f8c565b905060005b8151811015610f7357818181518110610f1a577f4e487b7100000000000000000000000000000000000000000000000000000000600052603260045260246000fd5b602002602001015173ffffffffffffffffffffffffffffffffffffffff168473ffffffffffffffffffffffffffffffffffffffff161415610f6057600192505050610f7a565b8080610f6b90613ca2565b915050610ed8565b5060009150505b919050565b600060026000541415610fc7576040517f08c379a0000000000000000000000000000000000000000000000000000000008152600401610fbe90613890565b60405180910390fd5b6002600081905550610fd76108a3565b3a1115610fe357600080fd5b60648210611026576040517f08c379a000000000000000000000000000000000000000000000000000000000815260040161101d90613850565b60405180910390fd5b3073ffffffffffffffffffffffffffffffffffffffff1663985e78d8856040518263ffffffff1660e01b815260040161105f9190613472565b60206040518083038186803b15801561107757600080fd5b505afa15801561108b573d6000803e3d6000fd5b505050506040513d601f19601f820116820180604052508101906110af9190612ff6565b6110ee576040517f08c379a00000000000000000000000000000000000000000000000000000000081526004016110e5906136b0565b60405180910390fd5b3073ffffffffffffffffffffffffffffffffffffffff1663da13ae67856040518263ffffffff1660e01b81526004016111279190613472565b60206040518083038186803b15801561113f57600080fd5b505afa158015611153573d6000803e3d6000fd5b505050506040513d601f19601f820116820180604052508101906111779190612ff6565b6111b6576040517f08c379a00000000000000000000000000000000000000000000000000000000081526004016111ad906137d0565b60405180910390fd5b600083116111f9576040517f08c379a00000000000000000000000000000000000000000000000000000000081526004016111f0906138f0565b60405180910390fd5b828473ffffffffffffffffffffffffffffffffffffffff1663dd62ed3e33306040518363ffffffff1660e01b815260040161123592919061348d565b60206040518083038186803b15801561124d57600080fd5b505afa158015611261573d6000803e3d6000fd5b505050506040513d601f19601f8201168201806040525081019061128591906130c0565b10156112c6576040517f08c379a00000000000000000000000000000000000000000000000000000000081526004016112bd90613670565b60405180910390fd5b828473ffffffffffffffffffffffffffffffffffffffff166370a08231336040518263ffffffff1660e01b81526004016113009190613472565b60206040518083038186803b15801561131857600080fd5b505afa15801561132c573d6000803e3d6000fd5b505050506040513d601f19601f8201168201806040525081019061135091906130c0565b1015611391576040517f08c379a000000000000000000000000000000000000000000000000000000000815260040161138890613770565b60405180910390fd5b600060056002601260009054906101000a900473ffffffffffffffffffffffffffffffffffffffff1673ffffffffffffffffffffffffffffffffffffffff1663f8b2cb4f886040518263ffffffff1660e01b81526004016113f29190613472565b60206040518083038186803b15801561140a57600080fd5b505afa15801561141e573d6000803e3d6000fd5b505050506040513d601f19601f8201168201806040525081019061144291906130c0565b61144c9190613aa4565b6114569190613a4e565b90508084111561149b576040517f08c379a000000000000000000000000000000000000000000000000000000000815260040161149290613710565b60405180910390fd5b6000600454600954866114ae9190613ad5565b6114b89190613aa4565b90506000600454600854876114cd9190613ad5565b6114d79190613aa4565b905060008183886114e89190613b2f565b6114f29190613b2f565b90508773ffffffffffffffffffffffffffffffffffffffff1663095ea7b3601160009054906101000a900473ffffffffffffffffffffffffffffffffffffffff16836040518363ffffffff1660e01b8152600401611551929190613540565b602060405180830381600087803b15801561156b57600080fd5b505af115801561157f573d6000803e3d6000fd5b505050506040513d601f19601f820116820180604052508101906115a39190612ff6565b6115e2576040517f08c379a00000000000000000000000000000000000000000000000000000000081526004016115d990613810565b60405180910390fd5b60006115ee8983612330565b905060006115fb8261273d565b9050600c54600b548261160e9190613a4e565b111561164f576040517f08c379a000000000000000000000000000000000000000000000000000000000815260040161164690613650565b60405180910390fd5b8973ffffffffffffffffffffffffffffffffffffffff166323b872dd33308c6040518463ffffffff1660e01b815260040161168c939291906134b6565b602060405180830381600087803b1580156116a657600080fd5b505af11580156116ba573d6000803e3d6000fd5b505050506040513d601f19601f820116820180604052508101906116de9190612ff6565b61171d576040517f08c379a000000000000000000000000000000000000000000000000000000000815260040161171490613870565b60405180910390fd5b8973ffffffffffffffffffffffffffffffffffffffff1663a9059cbb600260009054906101000a900473ffffffffffffffffffffffffffffffffffffffff16876040518363ffffffff1660e01b815260040161177a929190613540565b602060405180830381600087803b15801561179457600080fd5b505af11580156117a8573d6000803e3d6000fd5b505050506040513d601f19601f820116820180604052508101906117cc9190612ff6565b61180b576040517f08c379a0000000000000000000000000000000000000000000000000000000008152600401611802906137b0565b60405180910390fd5b8973ffffffffffffffffffffffffffffffffffffffff1663a9059cbb600360009054906101000a900473ffffffffffffffffffffffffffffffffffffffff16866040518363ffffffff1660e01b8152600401611868929190613540565b602060405180830381600087803b15801561188257600080fd5b505af1158015611896573d6000803e3d6000fd5b505050506040513d601f19601f820116820180604052508101906118ba9190612ff6565b6118f9576040517f08c379a00000000000000000000000000000000000000000000000000000000081526004016118f0906137f0565b60405180910390fd5b828a73ffffffffffffffffffffffffffffffffffffffff166370a08231306040518263ffffffff1660e01b81526004016119339190613472565b60206040518083038186803b15801561194b57600080fd5b505afa15801561195f573d6000803e3d6000fd5b505050506040513d601f19601f8201168201806040525081019061198391906130c0565b10156119c4576040517f08c379a00000000000000000000000000000000000000000000000000000000081526004016119bb906138b0565b60405180910390fd5b6000600454662386f26fc100008a856119dd9190613ad5565b6119e79190613ad5565b6119f19190613aa4565b90506000601160009054906101000a900473ffffffffffffffffffffffffffffffffffffffff1673ffffffffffffffffffffffffffffffffffffffff16635db342778d87856040518463ffffffff1660e01b8152600401611a5493929190613569565b602060405180830381600087803b158015611a6e57600080fd5b505af1158015611a82573d6000803e3d6000fd5b505050506040513d601f19601f82011682018060405250810190611aa691906130c0565b9050600f60009054906101000a900473ffffffffffffffffffffffffffffffffffffffff1673ffffffffffffffffffffffffffffffffffffffff166340c10f1933856040518363ffffffff1660e01b8152600401611b05929190613540565b600060405180830381600087803b158015611b1f57600080fd5b505af1158015611b33573d6000803e3d6000fd5b5050505080600a54611b459190613a4e565b600a8190555082600b54611b599190613a4e565b600b819055507ef93dbdb72854b6b6fb35433086556f2635fc83c37080c667496fecfa650fb4338d8d8487604051611b959594939291906134ed565b60405180910390a1829850505050505050505060016000819055509392505050565b60003073ffffffffffffffffffffffffffffffffffffffff1663985e78d8846040518263ffffffff1660e01b8152600401611bf29190613472565b60206040518083038186803b158015611c0a57600080fd5b505afa158015611c1e573d6000803e3d6000fd5b505050506040513d601f19601f82011682018060405250810190611c429190612ff6565b611c81576040517f08c379a0000000000000000000000000000000000000000000000000000000008152600401611c78906136d0565b60405180910390fd5b600060045460095484611c949190613ad5565b611c9e9190613aa4565b9050600060045460085485611cb39190613ad5565b611cbd9190613aa4565b90506000818386611cce9190613b2f565b611cd89190613b2f565b9050611ce4868261280d565b935050505092915050565b60018054906101000a900460ff1680611d155750600160009054906101000a900460ff16155b611d54576040517f08c379a0000000000000000000000000000000000000000000000000000000008152600401611d4b90613750565b60405180910390fd5b600060018054906101000a900460ff161590508015611da25760018060016101000a81548160ff02191690831515021790555060018060006101000a81548160ff0219169083151502179055505b60017f7a90f6c545a08ef8e125aa088f88bee6937d2426935a3bd35718900e7e0b18b860001c611dd29190613b2f565b60001b7f7a90f6c545a08ef8e125aa088f88bee6937d2426935a3bd35718900e7e0b18b760001b14611e2d577f4e487b7100000000000000000000000000000000000000000000000000000000600052600160045260246000fd5b81611e5a7f7a90f6c545a08ef8e125aa088f88bee6937d2426935a3bd35718900e7e0b18b760001b61282e565b60000160006101000a81548173ffffffffffffffffffffffffffffffffffffffff021916908373ffffffffffffffffffffffffffffffffffffffff1602179055508015611ebc5760006001806101000a81548160ff0219169083151502179055505b5050565b600060026000541415611f08576040517f08c379a0000000000000000000000000000000000000000000000000000000008152600401611eff90613890565b60405180910390fd5b600260008190555081611f50576040517f08c379a0000000000000000000000000000000000000000000000000000000008152600401611f47906136f0565b60405180910390fd5b6000600f60009054906101000a900473ffffffffffffffffffffffffffffffffffffffff1673ffffffffffffffffffffffffffffffffffffffff166370a08231336040518263ffffffff1660e01b8152600401611fad9190613472565b60206040518083038186803b158015611fc557600080fd5b505afa158015611fd9573d6000803e3d6000fd5b505050506040513d601f19601f82011682018060405250810190611ffd91906130c0565b905061200881612838565b9150506001600081905550919050565b60006120226122a9565b73ffffffffffffffffffffffffffffffffffffffff166391d148547f10518cd1efd37f850ee27646f7020563391bf44e0e90d6ecae7e0334935b5a4c336040518363ffffffff1660e01b815260040161207c9291906135bb565b60206040518083038186803b15801561209457600080fd5b505afa1580156120a8573d6000803e3d6000fd5b505050506040513d601f19601f820116820180604052508101906120cc9190612ff6565b6120d557600080fd5b3073ffffffffffffffffffffffffffffffffffffffff1663985e78d8836040518263ffffffff1660e01b815260040161210e9190613472565b60206040518083038186803b15801561212657600080fd5b505afa15801561213a573d6000803e3d6000fd5b505050506040513d601f19601f8201168201806040525081019061215e9190612ff6565b61219d576040517f08c379a000000000000000000000000000000000000000000000000000000000815260040161219490613730565b60405180910390fd5b6121b182600d612b2190919063ffffffff16565b9050919050565b601160009054906101000a900473ffffffffffffffffffffffffffffffffffffffff1681565b600c5481565b60006121fa82600d612b5190919063ffffffff16565b9050919050565b600a5481565b60006002600054141561224f576040517f08c379a000000000000000000000000000000000000000000000000000000000815260040161224690613890565b60405180910390fd5b600260008190555061225f6108a3565b3a111561226b57600080fd5b61227482612838565b90506001600081905550919050565b601260009054906101000a900473ffffffffffffffffffffffffffffffffffffffff1681565b60006122d77f7a90f6c545a08ef8e125aa088f88bee6937d2426935a3bd35718900e7e0b18b760001b61282e565b60000160009054906101000a900473ffffffffffffffffffffffffffffffffffffffff16905090565b6000612328836000018373ffffffffffffffffffffffffffffffffffffffff1660001b612b81565b905092915050565b600080601260009054906101000a900473ffffffffffffffffffffffffffffffffffffffff1673ffffffffffffffffffffffffffffffffffffffff1663f8b2cb4f856040518263ffffffff1660e01b815260040161238e9190613472565b60206040518083038186803b1580156123a657600080fd5b505afa1580156123ba573d6000803e3d6000fd5b505050506040513d601f19601f820116820180604052508101906123de91906130c0565b90506000601260009054906101000a900473ffffffffffffffffffffffffffffffffffffffff1673ffffffffffffffffffffffffffffffffffffffff1663948d8ce6866040518263ffffffff1660e01b815260040161243d9190613472565b60206040518083038186803b15801561245557600080fd5b505afa158015612469573d6000803e3d6000fd5b505050506040513d601f19601f8201168201806040525081019061248d91906130c0565b90506000601260009054906101000a900473ffffffffffffffffffffffffffffffffffffffff1673ffffffffffffffffffffffffffffffffffffffff1663936c34776040518163ffffffff1660e01b815260040160206040518083038186803b1580156124f957600080fd5b505afa15801561250d573d6000803e3d6000fd5b505050506040513d601f19601f8201168201806040525081019061253191906130c0565b90506000601260009054906101000a900473ffffffffffffffffffffffffffffffffffffffff1673ffffffffffffffffffffffffffffffffffffffff1663d4cadf686040518163ffffffff1660e01b815260040160206040518083038186803b15801561259d57600080fd5b505afa1580156125b1573d6000803e3d6000fd5b505050506040513d601f19601f820116820180604052508101906125d591906130c0565b90506000601160009054906101000a900473ffffffffffffffffffffffffffffffffffffffff1673ffffffffffffffffffffffffffffffffffffffff166318160ddd6040518163ffffffff1660e01b815260040160206040518083038186803b15801561264157600080fd5b505afa158015612655573d6000803e3d6000fd5b505050506040513d601f19601f8201168201806040525081019061267991906130c0565b9050601260009054906101000a900473ffffffffffffffffffffffffffffffffffffffff1673ffffffffffffffffffffffffffffffffffffffff16638656b653868684878c886040518763ffffffff1660e01b81526004016126e09695949392919061392b565b60206040518083038186803b1580156126f857600080fd5b505afa15801561270c573d6000803e3d6000fd5b505050506040513d601f19601f8201168201806040525081019061273091906130c0565b9550505050505092915050565b6000601060009054906101000a900473ffffffffffffffffffffffffffffffffffffffff1673ffffffffffffffffffffffffffffffffffffffff1663f3250fe2600b54600a54600760009054906101000a900463ffffffff16866040518563ffffffff1660e01b81526004016127b6949392919061398c565b60206040518083038186803b1580156127ce57600080fd5b505afa1580156127e2573d6000803e3d6000fd5b505050506040513d601f19601f8201168201806040525081019061280691906130c0565b9050919050565b60008061281a8484612330565b90506128258161273d565b91505092915050565b6000819050919050565b6000600f60009054906101000a900473ffffffffffffffffffffffffffffffffffffffff1673ffffffffffffffffffffffffffffffffffffffff166370a08231336040518263ffffffff1660e01b81526004016128959190613472565b60206040518083038186803b1580156128ad57600080fd5b505afa1580156128c1573d6000803e3d6000fd5b505050506040513d601f19601f820116820180604052508101906128e591906130c0565b821115612927576040517f08c379a000000000000000000000000000000000000000000000000000000000815260040161291e90613770565b60405180910390fd5b61293082610a09565b9050600f60009054906101000a900473ffffffffffffffffffffffffffffffffffffffff1673ffffffffffffffffffffffffffffffffffffffff16639dc29fac33846040518363ffffffff1660e01b815260040161298f929190613540565b600060405180830381600087803b1580156129a957600080fd5b505af11580156129bd573d6000803e3d6000fd5b50505050601160009054906101000a900473ffffffffffffffffffffffffffffffffffffffff1673ffffffffffffffffffffffffffffffffffffffff1663a9059cbb33836040518363ffffffff1660e01b8152600401612a1e929190613540565b602060405180830381600087803b158015612a3857600080fd5b505af1158015612a4c573d6000803e3d6000fd5b505050506040513d601f19601f82011682018060405250810190612a709190612ff6565b612aaf576040517f08c379a0000000000000000000000000000000000000000000000000000000008152600401612aa690613830565b60405180910390fd5b80600a6000828254612ac19190613b2f565b9250508190555081600b6000828254612ada9190613b2f565b925050819055507fed7a144fad14804d5c249145e3e0e2b63a9eb455b76aee5bc92d711e9bba3e4a338383604051612b1493929190613569565b60405180910390a1919050565b6000612b49836000018373ffffffffffffffffffffffffffffffffffffffff1660001b612d07565b905092915050565b6000612b79836000018373ffffffffffffffffffffffffffffffffffffffff1660001b612d77565b905092915050565b60008083600101600084815260200190815260200160002054905060008114612cfb576000600182612bb39190613b2f565b9050600060018660000180549050612bcb9190613b2f565b9050818114612c86576000866000018281548110612c12577f4e487b7100000000000000000000000000000000000000000000000000000000600052603260045260246000fd5b9060005260206000200154905080876000018481548110612c5c577f4e487b7100000000000000000000000000000000000000000000000000000000600052603260045260246000fd5b90600052602060002001819055508387600101600083815260200190815260200160002081905550505b85600001805480612cc0577f4e487b7100000000000000000000000000000000000000000000000000000000600052603160045260246000fd5b600190038181906000526020600020016000905590558560010160008681526020019081526020016000206000905560019350505050612d01565b60009150505b92915050565b6000612d138383612d77565b612d6c578260000182908060018154018082558091505060019003906000526020600020016000909190919091505582600001805490508360010160008481526020019081526020016000208190555060019050612d71565b600090505b92915050565b600080836001016000848152602001908152602001600020541415905092915050565b6000612dad612da884613a11565b6139ec565b90508083825260208201905082856020860282011115612dcc57600080fd5b60005b85811015612dfc5781612de28882612e1b565b845260208401935060208301925050600181019050612dcf565b5050509392505050565b600081359050612e15816141f3565b92915050565b600081519050612e2a816141f3565b92915050565b600082601f830112612e4157600080fd5b8151612e51848260208601612d9a565b91505092915050565b600081359050612e698161420a565b92915050565b600081519050612e7e8161420a565b92915050565b600081359050612e9381614221565b92915050565b600081519050612ea881614238565b92915050565b600081359050612ebd8161424f565b92915050565b600081519050612ed28161424f565b92915050565b600060208284031215612eea57600080fd5b6000612ef884828501612e06565b91505092915050565b600080600060608486031215612f1657600080fd5b6000612f2486828701612e06565b9350506020612f3586828701612e06565b9250506040612f4686828701612eae565b9150509250925092565b60008060408385031215612f6357600080fd5b6000612f7185828601612e06565b9250506020612f8285828601612eae565b9150509250929050565b600060208284031215612f9e57600080fd5b600082015167ffffffffffffffff811115612fb857600080fd5b612fc484828501612e30565b91505092915050565b600060208284031215612fdf57600080fd5b6000612fed84828501612e5a565b91505092915050565b60006020828403121561300857600080fd5b600061301684828501612e6f565b91505092915050565b60008060006060848603121561303457600080fd5b600061304286828701612e84565b935050602061305386828701612eae565b925050604061306486828701612eae565b9150509250925092565b60006020828403121561308057600080fd5b600061308e84828501612e99565b91505092915050565b6000602082840312156130a957600080fd5b60006130b784828501612eae565b91505092915050565b6000602082840312156130d257600080fd5b60006130e084828501612ec3565b91505092915050565b6130f281613b63565b82525050565b61310181613b75565b82525050565b61311081613b81565b82525050565b61311f81613be1565b82525050565b61312e81613c05565b82525050565b61313d81613c29565b82525050565b61314c81613c4d565b82525050565b600061315f601b83613a3d565b915061316a82613d89565b602082019050919050565b6000613182601783613a3d565b915061318d82613db2565b602082019050919050565b60006131a5600f83613a3d565b91506131b082613ddb565b602082019050919050565b60006131c8600f83613a3d565b91506131d382613e04565b602082019050919050565b60006131eb601883613a3d565b91506131f682613e2d565b602082019050919050565b600061320e602283613a3d565b915061321982613e56565b604082019050919050565b6000613231601183613a3d565b915061323c82613ea5565b602082019050919050565b6000613254601883613a3d565b915061325f82613ece565b602082019050919050565b6000613277602e83613a3d565b915061328282613ef7565b604082019050919050565b600061329a601583613a3d565b91506132a582613f46565b602082019050919050565b60006132bd601783613a3d565b91506132c882613f6f565b602082019050919050565b60006132e0601f83613a3d565b91506132eb82613f98565b602082019050919050565b6000613303601583613a3d565b915061330e82613fc1565b602082019050919050565b6000613326601f83613a3d565b915061333182613fea565b602082019050919050565b6000613349603283613a3d565b915061335482614013565b604082019050919050565b600061336c602383613a3d565b915061337782614062565b604082019050919050565b600061338f601183613a3d565b915061339a826140b1565b602082019050919050565b60006133b2602583613a3d565b91506133bd826140da565b604082019050919050565b60006133d5601f83613a3d565b91506133e082614129565b602082019050919050565b60006133f8603383613a3d565b915061340382614152565b604082019050919050565b600061341b600683613a3d565b9150613426826141a1565b602082019050919050565b600061343e600b83613a3d565b9150613449826141ca565b602082019050919050565b61345d81613bc7565b82525050565b61346c81613bd1565b82525050565b600060208201905061348760008301846130e9565b92915050565b60006040820190506134a260008301856130e9565b6134af60208301846130e9565b9392505050565b60006060820190506134cb60008301866130e9565b6134d860208301856130e9565b6134e56040830184613454565b949350505050565b600060a08201905061350260008301886130e9565b61350f60208301876130e9565b61351c6040830186613454565b6135296060830185613454565b6135366080830184613454565b9695505050505050565b600060408201905061355560008301856130e9565b6135626020830184613454565b9392505050565b600060608201905061357e60008301866130e9565b61358b6020830185613454565b6135986040830184613454565b949350505050565b60006020820190506135b560008301846130f8565b92915050565b60006040820190506135d06000830185613107565b6135dd60208301846130e9565b9392505050565b60006020820190506135f96000830184613116565b92915050565b60006020820190506136146000830184613125565b92915050565b600060208201905061362f6000830184613134565b92915050565b600060208201905061364a6000830184613143565b92915050565b6000602082019050818103600083015261366981613152565b9050919050565b6000602082019050818103600083015261368981613175565b9050919050565b600060208201905081810360008301526136a981613198565b9050919050565b600060208201905081810360008301526136c9816131bb565b9050919050565b600060208201905081810360008301526136e9816131de565b9050919050565b6000602082019050818103600083015261370981613201565b9050919050565b6000602082019050818103600083015261372981613224565b9050919050565b6000602082019050818103600083015261374981613247565b9050919050565b600060208201905081810360008301526137698161326a565b9050919050565b600060208201905081810360008301526137898161328d565b9050919050565b600060208201905081810360008301526137a9816132b0565b9050919050565b600060208201905081810360008301526137c9816132d3565b9050919050565b600060208201905081810360008301526137e9816132f6565b9050919050565b6000602082019050818103600083015261380981613319565b9050919050565b600060208201905081810360008301526138298161333c565b9050919050565b600060208201905081810360008301526138498161335f565b9050919050565b6000602082019050818103600083015261386981613382565b9050919050565b60006020820190508181036000830152613889816133a5565b9050919050565b600060208201905081810360008301526138a9816133c8565b9050919050565b600060208201905081810360008301526138c9816133eb565b9050919050565b600060208201905081810360008301526138e98161340e565b9050919050565b6000602082019050818103600083015261390981613431565b9050919050565b60006020820190506139256000830184613454565b92915050565b600060c0820190506139406000830189613454565b61394d6020830188613454565b61395a6040830187613454565b6139676060830186613454565b6139746080830185613454565b61398160a0830184613454565b979650505050505050565b60006080820190506139a16000830187613454565b6139ae6020830186613454565b6139bb6040830185613463565b6139c86060830184613454565b95945050505050565b60006020820190506139e66000830184613463565b92915050565b60006139f6613a07565b9050613a028282613c71565b919050565b6000604051905090565b600067ffffffffffffffff821115613a2c57613a2b613d49565b5b602082029050602081019050919050565b600082825260208201905092915050565b6000613a5982613bc7565b9150613a6483613bc7565b9250827fffffffffffffffffffffffffffffffffffffffffffffffffffffffffffffffff03821115613a9957613a98613ceb565b5b828201905092915050565b6000613aaf82613bc7565b9150613aba83613bc7565b925082613aca57613ac9613d1a565b5b828204905092915050565b6000613ae082613bc7565b9150613aeb83613bc7565b9250817fffffffffffffffffffffffffffffffffffffffffffffffffffffffffffffffff0483118215151615613b2457613b23613ceb565b5b828202905092915050565b6000613b3a82613bc7565b9150613b4583613bc7565b925082821015613b5857613b57613ceb565b5b828203905092915050565b6000613b6e82613ba7565b9050919050565b60008115159050919050565b6000819050919050565b6000613b9682613b63565b9050919050565b6000819050919050565b600073ffffffffffffffffffffffffffffffffffffffff82169050919050565b6000819050919050565b600063ffffffff82169050919050565b6000613bec82613bf3565b9050919050565b6000613bfe82613ba7565b9050919050565b6000613c1082613c17565b9050919050565b6000613c2282613ba7565b9050919050565b6000613c3482613c3b565b9050919050565b6000613c4682613ba7565b9050919050565b6000613c5882613c5f565b9050919050565b6000613c6a82613ba7565b9050919050565b613c7a82613d78565b810181811067ffffffffffffffff82111715613c9957613c98613d49565b5b80604052505050565b6000613cad82613bc7565b91507fffffffffffffffffffffffffffffffffffffffffffffffffffffffffffffffff821415613ce057613cdf613ceb565b5b600182019050919050565b7f4e487b7100000000000000000000000000000000000000000000000000000000600052601160045260246000fd5b7f4e487b7100000000000000000000000000000000000000000000000000000000600052601260045260246000fd5b7f4e487b7100000000000000000000000000000000000000000000000000000000600052604160045260246000fd5b6000601f19601f8301169050919050565b7f6d696e746564206172726179203e20746f74616c20737570706c790000000000600082015250565b7f7573657220616c6c6f77616e6365203c20616d6f756e74000000000000000000600082015250565b7f5472616e73666572206661696c65640000000000000000000000000000000000600082015250565b7f746f6b656e206e6f7420696e206c700000000000000000000000000000000000600082015250565b7f746f6b656e206e6f7420696e2062616c616e636572204c500000000000000000600082015250565b7f73656c6c2066756e6374696f6e206e6f742063616c6c656420636f727265637460008201527f6c79000000000000000000000000000000000000000000000000000000000000602082015250565b7f726174696f20696e20746f6f2068696768000000000000000000000000000000600082015250565b7f546f6b656e206e6f7420696e2042616c616e636572204c500000000000000000600082015250565b7f496e697469616c697a61626c653a20636f6e747261637420697320616c72656160008201527f647920696e697469616c697a6564000000000000000000000000000000000000602082015250565b7f757365722062616c616e6365203c20616d6f756e740000000000000000000000600082015250565b7f546f6b656e206e6f7420696e205669727475616c204c50000000000000000000600082015250565b7f7472616e7366657220746f2044414f204d756c7469736967206661696c656400600082015250565b7f746f6b656e206e6f7420677265656e6c69737465640000000000000000000000600082015250565b7f7472616e7366657220746f20444556204d756c7469736967206661696c656400600082015250565b7f746f6b656e20617070726f766520666f7220636f6e747261637420746f20626160008201527f6c616e63657220706f6f6c206661696c65640000000000000000000000000000602082015250565b7f7472616e73666572206f66206c7020746f6b656e20746f20757365722066616960008201527f6c65640000000000000000000000000000000000000000000000000000000000602082015250565b7f736c69707061676520746f6f2068696768000000000000000000000000000000600082015250565b7f7472616e736665722066726f6d207573657220746f20636f6e7472616374206660008201527f61696c6564000000000000000000000000000000000000000000000000000000602082015250565b7f5265656e7472616e637947756172643a207265656e7472616e742063616c6c00600082015250565b7f636f6e747261637420646964206e6f742072656365697665207468652072696760008201527f687420616d6f756e74206f6620746f6b656e7300000000000000000000000000602082015250565b7f216f776e65720000000000000000000000000000000000000000000000000000600082015250565b7f616d6f756e742069732030000000000000000000000000000000000000000000600082015250565b6141fc81613b63565b811461420757600080fd5b50565b61421381613b75565b811461421e57600080fd5b50565b61422a81613b8b565b811461423557600080fd5b50565b61424181613b9d565b811461424c57600080fd5b50565b61425881613bc7565b811461426357600080fd5b5056fea2646970667358221220d1d575b514cf7710fdbc07ecee480324a0d8c8657328720fca2ce2ff525b394364736f6c63430008020033",
          "opcodes": "PUSH1 0x80 PUSH1 0x40 MSTORE PUSH20 0xB60EF661CEDC835836896191EDB87CC025EFD0B7 PUSH1 0x2 PUSH1 0x0 PUSH2 0x100 EXP DUP2 SLOAD DUP2 PUSH20 0xFFFFFFFFFFFFFFFFFFFFFFFFFFFFFFFFFFFFFFFF MUL NOT AND SWAP1 DUP4 PUSH20 0xFFFFFFFFFFFFFFFFFFFFFFFFFFFFFFFFFFFFFFFF AND MUL OR SWAP1 SSTORE POP PUSH20 0x3C25C256E609F524BF8B35DE7A517D5E883FF81C PUSH1 0x3 PUSH1 0x0 PUSH2 0x100 EXP DUP2 SLOAD DUP2 PUSH20 0xFFFFFFFFFFFFFFFFFFFFFFFFFFFFFFFFFFFFFFFF MUL NOT AND SWAP1 DUP4 PUSH20 0xFFFFFFFFFFFFFFFFFFFFFFFFFFFFFFFFFFFFFFFF AND MUL OR SWAP1 SSTORE POP PUSH8 0xDE0B6B3A7640000 PUSH1 0x4 SSTORE PUSH1 0x4 SLOAD PUSH3 0xAAE60 PUSH3 0xCD SWAP2 SWAP1 PUSH3 0x292 JUMP JUMPDEST PUSH1 0x5 SSTORE PUSH1 0x4 SLOAD PUSH2 0x2710 PUSH3 0xE2 SWAP2 SWAP1 PUSH3 0x292 JUMP JUMPDEST PUSH1 0x6 SSTORE PUSH2 0x8235 PUSH1 0x7 PUSH1 0x0 PUSH2 0x100 EXP DUP2 SLOAD DUP2 PUSH4 0xFFFFFFFF MUL NOT AND SWAP1 DUP4 PUSH4 0xFFFFFFFF AND MUL OR SWAP1 SSTORE POP PUSH8 0x16345785D8A0000 PUSH1 0x8 SSTORE PUSH8 0x2C68AF0BB140000 PUSH1 0x9 SSTORE PUSH1 0x4 SLOAD PUSH3 0x186A0 PUSH3 0x133 SWAP2 SWAP1 PUSH3 0x292 JUMP JUMPDEST PUSH1 0xC SSTORE PUSH20 0xA049894D5DCAD406B7C827D6DC6A0B58CA4AE73A PUSH1 0x10 PUSH1 0x0 PUSH2 0x100 EXP DUP2 SLOAD DUP2 PUSH20 0xFFFFFFFFFFFFFFFFFFFFFFFFFFFFFFFFFFFFFFFF MUL NOT AND SWAP1 DUP4 PUSH20 0xFFFFFFFFFFFFFFFFFFFFFFFFFFFFFFFFFFFFFFFF AND MUL OR SWAP1 SSTORE POP PUSH20 0xA800CDA5F3416A6FB64EF93D84D6298A685D190D PUSH1 0x11 PUSH1 0x0 PUSH2 0x100 EXP DUP2 SLOAD DUP2 PUSH20 0xFFFFFFFFFFFFFFFFFFFFFFFFFFFFFFFFFFFFFFFF MUL NOT AND SWAP1 DUP4 PUSH20 0xFFFFFFFFFFFFFFFFFFFFFFFFFFFFFFFFFFFFFFFF AND MUL OR SWAP1 SSTORE POP PUSH20 0x2E1300A7E6C3211C65317176CF1795F9BB1DAAB PUSH1 0x12 PUSH1 0x0 PUSH2 0x100 EXP DUP2 SLOAD DUP2 PUSH20 0xFFFFFFFFFFFFFFFFFFFFFFFFFFFFFFFFFFFFFFFF MUL NOT AND SWAP1 DUP4 PUSH20 0xFFFFFFFFFFFFFFFFFFFFFFFFFFFFFFFFFFFFFFFF AND MUL OR SWAP1 SSTORE POP CALLVALUE DUP1 ISZERO PUSH3 0x242 JUMPI PUSH1 0x0 DUP1 REVERT JUMPDEST POP PUSH1 0x1 PUSH1 0x0 DUP2 SWAP1 SSTORE POP CALLER PUSH1 0x1 PUSH1 0x2 PUSH2 0x100 EXP DUP2 SLOAD DUP2 PUSH20 0xFFFFFFFFFFFFFFFFFFFFFFFFFFFFFFFFFFFFFFFF MUL NOT AND SWAP1 DUP4 PUSH20 0xFFFFFFFFFFFFFFFFFFFFFFFFFFFFFFFFFFFFFFFF AND MUL OR SWAP1 SSTORE POP PUSH3 0x32C JUMP JUMPDEST PUSH1 0x0 PUSH3 0x29F DUP3 PUSH3 0x2F3 JUMP JUMPDEST SWAP2 POP PUSH3 0x2AC DUP4 PUSH3 0x2F3 JUMP JUMPDEST SWAP3 POP DUP2 PUSH32 0xFFFFFFFFFFFFFFFFFFFFFFFFFFFFFFFFFFFFFFFFFFFFFFFFFFFFFFFFFFFFFFFF DIV DUP4 GT DUP3 ISZERO ISZERO AND ISZERO PUSH3 0x2E8 JUMPI PUSH3 0x2E7 PUSH3 0x2FD JUMP JUMPDEST JUMPDEST DUP3 DUP3 MUL SWAP1 POP SWAP3 SWAP2 POP POP JUMP JUMPDEST PUSH1 0x0 DUP2 SWAP1 POP SWAP2 SWAP1 POP JUMP JUMPDEST PUSH32 0x4E487B7100000000000000000000000000000000000000000000000000000000 PUSH1 0x0 MSTORE PUSH1 0x11 PUSH1 0x4 MSTORE PUSH1 0x24 PUSH1 0x0 REVERT JUMPDEST PUSH2 0x429C DUP1 PUSH3 0x33C PUSH1 0x0 CODECOPY PUSH1 0x0 RETURN INVALID PUSH1 0x80 PUSH1 0x40 MSTORE CALLVALUE DUP1 ISZERO PUSH2 0x10 JUMPI PUSH1 0x0 DUP1 REVERT JUMPDEST POP PUSH1 0x4 CALLDATASIZE LT PUSH2 0x14D JUMPI PUSH1 0x0 CALLDATALOAD PUSH1 0xE0 SHR DUP1 PUSH4 0x985E78D8 GT PUSH2 0xC3 JUMPI DUP1 PUSH4 0xD0854B77 GT PUSH2 0x7C JUMPI DUP1 PUSH4 0xD0854B77 EQ PUSH2 0x400 JUMPI DUP1 PUSH4 0xD5ABEB01 EQ PUSH2 0x41E JUMPI DUP1 PUSH4 0xDA13AE67 EQ PUSH2 0x43C JUMPI DUP1 PUSH4 0xDCD2AF17 EQ PUSH2 0x46C JUMPI DUP1 PUSH4 0xE4849B32 EQ PUSH2 0x48A JUMPI DUP1 PUSH4 0xFA32DEFF EQ PUSH2 0x4BA JUMPI PUSH2 0x14D JUMP JUMPDEST DUP1 PUSH4 0x985E78D8 EQ PUSH2 0x2F4 JUMPI DUP1 PUSH4 0xA59AC6DD EQ PUSH2 0x324 JUMPI DUP1 PUSH4 0xB4AE8A5C EQ PUSH2 0x354 JUMPI DUP1 PUSH4 0xC4D66DE8 EQ PUSH2 0x384 JUMPI DUP1 PUSH4 0xC60746F6 EQ PUSH2 0x3A0 JUMPI DUP1 PUSH4 0xCFBE1761 EQ PUSH2 0x3D0 JUMPI PUSH2 0x14D JUMP JUMPDEST DUP1 PUSH4 0x4F2A082C GT PUSH2 0x115 JUMPI DUP1 PUSH4 0x4F2A082C EQ PUSH2 0x1E6 JUMPI DUP1 PUSH4 0x54D7A8A4 EQ PUSH2 0x216 JUMPI DUP1 PUSH4 0x61A25812 EQ PUSH2 0x246 JUMPI DUP1 PUSH4 0x6F8B44B0 EQ PUSH2 0x276 JUMPI DUP1 PUSH4 0x75D76266 EQ PUSH2 0x2A6 JUMPI DUP1 PUSH4 0x961D030F EQ PUSH2 0x2C4 JUMPI PUSH2 0x14D JUMP JUMPDEST DUP1 PUSH4 0x575F819 EQ PUSH2 0x152 JUMPI DUP1 PUSH4 0xC7D5CD8 EQ PUSH2 0x170 JUMPI DUP1 PUSH4 0x1794BB3C EQ PUSH2 0x18E JUMPI DUP1 PUSH4 0x277B2F97 EQ PUSH2 0x1AA JUMPI DUP1 PUSH4 0x3DE39C11 EQ PUSH2 0x1C8 JUMPI JUMPDEST PUSH1 0x0 DUP1 REVERT JUMPDEST PUSH2 0x15A PUSH2 0x4D8 JUMP JUMPDEST PUSH1 0x40 MLOAD PUSH2 0x167 SWAP2 SWAP1 PUSH2 0x35E4 JUMP JUMPDEST PUSH1 0x40 MLOAD DUP1 SWAP2 SUB SWAP1 RETURN JUMPDEST PUSH2 0x178 PUSH2 0x4FE JUMP JUMPDEST PUSH1 0x40 MLOAD PUSH2 0x185 SWAP2 SWAP1 PUSH2 0x39D1 JUMP JUMPDEST PUSH1 0x40 MLOAD DUP1 SWAP2 SUB SWAP1 RETURN JUMPDEST PUSH2 0x1A8 PUSH1 0x4 DUP1 CALLDATASIZE SUB DUP2 ADD SWAP1 PUSH2 0x1A3 SWAP2 SWAP1 PUSH2 0x2F01 JUMP JUMPDEST PUSH2 0x514 JUMP JUMPDEST STOP JUMPDEST PUSH2 0x1B2 PUSH2 0x89D JUMP JUMPDEST PUSH1 0x40 MLOAD PUSH2 0x1BF SWAP2 SWAP1 PUSH2 0x3910 JUMP JUMPDEST PUSH1 0x40 MLOAD DUP1 SWAP2 SUB SWAP1 RETURN JUMPDEST PUSH2 0x1D0 PUSH2 0x8A3 JUMP JUMPDEST PUSH1 0x40 MLOAD PUSH2 0x1DD SWAP2 SWAP1 PUSH2 0x3910 JUMP JUMPDEST PUSH1 0x40 MLOAD DUP1 SWAP2 SUB SWAP1 RETURN JUMPDEST PUSH2 0x200 PUSH1 0x4 DUP1 CALLDATASIZE SUB DUP2 ADD SWAP1 PUSH2 0x1FB SWAP2 SWAP1 PUSH2 0x3097 JUMP JUMPDEST PUSH2 0x93C JUMP JUMPDEST PUSH1 0x40 MLOAD PUSH2 0x20D SWAP2 SWAP1 PUSH2 0x35A0 JUMP JUMPDEST PUSH1 0x40 MLOAD DUP1 SWAP2 SUB SWAP1 RETURN JUMPDEST PUSH2 0x230 PUSH1 0x4 DUP1 CALLDATASIZE SUB DUP2 ADD SWAP1 PUSH2 0x22B SWAP2 SWAP1 PUSH2 0x3097 JUMP JUMPDEST PUSH2 0xA09 JUMP JUMPDEST PUSH1 0x40 MLOAD PUSH2 0x23D SWAP2 SWAP1 PUSH2 0x3910 JUMP JUMPDEST PUSH1 0x40 MLOAD DUP1 SWAP2 SUB SWAP1 RETURN JUMPDEST PUSH2 0x260 PUSH1 0x4 DUP1 CALLDATASIZE SUB DUP2 ADD SWAP1 PUSH2 0x25B SWAP2 SWAP1 PUSH2 0x2ED8 JUMP JUMPDEST PUSH2 0xAD9 JUMP JUMPDEST PUSH1 0x40 MLOAD PUSH2 0x26D SWAP2 SWAP1 PUSH2 0x35A0 JUMP JUMPDEST PUSH1 0x40 MLOAD DUP1 SWAP2 SUB SWAP1 RETURN JUMPDEST PUSH2 0x290 PUSH1 0x4 DUP1 CALLDATASIZE SUB DUP2 ADD SWAP1 PUSH2 0x28B SWAP2 SWAP1 PUSH2 0x3097 JUMP JUMPDEST PUSH2 0xC79 JUMP JUMPDEST PUSH1 0x40 MLOAD PUSH2 0x29D SWAP2 SWAP1 PUSH2 0x35A0 JUMP JUMPDEST PUSH1 0x40 MLOAD DUP1 SWAP2 SUB SWAP1 RETURN JUMPDEST PUSH2 0x2AE PUSH2 0xD46 JUMP JUMPDEST PUSH1 0x40 MLOAD PUSH2 0x2BB SWAP2 SWAP1 PUSH2 0x361A JUMP JUMPDEST PUSH1 0x40 MLOAD DUP1 SWAP2 SUB SWAP1 RETURN JUMPDEST PUSH2 0x2DE PUSH1 0x4 DUP1 CALLDATASIZE SUB DUP2 ADD SWAP1 PUSH2 0x2D9 SWAP2 SWAP1 PUSH2 0x3097 JUMP JUMPDEST PUSH2 0xD5E JUMP JUMPDEST PUSH1 0x40 MLOAD PUSH2 0x2EB SWAP2 SWAP1 PUSH2 0x35A0 JUMP JUMPDEST PUSH1 0x40 MLOAD DUP1 SWAP2 SUB SWAP1 RETURN JUMPDEST PUSH2 0x30E PUSH1 0x4 DUP1 CALLDATASIZE SUB DUP2 ADD SWAP1 PUSH2 0x309 SWAP2 SWAP1 PUSH2 0x2ED8 JUMP JUMPDEST PUSH2 0xE2B JUMP JUMPDEST PUSH1 0x40 MLOAD PUSH2 0x31B SWAP2 SWAP1 PUSH2 0x35A0 JUMP JUMPDEST PUSH1 0x40 MLOAD DUP1 SWAP2 SUB SWAP1 RETURN JUMPDEST PUSH2 0x33E PUSH1 0x4 DUP1 CALLDATASIZE SUB DUP2 ADD SWAP1 PUSH2 0x339 SWAP2 SWAP1 PUSH2 0x301F JUMP JUMPDEST PUSH2 0xF7F JUMP JUMPDEST PUSH1 0x40 MLOAD PUSH2 0x34B SWAP2 SWAP1 PUSH2 0x3910 JUMP JUMPDEST PUSH1 0x40 MLOAD DUP1 SWAP2 SUB SWAP1 RETURN JUMPDEST PUSH2 0x36E PUSH1 0x4 DUP1 CALLDATASIZE SUB DUP2 ADD SWAP1 PUSH2 0x369 SWAP2 SWAP1 PUSH2 0x2F50 JUMP JUMPDEST PUSH2 0x1BB7 JUMP JUMPDEST PUSH1 0x40 MLOAD PUSH2 0x37B SWAP2 SWAP1 PUSH2 0x3910 JUMP JUMPDEST PUSH1 0x40 MLOAD DUP1 SWAP2 SUB SWAP1 RETURN JUMPDEST PUSH2 0x39E PUSH1 0x4 DUP1 CALLDATASIZE SUB DUP2 ADD SWAP1 PUSH2 0x399 SWAP2 SWAP1 PUSH2 0x2ED8 JUMP JUMPDEST PUSH2 0x1CEF JUMP JUMPDEST STOP JUMPDEST PUSH2 0x3BA PUSH1 0x4 DUP1 CALLDATASIZE SUB DUP2 ADD SWAP1 PUSH2 0x3B5 SWAP2 SWAP1 PUSH2 0x2FCD JUMP JUMPDEST PUSH2 0x1EC0 JUMP JUMPDEST PUSH1 0x40 MLOAD PUSH2 0x3C7 SWAP2 SWAP1 PUSH2 0x3910 JUMP JUMPDEST PUSH1 0x40 MLOAD DUP1 SWAP2 SUB SWAP1 RETURN JUMPDEST PUSH2 0x3EA PUSH1 0x4 DUP1 CALLDATASIZE SUB DUP2 ADD SWAP1 PUSH2 0x3E5 SWAP2 SWAP1 PUSH2 0x2ED8 JUMP JUMPDEST PUSH2 0x2018 JUMP JUMPDEST PUSH1 0x40 MLOAD PUSH2 0x3F7 SWAP2 SWAP1 PUSH2 0x35A0 JUMP JUMPDEST PUSH1 0x40 MLOAD DUP1 SWAP2 SUB SWAP1 RETURN JUMPDEST PUSH2 0x408 PUSH2 0x21B8 JUMP JUMPDEST PUSH1 0x40 MLOAD PUSH2 0x415 SWAP2 SWAP1 PUSH2 0x3635 JUMP JUMPDEST PUSH1 0x40 MLOAD DUP1 SWAP2 SUB SWAP1 RETURN JUMPDEST PUSH2 0x426 PUSH2 0x21DE JUMP JUMPDEST PUSH1 0x40 MLOAD PUSH2 0x433 SWAP2 SWAP1 PUSH2 0x3910 JUMP JUMPDEST PUSH1 0x40 MLOAD DUP1 SWAP2 SUB SWAP1 RETURN JUMPDEST PUSH2 0x456 PUSH1 0x4 DUP1 CALLDATASIZE SUB DUP2 ADD SWAP1 PUSH2 0x451 SWAP2 SWAP1 PUSH2 0x2ED8 JUMP JUMPDEST PUSH2 0x21E4 JUMP JUMPDEST PUSH1 0x40 MLOAD PUSH2 0x463 SWAP2 SWAP1 PUSH2 0x35A0 JUMP JUMPDEST PUSH1 0x40 MLOAD DUP1 SWAP2 SUB SWAP1 RETURN JUMPDEST PUSH2 0x474 PUSH2 0x2201 JUMP JUMPDEST PUSH1 0x40 MLOAD PUSH2 0x481 SWAP2 SWAP1 PUSH2 0x3910 JUMP JUMPDEST PUSH1 0x40 MLOAD DUP1 SWAP2 SUB SWAP1 RETURN JUMPDEST PUSH2 0x4A4 PUSH1 0x4 DUP1 CALLDATASIZE SUB DUP2 ADD SWAP1 PUSH2 0x49F SWAP2 SWAP1 PUSH2 0x3097 JUMP JUMPDEST PUSH2 0x2207 JUMP JUMPDEST PUSH1 0x40 MLOAD PUSH2 0x4B1 SWAP2 SWAP1 PUSH2 0x3910 JUMP JUMPDEST PUSH1 0x40 MLOAD DUP1 SWAP2 SUB SWAP1 RETURN JUMPDEST PUSH2 0x4C2 PUSH2 0x2283 JUMP JUMPDEST PUSH1 0x40 MLOAD PUSH2 0x4CF SWAP2 SWAP1 PUSH2 0x35FF JUMP JUMPDEST PUSH1 0x40 MLOAD DUP1 SWAP2 SUB SWAP1 RETURN JUMPDEST PUSH1 0xF PUSH1 0x0 SWAP1 SLOAD SWAP1 PUSH2 0x100 EXP SWAP1 DIV PUSH20 0xFFFFFFFFFFFFFFFFFFFFFFFFFFFFFFFFFFFFFFFF AND DUP2 JUMP JUMPDEST PUSH1 0x7 PUSH1 0x0 SWAP1 SLOAD SWAP1 PUSH2 0x100 EXP SWAP1 DIV PUSH4 0xFFFFFFFF AND DUP2 JUMP JUMPDEST PUSH1 0x1 DUP1 SLOAD SWAP1 PUSH2 0x100 EXP SWAP1 DIV PUSH1 0xFF AND DUP1 PUSH2 0x53A JUMPI POP PUSH1 0x1 PUSH1 0x0 SWAP1 SLOAD SWAP1 PUSH2 0x100 EXP SWAP1 DIV PUSH1 0xFF AND ISZERO JUMPDEST PUSH2 0x579 JUMPI PUSH1 0x40 MLOAD PUSH32 0x8C379A000000000000000000000000000000000000000000000000000000000 DUP2 MSTORE PUSH1 0x4 ADD PUSH2 0x570 SWAP1 PUSH2 0x3750 JUMP JUMPDEST PUSH1 0x40 MLOAD DUP1 SWAP2 SUB SWAP1 REVERT JUMPDEST PUSH1 0x0 PUSH1 0x1 DUP1 SLOAD SWAP1 PUSH2 0x100 EXP SWAP1 DIV PUSH1 0xFF AND ISZERO SWAP1 POP DUP1 ISZERO PUSH2 0x5C7 JUMPI PUSH1 0x1 DUP1 PUSH1 0x1 PUSH2 0x100 EXP DUP2 SLOAD DUP2 PUSH1 0xFF MUL NOT AND SWAP1 DUP4 ISZERO ISZERO MUL OR SWAP1 SSTORE POP PUSH1 0x1 DUP1 PUSH1 0x0 PUSH2 0x100 EXP DUP2 SLOAD DUP2 PUSH1 0xFF MUL NOT AND SWAP1 DUP4 ISZERO ISZERO MUL OR SWAP1 SSTORE POP JUMPDEST PUSH1 0x1 PUSH1 0x2 SWAP1 SLOAD SWAP1 PUSH2 0x100 EXP SWAP1 DIV PUSH20 0xFFFFFFFFFFFFFFFFFFFFFFFFFFFFFFFFFFFFFFFF AND PUSH20 0xFFFFFFFFFFFFFFFFFFFFFFFFFFFFFFFFFFFFFFFF AND CALLER PUSH20 0xFFFFFFFFFFFFFFFFFFFFFFFFFFFFFFFFFFFFFFFF AND EQ PUSH2 0x657 JUMPI PUSH1 0x40 MLOAD PUSH32 0x8C379A000000000000000000000000000000000000000000000000000000000 DUP2 MSTORE PUSH1 0x4 ADD PUSH2 0x64E SWAP1 PUSH2 0x38D0 JUMP JUMPDEST PUSH1 0x40 MLOAD DUP1 SWAP2 SUB SWAP1 REVERT JUMPDEST DUP3 PUSH1 0xF PUSH1 0x0 PUSH2 0x100 EXP DUP2 SLOAD DUP2 PUSH20 0xFFFFFFFFFFFFFFFFFFFFFFFFFFFFFFFFFFFFFFFF MUL NOT AND SWAP1 DUP4 PUSH20 0xFFFFFFFFFFFFFFFFFFFFFFFFFFFFFFFFFFFFFFFF AND MUL OR SWAP1 SSTORE POP PUSH1 0x11 PUSH1 0x0 SWAP1 SLOAD SWAP1 PUSH2 0x100 EXP SWAP1 DIV PUSH20 0xFFFFFFFFFFFFFFFFFFFFFFFFFFFFFFFFFFFFFFFF AND PUSH20 0xFFFFFFFFFFFFFFFFFFFFFFFFFFFFFFFFFFFFFFFF AND PUSH4 0x23B872DD PUSH1 0x2 PUSH1 0x0 SWAP1 SLOAD SWAP1 PUSH2 0x100 EXP SWAP1 DIV PUSH20 0xFFFFFFFFFFFFFFFFFFFFFFFFFFFFFFFFFFFFFFFF AND ADDRESS DUP6 PUSH1 0x40 MLOAD DUP5 PUSH4 0xFFFFFFFF AND PUSH1 0xE0 SHL DUP2 MSTORE PUSH1 0x4 ADD PUSH2 0x719 SWAP4 SWAP3 SWAP2 SWAP1 PUSH2 0x34B6 JUMP JUMPDEST PUSH1 0x20 PUSH1 0x40 MLOAD DUP1 DUP4 SUB DUP2 PUSH1 0x0 DUP8 DUP1 EXTCODESIZE ISZERO DUP1 ISZERO PUSH2 0x733 JUMPI PUSH1 0x0 DUP1 REVERT JUMPDEST POP GAS CALL ISZERO DUP1 ISZERO PUSH2 0x747 JUMPI RETURNDATASIZE PUSH1 0x0 DUP1 RETURNDATACOPY RETURNDATASIZE PUSH1 0x0 REVERT JUMPDEST POP POP POP POP PUSH1 0x40 MLOAD RETURNDATASIZE PUSH1 0x1F NOT PUSH1 0x1F DUP3 ADD AND DUP3 ADD DUP1 PUSH1 0x40 MSTORE POP DUP2 ADD SWAP1 PUSH2 0x76B SWAP2 SWAP1 PUSH2 0x2FF6 JUMP JUMPDEST PUSH2 0x7AA JUMPI PUSH1 0x40 MLOAD PUSH32 0x8C379A000000000000000000000000000000000000000000000000000000000 DUP2 MSTORE PUSH1 0x4 ADD PUSH2 0x7A1 SWAP1 PUSH2 0x3690 JUMP JUMPDEST PUSH1 0x40 MLOAD DUP1 SWAP2 SUB SWAP1 REVERT JUMPDEST PUSH2 0x7B3 DUP5 PUSH2 0x1CEF JUMP JUMPDEST PUSH1 0xF PUSH1 0x0 SWAP1 SLOAD SWAP1 PUSH2 0x100 EXP SWAP1 DIV PUSH20 0xFFFFFFFFFFFFFFFFFFFFFFFFFFFFFFFFFFFFFFFF AND PUSH20 0xFFFFFFFFFFFFFFFFFFFFFFFFFFFFFFFFFFFFFFFF AND PUSH4 0x40C10F19 PUSH1 0x2 PUSH1 0x0 SWAP1 SLOAD SWAP1 PUSH2 0x100 EXP SWAP1 DIV PUSH20 0xFFFFFFFFFFFFFFFFFFFFFFFFFFFFFFFFFFFFFFFF AND PUSH1 0x6 SLOAD PUSH1 0x40 MLOAD DUP4 PUSH4 0xFFFFFFFF AND PUSH1 0xE0 SHL DUP2 MSTORE PUSH1 0x4 ADD PUSH2 0x834 SWAP3 SWAP2 SWAP1 PUSH2 0x3540 JUMP JUMPDEST PUSH1 0x0 PUSH1 0x40 MLOAD DUP1 DUP4 SUB DUP2 PUSH1 0x0 DUP8 DUP1 EXTCODESIZE ISZERO DUP1 ISZERO PUSH2 0x84E JUMPI PUSH1 0x0 DUP1 REVERT JUMPDEST POP GAS CALL ISZERO DUP1 ISZERO PUSH2 0x862 JUMPI RETURNDATASIZE PUSH1 0x0 DUP1 RETURNDATACOPY RETURNDATASIZE PUSH1 0x0 REVERT JUMPDEST POP POP POP POP DUP2 PUSH1 0xA DUP2 SWAP1 SSTORE POP PUSH1 0x6 SLOAD PUSH1 0xB DUP2 SWAP1 SSTORE POP DUP1 ISZERO PUSH2 0x897 JUMPI PUSH1 0x0 PUSH1 0x1 DUP1 PUSH2 0x100 EXP DUP2 SLOAD DUP2 PUSH1 0xFF MUL NOT AND SWAP1 DUP4 ISZERO ISZERO MUL OR SWAP1 SSTORE POP JUMPDEST POP POP POP POP JUMP JUMPDEST PUSH1 0xB SLOAD DUP2 JUMP JUMPDEST PUSH1 0x0 PUSH20 0x169E633A2D1E6C10DD91238BA11C4A708DFEF37C PUSH20 0xFFFFFFFFFFFFFFFFFFFFFFFFFFFFFFFFFFFFFFFF AND PUSH4 0x50D25BCD PUSH1 0x40 MLOAD DUP2 PUSH4 0xFFFFFFFF AND PUSH1 0xE0 SHL DUP2 MSTORE PUSH1 0x4 ADD PUSH1 0x20 PUSH1 0x40 MLOAD DUP1 DUP4 SUB DUP2 DUP7 DUP1 EXTCODESIZE ISZERO DUP1 ISZERO PUSH2 0x8FF JUMPI PUSH1 0x0 DUP1 REVERT JUMPDEST POP GAS STATICCALL ISZERO DUP1 ISZERO PUSH2 0x913 JUMPI RETURNDATASIZE PUSH1 0x0 DUP1 RETURNDATACOPY RETURNDATASIZE PUSH1 0x0 REVERT JUMPDEST POP POP POP POP PUSH1 0x40 MLOAD RETURNDATASIZE PUSH1 0x1F NOT PUSH1 0x1F DUP3 ADD AND DUP3 ADD DUP1 PUSH1 0x40 MSTORE POP DUP2 ADD SWAP1 PUSH2 0x937 SWAP2 SWAP1 PUSH2 0x306E JUMP JUMPDEST SWAP1 POP SWAP1 JUMP JUMPDEST PUSH1 0x0 PUSH2 0x946 PUSH2 0x22A9 JUMP JUMPDEST PUSH20 0xFFFFFFFFFFFFFFFFFFFFFFFFFFFFFFFFFFFFFFFF AND PUSH4 0x91D14854 PUSH32 0x10518CD1EFD37F850EE27646F7020563391BF44E0E90D6ECAE7E0334935B5A4C CALLER PUSH1 0x40 MLOAD DUP4 PUSH4 0xFFFFFFFF AND PUSH1 0xE0 SHL DUP2 MSTORE PUSH1 0x4 ADD PUSH2 0x9A0 SWAP3 SWAP2 SWAP1 PUSH2 0x35BB JUMP JUMPDEST PUSH1 0x20 PUSH1 0x40 MLOAD DUP1 DUP4 SUB DUP2 DUP7 DUP1 EXTCODESIZE ISZERO DUP1 ISZERO PUSH2 0x9B8 JUMPI PUSH1 0x0 DUP1 REVERT JUMPDEST POP GAS STATICCALL ISZERO DUP1 ISZERO PUSH2 0x9CC JUMPI RETURNDATASIZE PUSH1 0x0 DUP1 RETURNDATACOPY RETURNDATASIZE PUSH1 0x0 REVERT JUMPDEST POP POP POP POP PUSH1 0x40 MLOAD RETURNDATASIZE PUSH1 0x1F NOT PUSH1 0x1F DUP3 ADD AND DUP3 ADD DUP1 PUSH1 0x40 MSTORE POP DUP2 ADD SWAP1 PUSH2 0x9F0 SWAP2 SWAP1 PUSH2 0x2FF6 JUMP JUMPDEST PUSH2 0x9F9 JUMPI PUSH1 0x0 DUP1 REVERT JUMPDEST DUP2 PUSH1 0x8 DUP2 SWAP1 SSTORE POP PUSH1 0x1 SWAP1 POP SWAP2 SWAP1 POP JUMP JUMPDEST PUSH1 0x0 PUSH1 0x10 PUSH1 0x0 SWAP1 SLOAD SWAP1 PUSH2 0x100 EXP SWAP1 DIV PUSH20 0xFFFFFFFFFFFFFFFFFFFFFFFFFFFFFFFFFFFFFFFF AND PUSH20 0xFFFFFFFFFFFFFFFFFFFFFFFFFFFFFFFFFFFFFFFF AND PUSH4 0x76CF0B56 PUSH1 0xB SLOAD PUSH1 0xA SLOAD PUSH1 0x7 PUSH1 0x0 SWAP1 SLOAD SWAP1 PUSH2 0x100 EXP SWAP1 DIV PUSH4 0xFFFFFFFF AND DUP7 PUSH1 0x40 MLOAD DUP6 PUSH4 0xFFFFFFFF AND PUSH1 0xE0 SHL DUP2 MSTORE PUSH1 0x4 ADD PUSH2 0xA82 SWAP5 SWAP4 SWAP3 SWAP2 SWAP1 PUSH2 0x398C JUMP JUMPDEST PUSH1 0x20 PUSH1 0x40 MLOAD DUP1 DUP4 SUB DUP2 DUP7 DUP1 EXTCODESIZE ISZERO DUP1 ISZERO PUSH2 0xA9A JUMPI PUSH1 0x0 DUP1 REVERT JUMPDEST POP GAS STATICCALL ISZERO DUP1 ISZERO PUSH2 0xAAE JUMPI RETURNDATASIZE PUSH1 0x0 DUP1 RETURNDATACOPY RETURNDATASIZE PUSH1 0x0 REVERT JUMPDEST POP POP POP POP PUSH1 0x40 MLOAD RETURNDATASIZE PUSH1 0x1F NOT PUSH1 0x1F DUP3 ADD AND DUP3 ADD DUP1 PUSH1 0x40 MSTORE POP DUP2 ADD SWAP1 PUSH2 0xAD2 SWAP2 SWAP1 PUSH2 0x30C0 JUMP JUMPDEST SWAP1 POP SWAP2 SWAP1 POP JUMP JUMPDEST PUSH1 0x0 PUSH2 0xAE3 PUSH2 0x22A9 JUMP JUMPDEST PUSH20 0xFFFFFFFFFFFFFFFFFFFFFFFFFFFFFFFFFFFFFFFF AND PUSH4 0x91D14854 PUSH32 0x10518CD1EFD37F850EE27646F7020563391BF44E0E90D6ECAE7E0334935B5A4C CALLER PUSH1 0x40 MLOAD DUP4 PUSH4 0xFFFFFFFF AND PUSH1 0xE0 SHL DUP2 MSTORE PUSH1 0x4 ADD PUSH2 0xB3D SWAP3 SWAP2 SWAP1 PUSH2 0x35BB JUMP JUMPDEST PUSH1 0x20 PUSH1 0x40 MLOAD DUP1 DUP4 SUB DUP2 DUP7 DUP1 EXTCODESIZE ISZERO DUP1 ISZERO PUSH2 0xB55 JUMPI PUSH1 0x0 DUP1 REVERT JUMPDEST POP GAS STATICCALL ISZERO DUP1 ISZERO PUSH2 0xB69 JUMPI RETURNDATASIZE PUSH1 0x0 DUP1 RETURNDATACOPY RETURNDATASIZE PUSH1 0x0 REVERT JUMPDEST POP POP POP POP PUSH1 0x40 MLOAD RETURNDATASIZE PUSH1 0x1F NOT PUSH1 0x1F DUP3 ADD AND DUP3 ADD DUP1 PUSH1 0x40 MSTORE POP DUP2 ADD SWAP1 PUSH2 0xB8D SWAP2 SWAP1 PUSH2 0x2FF6 JUMP JUMPDEST PUSH2 0xB96 JUMPI PUSH1 0x0 DUP1 REVERT JUMPDEST ADDRESS PUSH20 0xFFFFFFFFFFFFFFFFFFFFFFFFFFFFFFFFFFFFFFFF AND PUSH4 0xDA13AE67 DUP4 PUSH1 0x40 MLOAD DUP3 PUSH4 0xFFFFFFFF AND PUSH1 0xE0 SHL DUP2 MSTORE PUSH1 0x4 ADD PUSH2 0xBCF SWAP2 SWAP1 PUSH2 0x3472 JUMP JUMPDEST PUSH1 0x20 PUSH1 0x40 MLOAD DUP1 DUP4 SUB DUP2 DUP7 DUP1 EXTCODESIZE ISZERO DUP1 ISZERO PUSH2 0xBE7 JUMPI PUSH1 0x0 DUP1 REVERT JUMPDEST POP GAS STATICCALL ISZERO DUP1 ISZERO PUSH2 0xBFB JUMPI RETURNDATASIZE PUSH1 0x0 DUP1 RETURNDATACOPY RETURNDATASIZE PUSH1 0x0 REVERT JUMPDEST POP POP POP POP PUSH1 0x40 MLOAD RETURNDATASIZE PUSH1 0x1F NOT PUSH1 0x1F DUP3 ADD AND DUP3 ADD DUP1 PUSH1 0x40 MSTORE POP DUP2 ADD SWAP1 PUSH2 0xC1F SWAP2 SWAP1 PUSH2 0x2FF6 JUMP JUMPDEST PUSH2 0xC5E JUMPI PUSH1 0x40 MLOAD PUSH32 0x8C379A000000000000000000000000000000000000000000000000000000000 DUP2 MSTORE PUSH1 0x4 ADD PUSH2 0xC55 SWAP1 PUSH2 0x3790 JUMP JUMPDEST PUSH1 0x40 MLOAD DUP1 SWAP2 SUB SWAP1 REVERT JUMPDEST PUSH2 0xC72 DUP3 PUSH1 0xD PUSH2 0x2300 SWAP1 SWAP2 SWAP1 PUSH4 0xFFFFFFFF AND JUMP JUMPDEST SWAP1 POP SWAP2 SWAP1 POP JUMP JUMPDEST PUSH1 0x0 PUSH2 0xC83 PUSH2 0x22A9 JUMP JUMPDEST PUSH20 0xFFFFFFFFFFFFFFFFFFFFFFFFFFFFFFFFFFFFFFFF AND PUSH4 0x91D14854 PUSH32 0x10518CD1EFD37F850EE27646F7020563391BF44E0E90D6ECAE7E0334935B5A4C CALLER PUSH1 0x40 MLOAD DUP4 PUSH4 0xFFFFFFFF AND PUSH1 0xE0 SHL DUP2 MSTORE PUSH1 0x4 ADD PUSH2 0xCDD SWAP3 SWAP2 SWAP1 PUSH2 0x35BB JUMP JUMPDEST PUSH1 0x20 PUSH1 0x40 MLOAD DUP1 DUP4 SUB DUP2 DUP7 DUP1 EXTCODESIZE ISZERO DUP1 ISZERO PUSH2 0xCF5 JUMPI PUSH1 0x0 DUP1 REVERT JUMPDEST POP GAS STATICCALL ISZERO DUP1 ISZERO PUSH2 0xD09 JUMPI RETURNDATASIZE PUSH1 0x0 DUP1 RETURNDATACOPY RETURNDATASIZE PUSH1 0x0 REVERT JUMPDEST POP POP POP POP PUSH1 0x40 MLOAD RETURNDATASIZE PUSH1 0x1F NOT PUSH1 0x1F DUP3 ADD AND DUP3 ADD DUP1 PUSH1 0x40 MSTORE POP DUP2 ADD SWAP1 PUSH2 0xD2D SWAP2 SWAP1 PUSH2 0x2FF6 JUMP JUMPDEST PUSH2 0xD36 JUMPI PUSH1 0x0 DUP1 REVERT JUMPDEST DUP2 PUSH1 0xC DUP2 SWAP1 SSTORE POP PUSH1 0x1 SWAP1 POP SWAP2 SWAP1 POP JUMP JUMPDEST PUSH20 0x169E633A2D1E6C10DD91238BA11C4A708DFEF37C DUP2 JUMP JUMPDEST PUSH1 0x0 PUSH2 0xD68 PUSH2 0x22A9 JUMP JUMPDEST PUSH20 0xFFFFFFFFFFFFFFFFFFFFFFFFFFFFFFFFFFFFFFFF AND PUSH4 0x91D14854 PUSH32 0x10518CD1EFD37F850EE27646F7020563391BF44E0E90D6ECAE7E0334935B5A4C CALLER PUSH1 0x40 MLOAD DUP4 PUSH4 0xFFFFFFFF AND PUSH1 0xE0 SHL DUP2 MSTORE PUSH1 0x4 ADD PUSH2 0xDC2 SWAP3 SWAP2 SWAP1 PUSH2 0x35BB JUMP JUMPDEST PUSH1 0x20 PUSH1 0x40 MLOAD DUP1 DUP4 SUB DUP2 DUP7 DUP1 EXTCODESIZE ISZERO DUP1 ISZERO PUSH2 0xDDA JUMPI PUSH1 0x0 DUP1 REVERT JUMPDEST POP GAS STATICCALL ISZERO DUP1 ISZERO PUSH2 0xDEE JUMPI RETURNDATASIZE PUSH1 0x0 DUP1 RETURNDATACOPY RETURNDATASIZE PUSH1 0x0 REVERT JUMPDEST POP POP POP POP PUSH1 0x40 MLOAD RETURNDATASIZE PUSH1 0x1F NOT PUSH1 0x1F DUP3 ADD AND DUP3 ADD DUP1 PUSH1 0x40 MSTORE POP DUP2 ADD SWAP1 PUSH2 0xE12 SWAP2 SWAP1 PUSH2 0x2FF6 JUMP JUMPDEST PUSH2 0xE1B JUMPI PUSH1 0x0 DUP1 REVERT JUMPDEST DUP2 PUSH1 0x8 DUP2 SWAP1 SSTORE POP PUSH1 0x1 SWAP1 POP SWAP2 SWAP1 POP JUMP JUMPDEST PUSH1 0x0 DUP1 PUSH1 0x12 PUSH1 0x0 SWAP1 SLOAD SWAP1 PUSH2 0x100 EXP SWAP1 DIV PUSH20 0xFFFFFFFFFFFFFFFFFFFFFFFFFFFFFFFFFFFFFFFF AND PUSH20 0xFFFFFFFFFFFFFFFFFFFFFFFFFFFFFFFFFFFFFFFF AND PUSH4 0xCC77828D PUSH1 0x40 MLOAD DUP2 PUSH4 0xFFFFFFFF AND PUSH1 0xE0 SHL DUP2 MSTORE PUSH1 0x4 ADD PUSH1 0x0 PUSH1 0x40 MLOAD DUP1 DUP4 SUB DUP2 DUP7 DUP1 EXTCODESIZE ISZERO DUP1 ISZERO PUSH2 0xE96 JUMPI PUSH1 0x0 DUP1 REVERT JUMPDEST POP GAS STATICCALL ISZERO DUP1 ISZERO PUSH2 0xEAA JUMPI RETURNDATASIZE PUSH1 0x0 DUP1 RETURNDATACOPY RETURNDATASIZE PUSH1 0x0 REVERT JUMPDEST POP POP POP POP PUSH1 0x40 MLOAD RETURNDATASIZE PUSH1 0x0 DUP3 RETURNDATACOPY RETURNDATASIZE PUSH1 0x1F NOT PUSH1 0x1F DUP3 ADD AND DUP3 ADD DUP1 PUSH1 0x40 MSTORE POP DUP2 ADD SWAP1 PUSH2 0xED3 SWAP2 SWAP1 PUSH2 0x2F8C JUMP JUMPDEST SWAP1 POP PUSH1 0x0 JUMPDEST DUP2 MLOAD DUP2 LT ISZERO PUSH2 0xF73 JUMPI DUP2 DUP2 DUP2 MLOAD DUP2 LT PUSH2 0xF1A JUMPI PUSH32 0x4E487B7100000000000000000000000000000000000000000000000000000000 PUSH1 0x0 MSTORE PUSH1 0x32 PUSH1 0x4 MSTORE PUSH1 0x24 PUSH1 0x0 REVERT JUMPDEST PUSH1 0x20 MUL PUSH1 0x20 ADD ADD MLOAD PUSH20 0xFFFFFFFFFFFFFFFFFFFFFFFFFFFFFFFFFFFFFFFF AND DUP5 PUSH20 0xFFFFFFFFFFFFFFFFFFFFFFFFFFFFFFFFFFFFFFFF AND EQ ISZERO PUSH2 0xF60 JUMPI PUSH1 0x1 SWAP3 POP POP POP PUSH2 0xF7A JUMP JUMPDEST DUP1 DUP1 PUSH2 0xF6B SWAP1 PUSH2 0x3CA2 JUMP JUMPDEST SWAP2 POP POP PUSH2 0xED8 JUMP JUMPDEST POP PUSH1 0x0 SWAP2 POP POP JUMPDEST SWAP2 SWAP1 POP JUMP JUMPDEST PUSH1 0x0 PUSH1 0x2 PUSH1 0x0 SLOAD EQ ISZERO PUSH2 0xFC7 JUMPI PUSH1 0x40 MLOAD PUSH32 0x8C379A000000000000000000000000000000000000000000000000000000000 DUP2 MSTORE PUSH1 0x4 ADD PUSH2 0xFBE SWAP1 PUSH2 0x3890 JUMP JUMPDEST PUSH1 0x40 MLOAD DUP1 SWAP2 SUB SWAP1 REVERT JUMPDEST PUSH1 0x2 PUSH1 0x0 DUP2 SWAP1 SSTORE POP PUSH2 0xFD7 PUSH2 0x8A3 JUMP JUMPDEST GASPRICE GT ISZERO PUSH2 0xFE3 JUMPI PUSH1 0x0 DUP1 REVERT JUMPDEST PUSH1 0x64 DUP3 LT PUSH2 0x1026 JUMPI PUSH1 0x40 MLOAD PUSH32 0x8C379A000000000000000000000000000000000000000000000000000000000 DUP2 MSTORE PUSH1 0x4 ADD PUSH2 0x101D SWAP1 PUSH2 0x3850 JUMP JUMPDEST PUSH1 0x40 MLOAD DUP1 SWAP2 SUB SWAP1 REVERT JUMPDEST ADDRESS PUSH20 0xFFFFFFFFFFFFFFFFFFFFFFFFFFFFFFFFFFFFFFFF AND PUSH4 0x985E78D8 DUP6 PUSH1 0x40 MLOAD DUP3 PUSH4 0xFFFFFFFF AND PUSH1 0xE0 SHL DUP2 MSTORE PUSH1 0x4 ADD PUSH2 0x105F SWAP2 SWAP1 PUSH2 0x3472 JUMP JUMPDEST PUSH1 0x20 PUSH1 0x40 MLOAD DUP1 DUP4 SUB DUP2 DUP7 DUP1 EXTCODESIZE ISZERO DUP1 ISZERO PUSH2 0x1077 JUMPI PUSH1 0x0 DUP1 REVERT JUMPDEST POP GAS STATICCALL ISZERO DUP1 ISZERO PUSH2 0x108B JUMPI RETURNDATASIZE PUSH1 0x0 DUP1 RETURNDATACOPY RETURNDATASIZE PUSH1 0x0 REVERT JUMPDEST POP POP POP POP PUSH1 0x40 MLOAD RETURNDATASIZE PUSH1 0x1F NOT PUSH1 0x1F DUP3 ADD AND DUP3 ADD DUP1 PUSH1 0x40 MSTORE POP DUP2 ADD SWAP1 PUSH2 0x10AF SWAP2 SWAP1 PUSH2 0x2FF6 JUMP JUMPDEST PUSH2 0x10EE JUMPI PUSH1 0x40 MLOAD PUSH32 0x8C379A000000000000000000000000000000000000000000000000000000000 DUP2 MSTORE PUSH1 0x4 ADD PUSH2 0x10E5 SWAP1 PUSH2 0x36B0 JUMP JUMPDEST PUSH1 0x40 MLOAD DUP1 SWAP2 SUB SWAP1 REVERT JUMPDEST ADDRESS PUSH20 0xFFFFFFFFFFFFFFFFFFFFFFFFFFFFFFFFFFFFFFFF AND PUSH4 0xDA13AE67 DUP6 PUSH1 0x40 MLOAD DUP3 PUSH4 0xFFFFFFFF AND PUSH1 0xE0 SHL DUP2 MSTORE PUSH1 0x4 ADD PUSH2 0x1127 SWAP2 SWAP1 PUSH2 0x3472 JUMP JUMPDEST PUSH1 0x20 PUSH1 0x40 MLOAD DUP1 DUP4 SUB DUP2 DUP7 DUP1 EXTCODESIZE ISZERO DUP1 ISZERO PUSH2 0x113F JUMPI PUSH1 0x0 DUP1 REVERT JUMPDEST POP GAS STATICCALL ISZERO DUP1 ISZERO PUSH2 0x1153 JUMPI RETURNDATASIZE PUSH1 0x0 DUP1 RETURNDATACOPY RETURNDATASIZE PUSH1 0x0 REVERT JUMPDEST POP POP POP POP PUSH1 0x40 MLOAD RETURNDATASIZE PUSH1 0x1F NOT PUSH1 0x1F DUP3 ADD AND DUP3 ADD DUP1 PUSH1 0x40 MSTORE POP DUP2 ADD SWAP1 PUSH2 0x1177 SWAP2 SWAP1 PUSH2 0x2FF6 JUMP JUMPDEST PUSH2 0x11B6 JUMPI PUSH1 0x40 MLOAD PUSH32 0x8C379A000000000000000000000000000000000000000000000000000000000 DUP2 MSTORE PUSH1 0x4 ADD PUSH2 0x11AD SWAP1 PUSH2 0x37D0 JUMP JUMPDEST PUSH1 0x40 MLOAD DUP1 SWAP2 SUB SWAP1 REVERT JUMPDEST PUSH1 0x0 DUP4 GT PUSH2 0x11F9 JUMPI PUSH1 0x40 MLOAD PUSH32 0x8C379A000000000000000000000000000000000000000000000000000000000 DUP2 MSTORE PUSH1 0x4 ADD PUSH2 0x11F0 SWAP1 PUSH2 0x38F0 JUMP JUMPDEST PUSH1 0x40 MLOAD DUP1 SWAP2 SUB SWAP1 REVERT JUMPDEST DUP3 DUP5 PUSH20 0xFFFFFFFFFFFFFFFFFFFFFFFFFFFFFFFFFFFFFFFF AND PUSH4 0xDD62ED3E CALLER ADDRESS PUSH1 0x40 MLOAD DUP4 PUSH4 0xFFFFFFFF AND PUSH1 0xE0 SHL DUP2 MSTORE PUSH1 0x4 ADD PUSH2 0x1235 SWAP3 SWAP2 SWAP1 PUSH2 0x348D JUMP JUMPDEST PUSH1 0x20 PUSH1 0x40 MLOAD DUP1 DUP4 SUB DUP2 DUP7 DUP1 EXTCODESIZE ISZERO DUP1 ISZERO PUSH2 0x124D JUMPI PUSH1 0x0 DUP1 REVERT JUMPDEST POP GAS STATICCALL ISZERO DUP1 ISZERO PUSH2 0x1261 JUMPI RETURNDATASIZE PUSH1 0x0 DUP1 RETURNDATACOPY RETURNDATASIZE PUSH1 0x0 REVERT JUMPDEST POP POP POP POP PUSH1 0x40 MLOAD RETURNDATASIZE PUSH1 0x1F NOT PUSH1 0x1F DUP3 ADD AND DUP3 ADD DUP1 PUSH1 0x40 MSTORE POP DUP2 ADD SWAP1 PUSH2 0x1285 SWAP2 SWAP1 PUSH2 0x30C0 JUMP JUMPDEST LT ISZERO PUSH2 0x12C6 JUMPI PUSH1 0x40 MLOAD PUSH32 0x8C379A000000000000000000000000000000000000000000000000000000000 DUP2 MSTORE PUSH1 0x4 ADD PUSH2 0x12BD SWAP1 PUSH2 0x3670 JUMP JUMPDEST PUSH1 0x40 MLOAD DUP1 SWAP2 SUB SWAP1 REVERT JUMPDEST DUP3 DUP5 PUSH20 0xFFFFFFFFFFFFFFFFFFFFFFFFFFFFFFFFFFFFFFFF AND PUSH4 0x70A08231 CALLER PUSH1 0x40 MLOAD DUP3 PUSH4 0xFFFFFFFF AND PUSH1 0xE0 SHL DUP2 MSTORE PUSH1 0x4 ADD PUSH2 0x1300 SWAP2 SWAP1 PUSH2 0x3472 JUMP JUMPDEST PUSH1 0x20 PUSH1 0x40 MLOAD DUP1 DUP4 SUB DUP2 DUP7 DUP1 EXTCODESIZE ISZERO DUP1 ISZERO PUSH2 0x1318 JUMPI PUSH1 0x0 DUP1 REVERT JUMPDEST POP GAS STATICCALL ISZERO DUP1 ISZERO PUSH2 0x132C JUMPI RETURNDATASIZE PUSH1 0x0 DUP1 RETURNDATACOPY RETURNDATASIZE PUSH1 0x0 REVERT JUMPDEST POP POP POP POP PUSH1 0x40 MLOAD RETURNDATASIZE PUSH1 0x1F NOT PUSH1 0x1F DUP3 ADD AND DUP3 ADD DUP1 PUSH1 0x40 MSTORE POP DUP2 ADD SWAP1 PUSH2 0x1350 SWAP2 SWAP1 PUSH2 0x30C0 JUMP JUMPDEST LT ISZERO PUSH2 0x1391 JUMPI PUSH1 0x40 MLOAD PUSH32 0x8C379A000000000000000000000000000000000000000000000000000000000 DUP2 MSTORE PUSH1 0x4 ADD PUSH2 0x1388 SWAP1 PUSH2 0x3770 JUMP JUMPDEST PUSH1 0x40 MLOAD DUP1 SWAP2 SUB SWAP1 REVERT JUMPDEST PUSH1 0x0 PUSH1 0x5 PUSH1 0x2 PUSH1 0x12 PUSH1 0x0 SWAP1 SLOAD SWAP1 PUSH2 0x100 EXP SWAP1 DIV PUSH20 0xFFFFFFFFFFFFFFFFFFFFFFFFFFFFFFFFFFFFFFFF AND PUSH20 0xFFFFFFFFFFFFFFFFFFFFFFFFFFFFFFFFFFFFFFFF AND PUSH4 0xF8B2CB4F DUP9 PUSH1 0x40 MLOAD DUP3 PUSH4 0xFFFFFFFF AND PUSH1 0xE0 SHL DUP2 MSTORE PUSH1 0x4 ADD PUSH2 0x13F2 SWAP2 SWAP1 PUSH2 0x3472 JUMP JUMPDEST PUSH1 0x20 PUSH1 0x40 MLOAD DUP1 DUP4 SUB DUP2 DUP7 DUP1 EXTCODESIZE ISZERO DUP1 ISZERO PUSH2 0x140A JUMPI PUSH1 0x0 DUP1 REVERT JUMPDEST POP GAS STATICCALL ISZERO DUP1 ISZERO PUSH2 0x141E JUMPI RETURNDATASIZE PUSH1 0x0 DUP1 RETURNDATACOPY RETURNDATASIZE PUSH1 0x0 REVERT JUMPDEST POP POP POP POP PUSH1 0x40 MLOAD RETURNDATASIZE PUSH1 0x1F NOT PUSH1 0x1F DUP3 ADD AND DUP3 ADD DUP1 PUSH1 0x40 MSTORE POP DUP2 ADD SWAP1 PUSH2 0x1442 SWAP2 SWAP1 PUSH2 0x30C0 JUMP JUMPDEST PUSH2 0x144C SWAP2 SWAP1 PUSH2 0x3AA4 JUMP JUMPDEST PUSH2 0x1456 SWAP2 SWAP1 PUSH2 0x3A4E JUMP JUMPDEST SWAP1 POP DUP1 DUP5 GT ISZERO PUSH2 0x149B JUMPI PUSH1 0x40 MLOAD PUSH32 0x8C379A000000000000000000000000000000000000000000000000000000000 DUP2 MSTORE PUSH1 0x4 ADD PUSH2 0x1492 SWAP1 PUSH2 0x3710 JUMP JUMPDEST PUSH1 0x40 MLOAD DUP1 SWAP2 SUB SWAP1 REVERT JUMPDEST PUSH1 0x0 PUSH1 0x4 SLOAD PUSH1 0x9 SLOAD DUP7 PUSH2 0x14AE SWAP2 SWAP1 PUSH2 0x3AD5 JUMP JUMPDEST PUSH2 0x14B8 SWAP2 SWAP1 PUSH2 0x3AA4 JUMP JUMPDEST SWAP1 POP PUSH1 0x0 PUSH1 0x4 SLOAD PUSH1 0x8 SLOAD DUP8 PUSH2 0x14CD SWAP2 SWAP1 PUSH2 0x3AD5 JUMP JUMPDEST PUSH2 0x14D7 SWAP2 SWAP1 PUSH2 0x3AA4 JUMP JUMPDEST SWAP1 POP PUSH1 0x0 DUP2 DUP4 DUP9 PUSH2 0x14E8 SWAP2 SWAP1 PUSH2 0x3B2F JUMP JUMPDEST PUSH2 0x14F2 SWAP2 SWAP1 PUSH2 0x3B2F JUMP JUMPDEST SWAP1 POP DUP8 PUSH20 0xFFFFFFFFFFFFFFFFFFFFFFFFFFFFFFFFFFFFFFFF AND PUSH4 0x95EA7B3 PUSH1 0x11 PUSH1 0x0 SWAP1 SLOAD SWAP1 PUSH2 0x100 EXP SWAP1 DIV PUSH20 0xFFFFFFFFFFFFFFFFFFFFFFFFFFFFFFFFFFFFFFFF AND DUP4 PUSH1 0x40 MLOAD DUP4 PUSH4 0xFFFFFFFF AND PUSH1 0xE0 SHL DUP2 MSTORE PUSH1 0x4 ADD PUSH2 0x1551 SWAP3 SWAP2 SWAP1 PUSH2 0x3540 JUMP JUMPDEST PUSH1 0x20 PUSH1 0x40 MLOAD DUP1 DUP4 SUB DUP2 PUSH1 0x0 DUP8 DUP1 EXTCODESIZE ISZERO DUP1 ISZERO PUSH2 0x156B JUMPI PUSH1 0x0 DUP1 REVERT JUMPDEST POP GAS CALL ISZERO DUP1 ISZERO PUSH2 0x157F JUMPI RETURNDATASIZE PUSH1 0x0 DUP1 RETURNDATACOPY RETURNDATASIZE PUSH1 0x0 REVERT JUMPDEST POP POP POP POP PUSH1 0x40 MLOAD RETURNDATASIZE PUSH1 0x1F NOT PUSH1 0x1F DUP3 ADD AND DUP3 ADD DUP1 PUSH1 0x40 MSTORE POP DUP2 ADD SWAP1 PUSH2 0x15A3 SWAP2 SWAP1 PUSH2 0x2FF6 JUMP JUMPDEST PUSH2 0x15E2 JUMPI PUSH1 0x40 MLOAD PUSH32 0x8C379A000000000000000000000000000000000000000000000000000000000 DUP2 MSTORE PUSH1 0x4 ADD PUSH2 0x15D9 SWAP1 PUSH2 0x3810 JUMP JUMPDEST PUSH1 0x40 MLOAD DUP1 SWAP2 SUB SWAP1 REVERT JUMPDEST PUSH1 0x0 PUSH2 0x15EE DUP10 DUP4 PUSH2 0x2330 JUMP JUMPDEST SWAP1 POP PUSH1 0x0 PUSH2 0x15FB DUP3 PUSH2 0x273D JUMP JUMPDEST SWAP1 POP PUSH1 0xC SLOAD PUSH1 0xB SLOAD DUP3 PUSH2 0x160E SWAP2 SWAP1 PUSH2 0x3A4E JUMP JUMPDEST GT ISZERO PUSH2 0x164F JUMPI PUSH1 0x40 MLOAD PUSH32 0x8C379A000000000000000000000000000000000000000000000000000000000 DUP2 MSTORE PUSH1 0x4 ADD PUSH2 0x1646 SWAP1 PUSH2 0x3650 JUMP JUMPDEST PUSH1 0x40 MLOAD DUP1 SWAP2 SUB SWAP1 REVERT JUMPDEST DUP10 PUSH20 0xFFFFFFFFFFFFFFFFFFFFFFFFFFFFFFFFFFFFFFFF AND PUSH4 0x23B872DD CALLER ADDRESS DUP13 PUSH1 0x40 MLOAD DUP5 PUSH4 0xFFFFFFFF AND PUSH1 0xE0 SHL DUP2 MSTORE PUSH1 0x4 ADD PUSH2 0x168C SWAP4 SWAP3 SWAP2 SWAP1 PUSH2 0x34B6 JUMP JUMPDEST PUSH1 0x20 PUSH1 0x40 MLOAD DUP1 DUP4 SUB DUP2 PUSH1 0x0 DUP8 DUP1 EXTCODESIZE ISZERO DUP1 ISZERO PUSH2 0x16A6 JUMPI PUSH1 0x0 DUP1 REVERT JUMPDEST POP GAS CALL ISZERO DUP1 ISZERO PUSH2 0x16BA JUMPI RETURNDATASIZE PUSH1 0x0 DUP1 RETURNDATACOPY RETURNDATASIZE PUSH1 0x0 REVERT JUMPDEST POP POP POP POP PUSH1 0x40 MLOAD RETURNDATASIZE PUSH1 0x1F NOT PUSH1 0x1F DUP3 ADD AND DUP3 ADD DUP1 PUSH1 0x40 MSTORE POP DUP2 ADD SWAP1 PUSH2 0x16DE SWAP2 SWAP1 PUSH2 0x2FF6 JUMP JUMPDEST PUSH2 0x171D JUMPI PUSH1 0x40 MLOAD PUSH32 0x8C379A000000000000000000000000000000000000000000000000000000000 DUP2 MSTORE PUSH1 0x4 ADD PUSH2 0x1714 SWAP1 PUSH2 0x3870 JUMP JUMPDEST PUSH1 0x40 MLOAD DUP1 SWAP2 SUB SWAP1 REVERT JUMPDEST DUP10 PUSH20 0xFFFFFFFFFFFFFFFFFFFFFFFFFFFFFFFFFFFFFFFF AND PUSH4 0xA9059CBB PUSH1 0x2 PUSH1 0x0 SWAP1 SLOAD SWAP1 PUSH2 0x100 EXP SWAP1 DIV PUSH20 0xFFFFFFFFFFFFFFFFFFFFFFFFFFFFFFFFFFFFFFFF AND DUP8 PUSH1 0x40 MLOAD DUP4 PUSH4 0xFFFFFFFF AND PUSH1 0xE0 SHL DUP2 MSTORE PUSH1 0x4 ADD PUSH2 0x177A SWAP3 SWAP2 SWAP1 PUSH2 0x3540 JUMP JUMPDEST PUSH1 0x20 PUSH1 0x40 MLOAD DUP1 DUP4 SUB DUP2 PUSH1 0x0 DUP8 DUP1 EXTCODESIZE ISZERO DUP1 ISZERO PUSH2 0x1794 JUMPI PUSH1 0x0 DUP1 REVERT JUMPDEST POP GAS CALL ISZERO DUP1 ISZERO PUSH2 0x17A8 JUMPI RETURNDATASIZE PUSH1 0x0 DUP1 RETURNDATACOPY RETURNDATASIZE PUSH1 0x0 REVERT JUMPDEST POP POP POP POP PUSH1 0x40 MLOAD RETURNDATASIZE PUSH1 0x1F NOT PUSH1 0x1F DUP3 ADD AND DUP3 ADD DUP1 PUSH1 0x40 MSTORE POP DUP2 ADD SWAP1 PUSH2 0x17CC SWAP2 SWAP1 PUSH2 0x2FF6 JUMP JUMPDEST PUSH2 0x180B JUMPI PUSH1 0x40 MLOAD PUSH32 0x8C379A000000000000000000000000000000000000000000000000000000000 DUP2 MSTORE PUSH1 0x4 ADD PUSH2 0x1802 SWAP1 PUSH2 0x37B0 JUMP JUMPDEST PUSH1 0x40 MLOAD DUP1 SWAP2 SUB SWAP1 REVERT JUMPDEST DUP10 PUSH20 0xFFFFFFFFFFFFFFFFFFFFFFFFFFFFFFFFFFFFFFFF AND PUSH4 0xA9059CBB PUSH1 0x3 PUSH1 0x0 SWAP1 SLOAD SWAP1 PUSH2 0x100 EXP SWAP1 DIV PUSH20 0xFFFFFFFFFFFFFFFFFFFFFFFFFFFFFFFFFFFFFFFF AND DUP7 PUSH1 0x40 MLOAD DUP4 PUSH4 0xFFFFFFFF AND PUSH1 0xE0 SHL DUP2 MSTORE PUSH1 0x4 ADD PUSH2 0x1868 SWAP3 SWAP2 SWAP1 PUSH2 0x3540 JUMP JUMPDEST PUSH1 0x20 PUSH1 0x40 MLOAD DUP1 DUP4 SUB DUP2 PUSH1 0x0 DUP8 DUP1 EXTCODESIZE ISZERO DUP1 ISZERO PUSH2 0x1882 JUMPI PUSH1 0x0 DUP1 REVERT JUMPDEST POP GAS CALL ISZERO DUP1 ISZERO PUSH2 0x1896 JUMPI RETURNDATASIZE PUSH1 0x0 DUP1 RETURNDATACOPY RETURNDATASIZE PUSH1 0x0 REVERT JUMPDEST POP POP POP POP PUSH1 0x40 MLOAD RETURNDATASIZE PUSH1 0x1F NOT PUSH1 0x1F DUP3 ADD AND DUP3 ADD DUP1 PUSH1 0x40 MSTORE POP DUP2 ADD SWAP1 PUSH2 0x18BA SWAP2 SWAP1 PUSH2 0x2FF6 JUMP JUMPDEST PUSH2 0x18F9 JUMPI PUSH1 0x40 MLOAD PUSH32 0x8C379A000000000000000000000000000000000000000000000000000000000 DUP2 MSTORE PUSH1 0x4 ADD PUSH2 0x18F0 SWAP1 PUSH2 0x37F0 JUMP JUMPDEST PUSH1 0x40 MLOAD DUP1 SWAP2 SUB SWAP1 REVERT JUMPDEST DUP3 DUP11 PUSH20 0xFFFFFFFFFFFFFFFFFFFFFFFFFFFFFFFFFFFFFFFF AND PUSH4 0x70A08231 ADDRESS PUSH1 0x40 MLOAD DUP3 PUSH4 0xFFFFFFFF AND PUSH1 0xE0 SHL DUP2 MSTORE PUSH1 0x4 ADD PUSH2 0x1933 SWAP2 SWAP1 PUSH2 0x3472 JUMP JUMPDEST PUSH1 0x20 PUSH1 0x40 MLOAD DUP1 DUP4 SUB DUP2 DUP7 DUP1 EXTCODESIZE ISZERO DUP1 ISZERO PUSH2 0x194B JUMPI PUSH1 0x0 DUP1 REVERT JUMPDEST POP GAS STATICCALL ISZERO DUP1 ISZERO PUSH2 0x195F JUMPI RETURNDATASIZE PUSH1 0x0 DUP1 RETURNDATACOPY RETURNDATASIZE PUSH1 0x0 REVERT JUMPDEST POP POP POP POP PUSH1 0x40 MLOAD RETURNDATASIZE PUSH1 0x1F NOT PUSH1 0x1F DUP3 ADD AND DUP3 ADD DUP1 PUSH1 0x40 MSTORE POP DUP2 ADD SWAP1 PUSH2 0x1983 SWAP2 SWAP1 PUSH2 0x30C0 JUMP JUMPDEST LT ISZERO PUSH2 0x19C4 JUMPI PUSH1 0x40 MLOAD PUSH32 0x8C379A000000000000000000000000000000000000000000000000000000000 DUP2 MSTORE PUSH1 0x4 ADD PUSH2 0x19BB SWAP1 PUSH2 0x38B0 JUMP JUMPDEST PUSH1 0x40 MLOAD DUP1 SWAP2 SUB SWAP1 REVERT JUMPDEST PUSH1 0x0 PUSH1 0x4 SLOAD PUSH7 0x2386F26FC10000 DUP11 DUP6 PUSH2 0x19DD SWAP2 SWAP1 PUSH2 0x3AD5 JUMP JUMPDEST PUSH2 0x19E7 SWAP2 SWAP1 PUSH2 0x3AD5 JUMP JUMPDEST PUSH2 0x19F1 SWAP2 SWAP1 PUSH2 0x3AA4 JUMP JUMPDEST SWAP1 POP PUSH1 0x0 PUSH1 0x11 PUSH1 0x0 SWAP1 SLOAD SWAP1 PUSH2 0x100 EXP SWAP1 DIV PUSH20 0xFFFFFFFFFFFFFFFFFFFFFFFFFFFFFFFFFFFFFFFF AND PUSH20 0xFFFFFFFFFFFFFFFFFFFFFFFFFFFFFFFFFFFFFFFF AND PUSH4 0x5DB34277 DUP14 DUP8 DUP6 PUSH1 0x40 MLOAD DUP5 PUSH4 0xFFFFFFFF AND PUSH1 0xE0 SHL DUP2 MSTORE PUSH1 0x4 ADD PUSH2 0x1A54 SWAP4 SWAP3 SWAP2 SWAP1 PUSH2 0x3569 JUMP JUMPDEST PUSH1 0x20 PUSH1 0x40 MLOAD DUP1 DUP4 SUB DUP2 PUSH1 0x0 DUP8 DUP1 EXTCODESIZE ISZERO DUP1 ISZERO PUSH2 0x1A6E JUMPI PUSH1 0x0 DUP1 REVERT JUMPDEST POP GAS CALL ISZERO DUP1 ISZERO PUSH2 0x1A82 JUMPI RETURNDATASIZE PUSH1 0x0 DUP1 RETURNDATACOPY RETURNDATASIZE PUSH1 0x0 REVERT JUMPDEST POP POP POP POP PUSH1 0x40 MLOAD RETURNDATASIZE PUSH1 0x1F NOT PUSH1 0x1F DUP3 ADD AND DUP3 ADD DUP1 PUSH1 0x40 MSTORE POP DUP2 ADD SWAP1 PUSH2 0x1AA6 SWAP2 SWAP1 PUSH2 0x30C0 JUMP JUMPDEST SWAP1 POP PUSH1 0xF PUSH1 0x0 SWAP1 SLOAD SWAP1 PUSH2 0x100 EXP SWAP1 DIV PUSH20 0xFFFFFFFFFFFFFFFFFFFFFFFFFFFFFFFFFFFFFFFF AND PUSH20 0xFFFFFFFFFFFFFFFFFFFFFFFFFFFFFFFFFFFFFFFF AND PUSH4 0x40C10F19 CALLER DUP6 PUSH1 0x40 MLOAD DUP4 PUSH4 0xFFFFFFFF AND PUSH1 0xE0 SHL DUP2 MSTORE PUSH1 0x4 ADD PUSH2 0x1B05 SWAP3 SWAP2 SWAP1 PUSH2 0x3540 JUMP JUMPDEST PUSH1 0x0 PUSH1 0x40 MLOAD DUP1 DUP4 SUB DUP2 PUSH1 0x0 DUP8 DUP1 EXTCODESIZE ISZERO DUP1 ISZERO PUSH2 0x1B1F JUMPI PUSH1 0x0 DUP1 REVERT JUMPDEST POP GAS CALL ISZERO DUP1 ISZERO PUSH2 0x1B33 JUMPI RETURNDATASIZE PUSH1 0x0 DUP1 RETURNDATACOPY RETURNDATASIZE PUSH1 0x0 REVERT JUMPDEST POP POP POP POP DUP1 PUSH1 0xA SLOAD PUSH2 0x1B45 SWAP2 SWAP1 PUSH2 0x3A4E JUMP JUMPDEST PUSH1 0xA DUP2 SWAP1 SSTORE POP DUP3 PUSH1 0xB SLOAD PUSH2 0x1B59 SWAP2 SWAP1 PUSH2 0x3A4E JUMP JUMPDEST PUSH1 0xB DUP2 SWAP1 SSTORE POP PUSH31 0xF93DBDB72854B6B6FB35433086556F2635FC83C37080C667496FECFA650FB4 CALLER DUP14 DUP14 DUP5 DUP8 PUSH1 0x40 MLOAD PUSH2 0x1B95 SWAP6 SWAP5 SWAP4 SWAP3 SWAP2 SWAP1 PUSH2 0x34ED JUMP JUMPDEST PUSH1 0x40 MLOAD DUP1 SWAP2 SUB SWAP1 LOG1 DUP3 SWAP9 POP POP POP POP POP POP POP POP POP PUSH1 0x1 PUSH1 0x0 DUP2 SWAP1 SSTORE POP SWAP4 SWAP3 POP POP POP JUMP JUMPDEST PUSH1 0x0 ADDRESS PUSH20 0xFFFFFFFFFFFFFFFFFFFFFFFFFFFFFFFFFFFFFFFF AND PUSH4 0x985E78D8 DUP5 PUSH1 0x40 MLOAD DUP3 PUSH4 0xFFFFFFFF AND PUSH1 0xE0 SHL DUP2 MSTORE PUSH1 0x4 ADD PUSH2 0x1BF2 SWAP2 SWAP1 PUSH2 0x3472 JUMP JUMPDEST PUSH1 0x20 PUSH1 0x40 MLOAD DUP1 DUP4 SUB DUP2 DUP7 DUP1 EXTCODESIZE ISZERO DUP1 ISZERO PUSH2 0x1C0A JUMPI PUSH1 0x0 DUP1 REVERT JUMPDEST POP GAS STATICCALL ISZERO DUP1 ISZERO PUSH2 0x1C1E JUMPI RETURNDATASIZE PUSH1 0x0 DUP1 RETURNDATACOPY RETURNDATASIZE PUSH1 0x0 REVERT JUMPDEST POP POP POP POP PUSH1 0x40 MLOAD RETURNDATASIZE PUSH1 0x1F NOT PUSH1 0x1F DUP3 ADD AND DUP3 ADD DUP1 PUSH1 0x40 MSTORE POP DUP2 ADD SWAP1 PUSH2 0x1C42 SWAP2 SWAP1 PUSH2 0x2FF6 JUMP JUMPDEST PUSH2 0x1C81 JUMPI PUSH1 0x40 MLOAD PUSH32 0x8C379A000000000000000000000000000000000000000000000000000000000 DUP2 MSTORE PUSH1 0x4 ADD PUSH2 0x1C78 SWAP1 PUSH2 0x36D0 JUMP JUMPDEST PUSH1 0x40 MLOAD DUP1 SWAP2 SUB SWAP1 REVERT JUMPDEST PUSH1 0x0 PUSH1 0x4 SLOAD PUSH1 0x9 SLOAD DUP5 PUSH2 0x1C94 SWAP2 SWAP1 PUSH2 0x3AD5 JUMP JUMPDEST PUSH2 0x1C9E SWAP2 SWAP1 PUSH2 0x3AA4 JUMP JUMPDEST SWAP1 POP PUSH1 0x0 PUSH1 0x4 SLOAD PUSH1 0x8 SLOAD DUP6 PUSH2 0x1CB3 SWAP2 SWAP1 PUSH2 0x3AD5 JUMP JUMPDEST PUSH2 0x1CBD SWAP2 SWAP1 PUSH2 0x3AA4 JUMP JUMPDEST SWAP1 POP PUSH1 0x0 DUP2 DUP4 DUP7 PUSH2 0x1CCE SWAP2 SWAP1 PUSH2 0x3B2F JUMP JUMPDEST PUSH2 0x1CD8 SWAP2 SWAP1 PUSH2 0x3B2F JUMP JUMPDEST SWAP1 POP PUSH2 0x1CE4 DUP7 DUP3 PUSH2 0x280D JUMP JUMPDEST SWAP4 POP POP POP POP SWAP3 SWAP2 POP POP JUMP JUMPDEST PUSH1 0x1 DUP1 SLOAD SWAP1 PUSH2 0x100 EXP SWAP1 DIV PUSH1 0xFF AND DUP1 PUSH2 0x1D15 JUMPI POP PUSH1 0x1 PUSH1 0x0 SWAP1 SLOAD SWAP1 PUSH2 0x100 EXP SWAP1 DIV PUSH1 0xFF AND ISZERO JUMPDEST PUSH2 0x1D54 JUMPI PUSH1 0x40 MLOAD PUSH32 0x8C379A000000000000000000000000000000000000000000000000000000000 DUP2 MSTORE PUSH1 0x4 ADD PUSH2 0x1D4B SWAP1 PUSH2 0x3750 JUMP JUMPDEST PUSH1 0x40 MLOAD DUP1 SWAP2 SUB SWAP1 REVERT JUMPDEST PUSH1 0x0 PUSH1 0x1 DUP1 SLOAD SWAP1 PUSH2 0x100 EXP SWAP1 DIV PUSH1 0xFF AND ISZERO SWAP1 POP DUP1 ISZERO PUSH2 0x1DA2 JUMPI PUSH1 0x1 DUP1 PUSH1 0x1 PUSH2 0x100 EXP DUP2 SLOAD DUP2 PUSH1 0xFF MUL NOT AND SWAP1 DUP4 ISZERO ISZERO MUL OR SWAP1 SSTORE POP PUSH1 0x1 DUP1 PUSH1 0x0 PUSH2 0x100 EXP DUP2 SLOAD DUP2 PUSH1 0xFF MUL NOT AND SWAP1 DUP4 ISZERO ISZERO MUL OR SWAP1 SSTORE POP JUMPDEST PUSH1 0x1 PUSH32 0x7A90F6C545A08EF8E125AA088F88BEE6937D2426935A3BD35718900E7E0B18B8 PUSH1 0x0 SHR PUSH2 0x1DD2 SWAP2 SWAP1 PUSH2 0x3B2F JUMP JUMPDEST PUSH1 0x0 SHL PUSH32 0x7A90F6C545A08EF8E125AA088F88BEE6937D2426935A3BD35718900E7E0B18B7 PUSH1 0x0 SHL EQ PUSH2 0x1E2D JUMPI PUSH32 0x4E487B7100000000000000000000000000000000000000000000000000000000 PUSH1 0x0 MSTORE PUSH1 0x1 PUSH1 0x4 MSTORE PUSH1 0x24 PUSH1 0x0 REVERT JUMPDEST DUP2 PUSH2 0x1E5A PUSH32 0x7A90F6C545A08EF8E125AA088F88BEE6937D2426935A3BD35718900E7E0B18B7 PUSH1 0x0 SHL PUSH2 0x282E JUMP JUMPDEST PUSH1 0x0 ADD PUSH1 0x0 PUSH2 0x100 EXP DUP2 SLOAD DUP2 PUSH20 0xFFFFFFFFFFFFFFFFFFFFFFFFFFFFFFFFFFFFFFFF MUL NOT AND SWAP1 DUP4 PUSH20 0xFFFFFFFFFFFFFFFFFFFFFFFFFFFFFFFFFFFFFFFF AND MUL OR SWAP1 SSTORE POP DUP1 ISZERO PUSH2 0x1EBC JUMPI PUSH1 0x0 PUSH1 0x1 DUP1 PUSH2 0x100 EXP DUP2 SLOAD DUP2 PUSH1 0xFF MUL NOT AND SWAP1 DUP4 ISZERO ISZERO MUL OR SWAP1 SSTORE POP JUMPDEST POP POP JUMP JUMPDEST PUSH1 0x0 PUSH1 0x2 PUSH1 0x0 SLOAD EQ ISZERO PUSH2 0x1F08 JUMPI PUSH1 0x40 MLOAD PUSH32 0x8C379A000000000000000000000000000000000000000000000000000000000 DUP2 MSTORE PUSH1 0x4 ADD PUSH2 0x1EFF SWAP1 PUSH2 0x3890 JUMP JUMPDEST PUSH1 0x40 MLOAD DUP1 SWAP2 SUB SWAP1 REVERT JUMPDEST PUSH1 0x2 PUSH1 0x0 DUP2 SWAP1 SSTORE POP DUP2 PUSH2 0x1F50 JUMPI PUSH1 0x40 MLOAD PUSH32 0x8C379A000000000000000000000000000000000000000000000000000000000 DUP2 MSTORE PUSH1 0x4 ADD PUSH2 0x1F47 SWAP1 PUSH2 0x36F0 JUMP JUMPDEST PUSH1 0x40 MLOAD DUP1 SWAP2 SUB SWAP1 REVERT JUMPDEST PUSH1 0x0 PUSH1 0xF PUSH1 0x0 SWAP1 SLOAD SWAP1 PUSH2 0x100 EXP SWAP1 DIV PUSH20 0xFFFFFFFFFFFFFFFFFFFFFFFFFFFFFFFFFFFFFFFF AND PUSH20 0xFFFFFFFFFFFFFFFFFFFFFFFFFFFFFFFFFFFFFFFF AND PUSH4 0x70A08231 CALLER PUSH1 0x40 MLOAD DUP3 PUSH4 0xFFFFFFFF AND PUSH1 0xE0 SHL DUP2 MSTORE PUSH1 0x4 ADD PUSH2 0x1FAD SWAP2 SWAP1 PUSH2 0x3472 JUMP JUMPDEST PUSH1 0x20 PUSH1 0x40 MLOAD DUP1 DUP4 SUB DUP2 DUP7 DUP1 EXTCODESIZE ISZERO DUP1 ISZERO PUSH2 0x1FC5 JUMPI PUSH1 0x0 DUP1 REVERT JUMPDEST POP GAS STATICCALL ISZERO DUP1 ISZERO PUSH2 0x1FD9 JUMPI RETURNDATASIZE PUSH1 0x0 DUP1 RETURNDATACOPY RETURNDATASIZE PUSH1 0x0 REVERT JUMPDEST POP POP POP POP PUSH1 0x40 MLOAD RETURNDATASIZE PUSH1 0x1F NOT PUSH1 0x1F DUP3 ADD AND DUP3 ADD DUP1 PUSH1 0x40 MSTORE POP DUP2 ADD SWAP1 PUSH2 0x1FFD SWAP2 SWAP1 PUSH2 0x30C0 JUMP JUMPDEST SWAP1 POP PUSH2 0x2008 DUP2 PUSH2 0x2838 JUMP JUMPDEST SWAP2 POP POP PUSH1 0x1 PUSH1 0x0 DUP2 SWAP1 SSTORE POP SWAP2 SWAP1 POP JUMP JUMPDEST PUSH1 0x0 PUSH2 0x2022 PUSH2 0x22A9 JUMP JUMPDEST PUSH20 0xFFFFFFFFFFFFFFFFFFFFFFFFFFFFFFFFFFFFFFFF AND PUSH4 0x91D14854 PUSH32 0x10518CD1EFD37F850EE27646F7020563391BF44E0E90D6ECAE7E0334935B5A4C CALLER PUSH1 0x40 MLOAD DUP4 PUSH4 0xFFFFFFFF AND PUSH1 0xE0 SHL DUP2 MSTORE PUSH1 0x4 ADD PUSH2 0x207C SWAP3 SWAP2 SWAP1 PUSH2 0x35BB JUMP JUMPDEST PUSH1 0x20 PUSH1 0x40 MLOAD DUP1 DUP4 SUB DUP2 DUP7 DUP1 EXTCODESIZE ISZERO DUP1 ISZERO PUSH2 0x2094 JUMPI PUSH1 0x0 DUP1 REVERT JUMPDEST POP GAS STATICCALL ISZERO DUP1 ISZERO PUSH2 0x20A8 JUMPI RETURNDATASIZE PUSH1 0x0 DUP1 RETURNDATACOPY RETURNDATASIZE PUSH1 0x0 REVERT JUMPDEST POP POP POP POP PUSH1 0x40 MLOAD RETURNDATASIZE PUSH1 0x1F NOT PUSH1 0x1F DUP3 ADD AND DUP3 ADD DUP1 PUSH1 0x40 MSTORE POP DUP2 ADD SWAP1 PUSH2 0x20CC SWAP2 SWAP1 PUSH2 0x2FF6 JUMP JUMPDEST PUSH2 0x20D5 JUMPI PUSH1 0x0 DUP1 REVERT JUMPDEST ADDRESS PUSH20 0xFFFFFFFFFFFFFFFFFFFFFFFFFFFFFFFFFFFFFFFF AND PUSH4 0x985E78D8 DUP4 PUSH1 0x40 MLOAD DUP3 PUSH4 0xFFFFFFFF AND PUSH1 0xE0 SHL DUP2 MSTORE PUSH1 0x4 ADD PUSH2 0x210E SWAP2 SWAP1 PUSH2 0x3472 JUMP JUMPDEST PUSH1 0x20 PUSH1 0x40 MLOAD DUP1 DUP4 SUB DUP2 DUP7 DUP1 EXTCODESIZE ISZERO DUP1 ISZERO PUSH2 0x2126 JUMPI PUSH1 0x0 DUP1 REVERT JUMPDEST POP GAS STATICCALL ISZERO DUP1 ISZERO PUSH2 0x213A JUMPI RETURNDATASIZE PUSH1 0x0 DUP1 RETURNDATACOPY RETURNDATASIZE PUSH1 0x0 REVERT JUMPDEST POP POP POP POP PUSH1 0x40 MLOAD RETURNDATASIZE PUSH1 0x1F NOT PUSH1 0x1F DUP3 ADD AND DUP3 ADD DUP1 PUSH1 0x40 MSTORE POP DUP2 ADD SWAP1 PUSH2 0x215E SWAP2 SWAP1 PUSH2 0x2FF6 JUMP JUMPDEST PUSH2 0x219D JUMPI PUSH1 0x40 MLOAD PUSH32 0x8C379A000000000000000000000000000000000000000000000000000000000 DUP2 MSTORE PUSH1 0x4 ADD PUSH2 0x2194 SWAP1 PUSH2 0x3730 JUMP JUMPDEST PUSH1 0x40 MLOAD DUP1 SWAP2 SUB SWAP1 REVERT JUMPDEST PUSH2 0x21B1 DUP3 PUSH1 0xD PUSH2 0x2B21 SWAP1 SWAP2 SWAP1 PUSH4 0xFFFFFFFF AND JUMP JUMPDEST SWAP1 POP SWAP2 SWAP1 POP JUMP JUMPDEST PUSH1 0x11 PUSH1 0x0 SWAP1 SLOAD SWAP1 PUSH2 0x100 EXP SWAP1 DIV PUSH20 0xFFFFFFFFFFFFFFFFFFFFFFFFFFFFFFFFFFFFFFFF AND DUP2 JUMP JUMPDEST PUSH1 0xC SLOAD DUP2 JUMP JUMPDEST PUSH1 0x0 PUSH2 0x21FA DUP3 PUSH1 0xD PUSH2 0x2B51 SWAP1 SWAP2 SWAP1 PUSH4 0xFFFFFFFF AND JUMP JUMPDEST SWAP1 POP SWAP2 SWAP1 POP JUMP JUMPDEST PUSH1 0xA SLOAD DUP2 JUMP JUMPDEST PUSH1 0x0 PUSH1 0x2 PUSH1 0x0 SLOAD EQ ISZERO PUSH2 0x224F JUMPI PUSH1 0x40 MLOAD PUSH32 0x8C379A000000000000000000000000000000000000000000000000000000000 DUP2 MSTORE PUSH1 0x4 ADD PUSH2 0x2246 SWAP1 PUSH2 0x3890 JUMP JUMPDEST PUSH1 0x40 MLOAD DUP1 SWAP2 SUB SWAP1 REVERT JUMPDEST PUSH1 0x2 PUSH1 0x0 DUP2 SWAP1 SSTORE POP PUSH2 0x225F PUSH2 0x8A3 JUMP JUMPDEST GASPRICE GT ISZERO PUSH2 0x226B JUMPI PUSH1 0x0 DUP1 REVERT JUMPDEST PUSH2 0x2274 DUP3 PUSH2 0x2838 JUMP JUMPDEST SWAP1 POP PUSH1 0x1 PUSH1 0x0 DUP2 SWAP1 SSTORE POP SWAP2 SWAP1 POP JUMP JUMPDEST PUSH1 0x12 PUSH1 0x0 SWAP1 SLOAD SWAP1 PUSH2 0x100 EXP SWAP1 DIV PUSH20 0xFFFFFFFFFFFFFFFFFFFFFFFFFFFFFFFFFFFFFFFF AND DUP2 JUMP JUMPDEST PUSH1 0x0 PUSH2 0x22D7 PUSH32 0x7A90F6C545A08EF8E125AA088F88BEE6937D2426935A3BD35718900E7E0B18B7 PUSH1 0x0 SHL PUSH2 0x282E JUMP JUMPDEST PUSH1 0x0 ADD PUSH1 0x0 SWAP1 SLOAD SWAP1 PUSH2 0x100 EXP SWAP1 DIV PUSH20 0xFFFFFFFFFFFFFFFFFFFFFFFFFFFFFFFFFFFFFFFF AND SWAP1 POP SWAP1 JUMP JUMPDEST PUSH1 0x0 PUSH2 0x2328 DUP4 PUSH1 0x0 ADD DUP4 PUSH20 0xFFFFFFFFFFFFFFFFFFFFFFFFFFFFFFFFFFFFFFFF AND PUSH1 0x0 SHL PUSH2 0x2B81 JUMP JUMPDEST SWAP1 POP SWAP3 SWAP2 POP POP JUMP JUMPDEST PUSH1 0x0 DUP1 PUSH1 0x12 PUSH1 0x0 SWAP1 SLOAD SWAP1 PUSH2 0x100 EXP SWAP1 DIV PUSH20 0xFFFFFFFFFFFFFFFFFFFFFFFFFFFFFFFFFFFFFFFF AND PUSH20 0xFFFFFFFFFFFFFFFFFFFFFFFFFFFFFFFFFFFFFFFF AND PUSH4 0xF8B2CB4F DUP6 PUSH1 0x40 MLOAD DUP3 PUSH4 0xFFFFFFFF AND PUSH1 0xE0 SHL DUP2 MSTORE PUSH1 0x4 ADD PUSH2 0x238E SWAP2 SWAP1 PUSH2 0x3472 JUMP JUMPDEST PUSH1 0x20 PUSH1 0x40 MLOAD DUP1 DUP4 SUB DUP2 DUP7 DUP1 EXTCODESIZE ISZERO DUP1 ISZERO PUSH2 0x23A6 JUMPI PUSH1 0x0 DUP1 REVERT JUMPDEST POP GAS STATICCALL ISZERO DUP1 ISZERO PUSH2 0x23BA JUMPI RETURNDATASIZE PUSH1 0x0 DUP1 RETURNDATACOPY RETURNDATASIZE PUSH1 0x0 REVERT JUMPDEST POP POP POP POP PUSH1 0x40 MLOAD RETURNDATASIZE PUSH1 0x1F NOT PUSH1 0x1F DUP3 ADD AND DUP3 ADD DUP1 PUSH1 0x40 MSTORE POP DUP2 ADD SWAP1 PUSH2 0x23DE SWAP2 SWAP1 PUSH2 0x30C0 JUMP JUMPDEST SWAP1 POP PUSH1 0x0 PUSH1 0x12 PUSH1 0x0 SWAP1 SLOAD SWAP1 PUSH2 0x100 EXP SWAP1 DIV PUSH20 0xFFFFFFFFFFFFFFFFFFFFFFFFFFFFFFFFFFFFFFFF AND PUSH20 0xFFFFFFFFFFFFFFFFFFFFFFFFFFFFFFFFFFFFFFFF AND PUSH4 0x948D8CE6 DUP7 PUSH1 0x40 MLOAD DUP3 PUSH4 0xFFFFFFFF AND PUSH1 0xE0 SHL DUP2 MSTORE PUSH1 0x4 ADD PUSH2 0x243D SWAP2 SWAP1 PUSH2 0x3472 JUMP JUMPDEST PUSH1 0x20 PUSH1 0x40 MLOAD DUP1 DUP4 SUB DUP2 DUP7 DUP1 EXTCODESIZE ISZERO DUP1 ISZERO PUSH2 0x2455 JUMPI PUSH1 0x0 DUP1 REVERT JUMPDEST POP GAS STATICCALL ISZERO DUP1 ISZERO PUSH2 0x2469 JUMPI RETURNDATASIZE PUSH1 0x0 DUP1 RETURNDATACOPY RETURNDATASIZE PUSH1 0x0 REVERT JUMPDEST POP POP POP POP PUSH1 0x40 MLOAD RETURNDATASIZE PUSH1 0x1F NOT PUSH1 0x1F DUP3 ADD AND DUP3 ADD DUP1 PUSH1 0x40 MSTORE POP DUP2 ADD SWAP1 PUSH2 0x248D SWAP2 SWAP1 PUSH2 0x30C0 JUMP JUMPDEST SWAP1 POP PUSH1 0x0 PUSH1 0x12 PUSH1 0x0 SWAP1 SLOAD SWAP1 PUSH2 0x100 EXP SWAP1 DIV PUSH20 0xFFFFFFFFFFFFFFFFFFFFFFFFFFFFFFFFFFFFFFFF AND PUSH20 0xFFFFFFFFFFFFFFFFFFFFFFFFFFFFFFFFFFFFFFFF AND PUSH4 0x936C3477 PUSH1 0x40 MLOAD DUP2 PUSH4 0xFFFFFFFF AND PUSH1 0xE0 SHL DUP2 MSTORE PUSH1 0x4 ADD PUSH1 0x20 PUSH1 0x40 MLOAD DUP1 DUP4 SUB DUP2 DUP7 DUP1 EXTCODESIZE ISZERO DUP1 ISZERO PUSH2 0x24F9 JUMPI PUSH1 0x0 DUP1 REVERT JUMPDEST POP GAS STATICCALL ISZERO DUP1 ISZERO PUSH2 0x250D JUMPI RETURNDATASIZE PUSH1 0x0 DUP1 RETURNDATACOPY RETURNDATASIZE PUSH1 0x0 REVERT JUMPDEST POP POP POP POP PUSH1 0x40 MLOAD RETURNDATASIZE PUSH1 0x1F NOT PUSH1 0x1F DUP3 ADD AND DUP3 ADD DUP1 PUSH1 0x40 MSTORE POP DUP2 ADD SWAP1 PUSH2 0x2531 SWAP2 SWAP1 PUSH2 0x30C0 JUMP JUMPDEST SWAP1 POP PUSH1 0x0 PUSH1 0x12 PUSH1 0x0 SWAP1 SLOAD SWAP1 PUSH2 0x100 EXP SWAP1 DIV PUSH20 0xFFFFFFFFFFFFFFFFFFFFFFFFFFFFFFFFFFFFFFFF AND PUSH20 0xFFFFFFFFFFFFFFFFFFFFFFFFFFFFFFFFFFFFFFFF AND PUSH4 0xD4CADF68 PUSH1 0x40 MLOAD DUP2 PUSH4 0xFFFFFFFF AND PUSH1 0xE0 SHL DUP2 MSTORE PUSH1 0x4 ADD PUSH1 0x20 PUSH1 0x40 MLOAD DUP1 DUP4 SUB DUP2 DUP7 DUP1 EXTCODESIZE ISZERO DUP1 ISZERO PUSH2 0x259D JUMPI PUSH1 0x0 DUP1 REVERT JUMPDEST POP GAS STATICCALL ISZERO DUP1 ISZERO PUSH2 0x25B1 JUMPI RETURNDATASIZE PUSH1 0x0 DUP1 RETURNDATACOPY RETURNDATASIZE PUSH1 0x0 REVERT JUMPDEST POP POP POP POP PUSH1 0x40 MLOAD RETURNDATASIZE PUSH1 0x1F NOT PUSH1 0x1F DUP3 ADD AND DUP3 ADD DUP1 PUSH1 0x40 MSTORE POP DUP2 ADD SWAP1 PUSH2 0x25D5 SWAP2 SWAP1 PUSH2 0x30C0 JUMP JUMPDEST SWAP1 POP PUSH1 0x0 PUSH1 0x11 PUSH1 0x0 SWAP1 SLOAD SWAP1 PUSH2 0x100 EXP SWAP1 DIV PUSH20 0xFFFFFFFFFFFFFFFFFFFFFFFFFFFFFFFFFFFFFFFF AND PUSH20 0xFFFFFFFFFFFFFFFFFFFFFFFFFFFFFFFFFFFFFFFF AND PUSH4 0x18160DDD PUSH1 0x40 MLOAD DUP2 PUSH4 0xFFFFFFFF AND PUSH1 0xE0 SHL DUP2 MSTORE PUSH1 0x4 ADD PUSH1 0x20 PUSH1 0x40 MLOAD DUP1 DUP4 SUB DUP2 DUP7 DUP1 EXTCODESIZE ISZERO DUP1 ISZERO PUSH2 0x2641 JUMPI PUSH1 0x0 DUP1 REVERT JUMPDEST POP GAS STATICCALL ISZERO DUP1 ISZERO PUSH2 0x2655 JUMPI RETURNDATASIZE PUSH1 0x0 DUP1 RETURNDATACOPY RETURNDATASIZE PUSH1 0x0 REVERT JUMPDEST POP POP POP POP PUSH1 0x40 MLOAD RETURNDATASIZE PUSH1 0x1F NOT PUSH1 0x1F DUP3 ADD AND DUP3 ADD DUP1 PUSH1 0x40 MSTORE POP DUP2 ADD SWAP1 PUSH2 0x2679 SWAP2 SWAP1 PUSH2 0x30C0 JUMP JUMPDEST SWAP1 POP PUSH1 0x12 PUSH1 0x0 SWAP1 SLOAD SWAP1 PUSH2 0x100 EXP SWAP1 DIV PUSH20 0xFFFFFFFFFFFFFFFFFFFFFFFFFFFFFFFFFFFFFFFF AND PUSH20 0xFFFFFFFFFFFFFFFFFFFFFFFFFFFFFFFFFFFFFFFF AND PUSH4 0x8656B653 DUP7 DUP7 DUP5 DUP8 DUP13 DUP9 PUSH1 0x40 MLOAD DUP8 PUSH4 0xFFFFFFFF AND PUSH1 0xE0 SHL DUP2 MSTORE PUSH1 0x4 ADD PUSH2 0x26E0 SWAP7 SWAP6 SWAP5 SWAP4 SWAP3 SWAP2 SWAP1 PUSH2 0x392B JUMP JUMPDEST PUSH1 0x20 PUSH1 0x40 MLOAD DUP1 DUP4 SUB DUP2 DUP7 DUP1 EXTCODESIZE ISZERO DUP1 ISZERO PUSH2 0x26F8 JUMPI PUSH1 0x0 DUP1 REVERT JUMPDEST POP GAS STATICCALL ISZERO DUP1 ISZERO PUSH2 0x270C JUMPI RETURNDATASIZE PUSH1 0x0 DUP1 RETURNDATACOPY RETURNDATASIZE PUSH1 0x0 REVERT JUMPDEST POP POP POP POP PUSH1 0x40 MLOAD RETURNDATASIZE PUSH1 0x1F NOT PUSH1 0x1F DUP3 ADD AND DUP3 ADD DUP1 PUSH1 0x40 MSTORE POP DUP2 ADD SWAP1 PUSH2 0x2730 SWAP2 SWAP1 PUSH2 0x30C0 JUMP JUMPDEST SWAP6 POP POP POP POP POP POP SWAP3 SWAP2 POP POP JUMP JUMPDEST PUSH1 0x0 PUSH1 0x10 PUSH1 0x0 SWAP1 SLOAD SWAP1 PUSH2 0x100 EXP SWAP1 DIV PUSH20 0xFFFFFFFFFFFFFFFFFFFFFFFFFFFFFFFFFFFFFFFF AND PUSH20 0xFFFFFFFFFFFFFFFFFFFFFFFFFFFFFFFFFFFFFFFF AND PUSH4 0xF3250FE2 PUSH1 0xB SLOAD PUSH1 0xA SLOAD PUSH1 0x7 PUSH1 0x0 SWAP1 SLOAD SWAP1 PUSH2 0x100 EXP SWAP1 DIV PUSH4 0xFFFFFFFF AND DUP7 PUSH1 0x40 MLOAD DUP6 PUSH4 0xFFFFFFFF AND PUSH1 0xE0 SHL DUP2 MSTORE PUSH1 0x4 ADD PUSH2 0x27B6 SWAP5 SWAP4 SWAP3 SWAP2 SWAP1 PUSH2 0x398C JUMP JUMPDEST PUSH1 0x20 PUSH1 0x40 MLOAD DUP1 DUP4 SUB DUP2 DUP7 DUP1 EXTCODESIZE ISZERO DUP1 ISZERO PUSH2 0x27CE JUMPI PUSH1 0x0 DUP1 REVERT JUMPDEST POP GAS STATICCALL ISZERO DUP1 ISZERO PUSH2 0x27E2 JUMPI RETURNDATASIZE PUSH1 0x0 DUP1 RETURNDATACOPY RETURNDATASIZE PUSH1 0x0 REVERT JUMPDEST POP POP POP POP PUSH1 0x40 MLOAD RETURNDATASIZE PUSH1 0x1F NOT PUSH1 0x1F DUP3 ADD AND DUP3 ADD DUP1 PUSH1 0x40 MSTORE POP DUP2 ADD SWAP1 PUSH2 0x2806 SWAP2 SWAP1 PUSH2 0x30C0 JUMP JUMPDEST SWAP1 POP SWAP2 SWAP1 POP JUMP JUMPDEST PUSH1 0x0 DUP1 PUSH2 0x281A DUP5 DUP5 PUSH2 0x2330 JUMP JUMPDEST SWAP1 POP PUSH2 0x2825 DUP2 PUSH2 0x273D JUMP JUMPDEST SWAP2 POP POP SWAP3 SWAP2 POP POP JUMP JUMPDEST PUSH1 0x0 DUP2 SWAP1 POP SWAP2 SWAP1 POP JUMP JUMPDEST PUSH1 0x0 PUSH1 0xF PUSH1 0x0 SWAP1 SLOAD SWAP1 PUSH2 0x100 EXP SWAP1 DIV PUSH20 0xFFFFFFFFFFFFFFFFFFFFFFFFFFFFFFFFFFFFFFFF AND PUSH20 0xFFFFFFFFFFFFFFFFFFFFFFFFFFFFFFFFFFFFFFFF AND PUSH4 0x70A08231 CALLER PUSH1 0x40 MLOAD DUP3 PUSH4 0xFFFFFFFF AND PUSH1 0xE0 SHL DUP2 MSTORE PUSH1 0x4 ADD PUSH2 0x2895 SWAP2 SWAP1 PUSH2 0x3472 JUMP JUMPDEST PUSH1 0x20 PUSH1 0x40 MLOAD DUP1 DUP4 SUB DUP2 DUP7 DUP1 EXTCODESIZE ISZERO DUP1 ISZERO PUSH2 0x28AD JUMPI PUSH1 0x0 DUP1 REVERT JUMPDEST POP GAS STATICCALL ISZERO DUP1 ISZERO PUSH2 0x28C1 JUMPI RETURNDATASIZE PUSH1 0x0 DUP1 RETURNDATACOPY RETURNDATASIZE PUSH1 0x0 REVERT JUMPDEST POP POP POP POP PUSH1 0x40 MLOAD RETURNDATASIZE PUSH1 0x1F NOT PUSH1 0x1F DUP3 ADD AND DUP3 ADD DUP1 PUSH1 0x40 MSTORE POP DUP2 ADD SWAP1 PUSH2 0x28E5 SWAP2 SWAP1 PUSH2 0x30C0 JUMP JUMPDEST DUP3 GT ISZERO PUSH2 0x2927 JUMPI PUSH1 0x40 MLOAD PUSH32 0x8C379A000000000000000000000000000000000000000000000000000000000 DUP2 MSTORE PUSH1 0x4 ADD PUSH2 0x291E SWAP1 PUSH2 0x3770 JUMP JUMPDEST PUSH1 0x40 MLOAD DUP1 SWAP2 SUB SWAP1 REVERT JUMPDEST PUSH2 0x2930 DUP3 PUSH2 0xA09 JUMP JUMPDEST SWAP1 POP PUSH1 0xF PUSH1 0x0 SWAP1 SLOAD SWAP1 PUSH2 0x100 EXP SWAP1 DIV PUSH20 0xFFFFFFFFFFFFFFFFFFFFFFFFFFFFFFFFFFFFFFFF AND PUSH20 0xFFFFFFFFFFFFFFFFFFFFFFFFFFFFFFFFFFFFFFFF AND PUSH4 0x9DC29FAC CALLER DUP5 PUSH1 0x40 MLOAD DUP4 PUSH4 0xFFFFFFFF AND PUSH1 0xE0 SHL DUP2 MSTORE PUSH1 0x4 ADD PUSH2 0x298F SWAP3 SWAP2 SWAP1 PUSH2 0x3540 JUMP JUMPDEST PUSH1 0x0 PUSH1 0x40 MLOAD DUP1 DUP4 SUB DUP2 PUSH1 0x0 DUP8 DUP1 EXTCODESIZE ISZERO DUP1 ISZERO PUSH2 0x29A9 JUMPI PUSH1 0x0 DUP1 REVERT JUMPDEST POP GAS CALL ISZERO DUP1 ISZERO PUSH2 0x29BD JUMPI RETURNDATASIZE PUSH1 0x0 DUP1 RETURNDATACOPY RETURNDATASIZE PUSH1 0x0 REVERT JUMPDEST POP POP POP POP PUSH1 0x11 PUSH1 0x0 SWAP1 SLOAD SWAP1 PUSH2 0x100 EXP SWAP1 DIV PUSH20 0xFFFFFFFFFFFFFFFFFFFFFFFFFFFFFFFFFFFFFFFF AND PUSH20 0xFFFFFFFFFFFFFFFFFFFFFFFFFFFFFFFFFFFFFFFF AND PUSH4 0xA9059CBB CALLER DUP4 PUSH1 0x40 MLOAD DUP4 PUSH4 0xFFFFFFFF AND PUSH1 0xE0 SHL DUP2 MSTORE PUSH1 0x4 ADD PUSH2 0x2A1E SWAP3 SWAP2 SWAP1 PUSH2 0x3540 JUMP JUMPDEST PUSH1 0x20 PUSH1 0x40 MLOAD DUP1 DUP4 SUB DUP2 PUSH1 0x0 DUP8 DUP1 EXTCODESIZE ISZERO DUP1 ISZERO PUSH2 0x2A38 JUMPI PUSH1 0x0 DUP1 REVERT JUMPDEST POP GAS CALL ISZERO DUP1 ISZERO PUSH2 0x2A4C JUMPI RETURNDATASIZE PUSH1 0x0 DUP1 RETURNDATACOPY RETURNDATASIZE PUSH1 0x0 REVERT JUMPDEST POP POP POP POP PUSH1 0x40 MLOAD RETURNDATASIZE PUSH1 0x1F NOT PUSH1 0x1F DUP3 ADD AND DUP3 ADD DUP1 PUSH1 0x40 MSTORE POP DUP2 ADD SWAP1 PUSH2 0x2A70 SWAP2 SWAP1 PUSH2 0x2FF6 JUMP JUMPDEST PUSH2 0x2AAF JUMPI PUSH1 0x40 MLOAD PUSH32 0x8C379A000000000000000000000000000000000000000000000000000000000 DUP2 MSTORE PUSH1 0x4 ADD PUSH2 0x2AA6 SWAP1 PUSH2 0x3830 JUMP JUMPDEST PUSH1 0x40 MLOAD DUP1 SWAP2 SUB SWAP1 REVERT JUMPDEST DUP1 PUSH1 0xA PUSH1 0x0 DUP3 DUP3 SLOAD PUSH2 0x2AC1 SWAP2 SWAP1 PUSH2 0x3B2F JUMP JUMPDEST SWAP3 POP POP DUP2 SWAP1 SSTORE POP DUP2 PUSH1 0xB PUSH1 0x0 DUP3 DUP3 SLOAD PUSH2 0x2ADA SWAP2 SWAP1 PUSH2 0x3B2F JUMP JUMPDEST SWAP3 POP POP DUP2 SWAP1 SSTORE POP PUSH32 0xED7A144FAD14804D5C249145E3E0E2B63A9EB455B76AEE5BC92D711E9BBA3E4A CALLER DUP4 DUP4 PUSH1 0x40 MLOAD PUSH2 0x2B14 SWAP4 SWAP3 SWAP2 SWAP1 PUSH2 0x3569 JUMP JUMPDEST PUSH1 0x40 MLOAD DUP1 SWAP2 SUB SWAP1 LOG1 SWAP2 SWAP1 POP JUMP JUMPDEST PUSH1 0x0 PUSH2 0x2B49 DUP4 PUSH1 0x0 ADD DUP4 PUSH20 0xFFFFFFFFFFFFFFFFFFFFFFFFFFFFFFFFFFFFFFFF AND PUSH1 0x0 SHL PUSH2 0x2D07 JUMP JUMPDEST SWAP1 POP SWAP3 SWAP2 POP POP JUMP JUMPDEST PUSH1 0x0 PUSH2 0x2B79 DUP4 PUSH1 0x0 ADD DUP4 PUSH20 0xFFFFFFFFFFFFFFFFFFFFFFFFFFFFFFFFFFFFFFFF AND PUSH1 0x0 SHL PUSH2 0x2D77 JUMP JUMPDEST SWAP1 POP SWAP3 SWAP2 POP POP JUMP JUMPDEST PUSH1 0x0 DUP1 DUP4 PUSH1 0x1 ADD PUSH1 0x0 DUP5 DUP2 MSTORE PUSH1 0x20 ADD SWAP1 DUP2 MSTORE PUSH1 0x20 ADD PUSH1 0x0 KECCAK256 SLOAD SWAP1 POP PUSH1 0x0 DUP2 EQ PUSH2 0x2CFB JUMPI PUSH1 0x0 PUSH1 0x1 DUP3 PUSH2 0x2BB3 SWAP2 SWAP1 PUSH2 0x3B2F JUMP JUMPDEST SWAP1 POP PUSH1 0x0 PUSH1 0x1 DUP7 PUSH1 0x0 ADD DUP1 SLOAD SWAP1 POP PUSH2 0x2BCB SWAP2 SWAP1 PUSH2 0x3B2F JUMP JUMPDEST SWAP1 POP DUP2 DUP2 EQ PUSH2 0x2C86 JUMPI PUSH1 0x0 DUP7 PUSH1 0x0 ADD DUP3 DUP2 SLOAD DUP2 LT PUSH2 0x2C12 JUMPI PUSH32 0x4E487B7100000000000000000000000000000000000000000000000000000000 PUSH1 0x0 MSTORE PUSH1 0x32 PUSH1 0x4 MSTORE PUSH1 0x24 PUSH1 0x0 REVERT JUMPDEST SWAP1 PUSH1 0x0 MSTORE PUSH1 0x20 PUSH1 0x0 KECCAK256 ADD SLOAD SWAP1 POP DUP1 DUP8 PUSH1 0x0 ADD DUP5 DUP2 SLOAD DUP2 LT PUSH2 0x2C5C JUMPI PUSH32 0x4E487B7100000000000000000000000000000000000000000000000000000000 PUSH1 0x0 MSTORE PUSH1 0x32 PUSH1 0x4 MSTORE PUSH1 0x24 PUSH1 0x0 REVERT JUMPDEST SWAP1 PUSH1 0x0 MSTORE PUSH1 0x20 PUSH1 0x0 KECCAK256 ADD DUP2 SWAP1 SSTORE POP DUP4 DUP8 PUSH1 0x1 ADD PUSH1 0x0 DUP4 DUP2 MSTORE PUSH1 0x20 ADD SWAP1 DUP2 MSTORE PUSH1 0x20 ADD PUSH1 0x0 KECCAK256 DUP2 SWAP1 SSTORE POP POP JUMPDEST DUP6 PUSH1 0x0 ADD DUP1 SLOAD DUP1 PUSH2 0x2CC0 JUMPI PUSH32 0x4E487B7100000000000000000000000000000000000000000000000000000000 PUSH1 0x0 MSTORE PUSH1 0x31 PUSH1 0x4 MSTORE PUSH1 0x24 PUSH1 0x0 REVERT JUMPDEST PUSH1 0x1 SWAP1 SUB DUP2 DUP2 SWAP1 PUSH1 0x0 MSTORE PUSH1 0x20 PUSH1 0x0 KECCAK256 ADD PUSH1 0x0 SWAP1 SSTORE SWAP1 SSTORE DUP6 PUSH1 0x1 ADD PUSH1 0x0 DUP7 DUP2 MSTORE PUSH1 0x20 ADD SWAP1 DUP2 MSTORE PUSH1 0x20 ADD PUSH1 0x0 KECCAK256 PUSH1 0x0 SWAP1 SSTORE PUSH1 0x1 SWAP4 POP POP POP POP PUSH2 0x2D01 JUMP JUMPDEST PUSH1 0x0 SWAP2 POP POP JUMPDEST SWAP3 SWAP2 POP POP JUMP JUMPDEST PUSH1 0x0 PUSH2 0x2D13 DUP4 DUP4 PUSH2 0x2D77 JUMP JUMPDEST PUSH2 0x2D6C JUMPI DUP3 PUSH1 0x0 ADD DUP3 SWAP1 DUP1 PUSH1 0x1 DUP2 SLOAD ADD DUP1 DUP3 SSTORE DUP1 SWAP2 POP POP PUSH1 0x1 SWAP1 SUB SWAP1 PUSH1 0x0 MSTORE PUSH1 0x20 PUSH1 0x0 KECCAK256 ADD PUSH1 0x0 SWAP1 SWAP2 SWAP1 SWAP2 SWAP1 SWAP2 POP SSTORE DUP3 PUSH1 0x0 ADD DUP1 SLOAD SWAP1 POP DUP4 PUSH1 0x1 ADD PUSH1 0x0 DUP5 DUP2 MSTORE PUSH1 0x20 ADD SWAP1 DUP2 MSTORE PUSH1 0x20 ADD PUSH1 0x0 KECCAK256 DUP2 SWAP1 SSTORE POP PUSH1 0x1 SWAP1 POP PUSH2 0x2D71 JUMP JUMPDEST PUSH1 0x0 SWAP1 POP JUMPDEST SWAP3 SWAP2 POP POP JUMP JUMPDEST PUSH1 0x0 DUP1 DUP4 PUSH1 0x1 ADD PUSH1 0x0 DUP5 DUP2 MSTORE PUSH1 0x20 ADD SWAP1 DUP2 MSTORE PUSH1 0x20 ADD PUSH1 0x0 KECCAK256 SLOAD EQ ISZERO SWAP1 POP SWAP3 SWAP2 POP POP JUMP JUMPDEST PUSH1 0x0 PUSH2 0x2DAD PUSH2 0x2DA8 DUP5 PUSH2 0x3A11 JUMP JUMPDEST PUSH2 0x39EC JUMP JUMPDEST SWAP1 POP DUP1 DUP4 DUP3 MSTORE PUSH1 0x20 DUP3 ADD SWAP1 POP DUP3 DUP6 PUSH1 0x20 DUP7 MUL DUP3 ADD GT ISZERO PUSH2 0x2DCC JUMPI PUSH1 0x0 DUP1 REVERT JUMPDEST PUSH1 0x0 JUMPDEST DUP6 DUP2 LT ISZERO PUSH2 0x2DFC JUMPI DUP2 PUSH2 0x2DE2 DUP9 DUP3 PUSH2 0x2E1B JUMP JUMPDEST DUP5 MSTORE PUSH1 0x20 DUP5 ADD SWAP4 POP PUSH1 0x20 DUP4 ADD SWAP3 POP POP PUSH1 0x1 DUP2 ADD SWAP1 POP PUSH2 0x2DCF JUMP JUMPDEST POP POP POP SWAP4 SWAP3 POP POP POP JUMP JUMPDEST PUSH1 0x0 DUP2 CALLDATALOAD SWAP1 POP PUSH2 0x2E15 DUP2 PUSH2 0x41F3 JUMP JUMPDEST SWAP3 SWAP2 POP POP JUMP JUMPDEST PUSH1 0x0 DUP2 MLOAD SWAP1 POP PUSH2 0x2E2A DUP2 PUSH2 0x41F3 JUMP JUMPDEST SWAP3 SWAP2 POP POP JUMP JUMPDEST PUSH1 0x0 DUP3 PUSH1 0x1F DUP4 ADD SLT PUSH2 0x2E41 JUMPI PUSH1 0x0 DUP1 REVERT JUMPDEST DUP2 MLOAD PUSH2 0x2E51 DUP5 DUP3 PUSH1 0x20 DUP7 ADD PUSH2 0x2D9A JUMP JUMPDEST SWAP2 POP POP SWAP3 SWAP2 POP POP JUMP JUMPDEST PUSH1 0x0 DUP2 CALLDATALOAD SWAP1 POP PUSH2 0x2E69 DUP2 PUSH2 0x420A JUMP JUMPDEST SWAP3 SWAP2 POP POP JUMP JUMPDEST PUSH1 0x0 DUP2 MLOAD SWAP1 POP PUSH2 0x2E7E DUP2 PUSH2 0x420A JUMP JUMPDEST SWAP3 SWAP2 POP POP JUMP JUMPDEST PUSH1 0x0 DUP2 CALLDATALOAD SWAP1 POP PUSH2 0x2E93 DUP2 PUSH2 0x4221 JUMP JUMPDEST SWAP3 SWAP2 POP POP JUMP JUMPDEST PUSH1 0x0 DUP2 MLOAD SWAP1 POP PUSH2 0x2EA8 DUP2 PUSH2 0x4238 JUMP JUMPDEST SWAP3 SWAP2 POP POP JUMP JUMPDEST PUSH1 0x0 DUP2 CALLDATALOAD SWAP1 POP PUSH2 0x2EBD DUP2 PUSH2 0x424F JUMP JUMPDEST SWAP3 SWAP2 POP POP JUMP JUMPDEST PUSH1 0x0 DUP2 MLOAD SWAP1 POP PUSH2 0x2ED2 DUP2 PUSH2 0x424F JUMP JUMPDEST SWAP3 SWAP2 POP POP JUMP JUMPDEST PUSH1 0x0 PUSH1 0x20 DUP3 DUP5 SUB SLT ISZERO PUSH2 0x2EEA JUMPI PUSH1 0x0 DUP1 REVERT JUMPDEST PUSH1 0x0 PUSH2 0x2EF8 DUP5 DUP3 DUP6 ADD PUSH2 0x2E06 JUMP JUMPDEST SWAP2 POP POP SWAP3 SWAP2 POP POP JUMP JUMPDEST PUSH1 0x0 DUP1 PUSH1 0x0 PUSH1 0x60 DUP5 DUP7 SUB SLT ISZERO PUSH2 0x2F16 JUMPI PUSH1 0x0 DUP1 REVERT JUMPDEST PUSH1 0x0 PUSH2 0x2F24 DUP7 DUP3 DUP8 ADD PUSH2 0x2E06 JUMP JUMPDEST SWAP4 POP POP PUSH1 0x20 PUSH2 0x2F35 DUP7 DUP3 DUP8 ADD PUSH2 0x2E06 JUMP JUMPDEST SWAP3 POP POP PUSH1 0x40 PUSH2 0x2F46 DUP7 DUP3 DUP8 ADD PUSH2 0x2EAE JUMP JUMPDEST SWAP2 POP POP SWAP3 POP SWAP3 POP SWAP3 JUMP JUMPDEST PUSH1 0x0 DUP1 PUSH1 0x40 DUP4 DUP6 SUB SLT ISZERO PUSH2 0x2F63 JUMPI PUSH1 0x0 DUP1 REVERT JUMPDEST PUSH1 0x0 PUSH2 0x2F71 DUP6 DUP3 DUP7 ADD PUSH2 0x2E06 JUMP JUMPDEST SWAP3 POP POP PUSH1 0x20 PUSH2 0x2F82 DUP6 DUP3 DUP7 ADD PUSH2 0x2EAE JUMP JUMPDEST SWAP2 POP POP SWAP3 POP SWAP3 SWAP1 POP JUMP JUMPDEST PUSH1 0x0 PUSH1 0x20 DUP3 DUP5 SUB SLT ISZERO PUSH2 0x2F9E JUMPI PUSH1 0x0 DUP1 REVERT JUMPDEST PUSH1 0x0 DUP3 ADD MLOAD PUSH8 0xFFFFFFFFFFFFFFFF DUP2 GT ISZERO PUSH2 0x2FB8 JUMPI PUSH1 0x0 DUP1 REVERT JUMPDEST PUSH2 0x2FC4 DUP5 DUP3 DUP6 ADD PUSH2 0x2E30 JUMP JUMPDEST SWAP2 POP POP SWAP3 SWAP2 POP POP JUMP JUMPDEST PUSH1 0x0 PUSH1 0x20 DUP3 DUP5 SUB SLT ISZERO PUSH2 0x2FDF JUMPI PUSH1 0x0 DUP1 REVERT JUMPDEST PUSH1 0x0 PUSH2 0x2FED DUP5 DUP3 DUP6 ADD PUSH2 0x2E5A JUMP JUMPDEST SWAP2 POP POP SWAP3 SWAP2 POP POP JUMP JUMPDEST PUSH1 0x0 PUSH1 0x20 DUP3 DUP5 SUB SLT ISZERO PUSH2 0x3008 JUMPI PUSH1 0x0 DUP1 REVERT JUMPDEST PUSH1 0x0 PUSH2 0x3016 DUP5 DUP3 DUP6 ADD PUSH2 0x2E6F JUMP JUMPDEST SWAP2 POP POP SWAP3 SWAP2 POP POP JUMP JUMPDEST PUSH1 0x0 DUP1 PUSH1 0x0 PUSH1 0x60 DUP5 DUP7 SUB SLT ISZERO PUSH2 0x3034 JUMPI PUSH1 0x0 DUP1 REVERT JUMPDEST PUSH1 0x0 PUSH2 0x3042 DUP7 DUP3 DUP8 ADD PUSH2 0x2E84 JUMP JUMPDEST SWAP4 POP POP PUSH1 0x20 PUSH2 0x3053 DUP7 DUP3 DUP8 ADD PUSH2 0x2EAE JUMP JUMPDEST SWAP3 POP POP PUSH1 0x40 PUSH2 0x3064 DUP7 DUP3 DUP8 ADD PUSH2 0x2EAE JUMP JUMPDEST SWAP2 POP POP SWAP3 POP SWAP3 POP SWAP3 JUMP JUMPDEST PUSH1 0x0 PUSH1 0x20 DUP3 DUP5 SUB SLT ISZERO PUSH2 0x3080 JUMPI PUSH1 0x0 DUP1 REVERT JUMPDEST PUSH1 0x0 PUSH2 0x308E DUP5 DUP3 DUP6 ADD PUSH2 0x2E99 JUMP JUMPDEST SWAP2 POP POP SWAP3 SWAP2 POP POP JUMP JUMPDEST PUSH1 0x0 PUSH1 0x20 DUP3 DUP5 SUB SLT ISZERO PUSH2 0x30A9 JUMPI PUSH1 0x0 DUP1 REVERT JUMPDEST PUSH1 0x0 PUSH2 0x30B7 DUP5 DUP3 DUP6 ADD PUSH2 0x2EAE JUMP JUMPDEST SWAP2 POP POP SWAP3 SWAP2 POP POP JUMP JUMPDEST PUSH1 0x0 PUSH1 0x20 DUP3 DUP5 SUB SLT ISZERO PUSH2 0x30D2 JUMPI PUSH1 0x0 DUP1 REVERT JUMPDEST PUSH1 0x0 PUSH2 0x30E0 DUP5 DUP3 DUP6 ADD PUSH2 0x2EC3 JUMP JUMPDEST SWAP2 POP POP SWAP3 SWAP2 POP POP JUMP JUMPDEST PUSH2 0x30F2 DUP2 PUSH2 0x3B63 JUMP JUMPDEST DUP3 MSTORE POP POP JUMP JUMPDEST PUSH2 0x3101 DUP2 PUSH2 0x3B75 JUMP JUMPDEST DUP3 MSTORE POP POP JUMP JUMPDEST PUSH2 0x3110 DUP2 PUSH2 0x3B81 JUMP JUMPDEST DUP3 MSTORE POP POP JUMP JUMPDEST PUSH2 0x311F DUP2 PUSH2 0x3BE1 JUMP JUMPDEST DUP3 MSTORE POP POP JUMP JUMPDEST PUSH2 0x312E DUP2 PUSH2 0x3C05 JUMP JUMPDEST DUP3 MSTORE POP POP JUMP JUMPDEST PUSH2 0x313D DUP2 PUSH2 0x3C29 JUMP JUMPDEST DUP3 MSTORE POP POP JUMP JUMPDEST PUSH2 0x314C DUP2 PUSH2 0x3C4D JUMP JUMPDEST DUP3 MSTORE POP POP JUMP JUMPDEST PUSH1 0x0 PUSH2 0x315F PUSH1 0x1B DUP4 PUSH2 0x3A3D JUMP JUMPDEST SWAP2 POP PUSH2 0x316A DUP3 PUSH2 0x3D89 JUMP JUMPDEST PUSH1 0x20 DUP3 ADD SWAP1 POP SWAP2 SWAP1 POP JUMP JUMPDEST PUSH1 0x0 PUSH2 0x3182 PUSH1 0x17 DUP4 PUSH2 0x3A3D JUMP JUMPDEST SWAP2 POP PUSH2 0x318D DUP3 PUSH2 0x3DB2 JUMP JUMPDEST PUSH1 0x20 DUP3 ADD SWAP1 POP SWAP2 SWAP1 POP JUMP JUMPDEST PUSH1 0x0 PUSH2 0x31A5 PUSH1 0xF DUP4 PUSH2 0x3A3D JUMP JUMPDEST SWAP2 POP PUSH2 0x31B0 DUP3 PUSH2 0x3DDB JUMP JUMPDEST PUSH1 0x20 DUP3 ADD SWAP1 POP SWAP2 SWAP1 POP JUMP JUMPDEST PUSH1 0x0 PUSH2 0x31C8 PUSH1 0xF DUP4 PUSH2 0x3A3D JUMP JUMPDEST SWAP2 POP PUSH2 0x31D3 DUP3 PUSH2 0x3E04 JUMP JUMPDEST PUSH1 0x20 DUP3 ADD SWAP1 POP SWAP2 SWAP1 POP JUMP JUMPDEST PUSH1 0x0 PUSH2 0x31EB PUSH1 0x18 DUP4 PUSH2 0x3A3D JUMP JUMPDEST SWAP2 POP PUSH2 0x31F6 DUP3 PUSH2 0x3E2D JUMP JUMPDEST PUSH1 0x20 DUP3 ADD SWAP1 POP SWAP2 SWAP1 POP JUMP JUMPDEST PUSH1 0x0 PUSH2 0x320E PUSH1 0x22 DUP4 PUSH2 0x3A3D JUMP JUMPDEST SWAP2 POP PUSH2 0x3219 DUP3 PUSH2 0x3E56 JUMP JUMPDEST PUSH1 0x40 DUP3 ADD SWAP1 POP SWAP2 SWAP1 POP JUMP JUMPDEST PUSH1 0x0 PUSH2 0x3231 PUSH1 0x11 DUP4 PUSH2 0x3A3D JUMP JUMPDEST SWAP2 POP PUSH2 0x323C DUP3 PUSH2 0x3EA5 JUMP JUMPDEST PUSH1 0x20 DUP3 ADD SWAP1 POP SWAP2 SWAP1 POP JUMP JUMPDEST PUSH1 0x0 PUSH2 0x3254 PUSH1 0x18 DUP4 PUSH2 0x3A3D JUMP JUMPDEST SWAP2 POP PUSH2 0x325F DUP3 PUSH2 0x3ECE JUMP JUMPDEST PUSH1 0x20 DUP3 ADD SWAP1 POP SWAP2 SWAP1 POP JUMP JUMPDEST PUSH1 0x0 PUSH2 0x3277 PUSH1 0x2E DUP4 PUSH2 0x3A3D JUMP JUMPDEST SWAP2 POP PUSH2 0x3282 DUP3 PUSH2 0x3EF7 JUMP JUMPDEST PUSH1 0x40 DUP3 ADD SWAP1 POP SWAP2 SWAP1 POP JUMP JUMPDEST PUSH1 0x0 PUSH2 0x329A PUSH1 0x15 DUP4 PUSH2 0x3A3D JUMP JUMPDEST SWAP2 POP PUSH2 0x32A5 DUP3 PUSH2 0x3F46 JUMP JUMPDEST PUSH1 0x20 DUP3 ADD SWAP1 POP SWAP2 SWAP1 POP JUMP JUMPDEST PUSH1 0x0 PUSH2 0x32BD PUSH1 0x17 DUP4 PUSH2 0x3A3D JUMP JUMPDEST SWAP2 POP PUSH2 0x32C8 DUP3 PUSH2 0x3F6F JUMP JUMPDEST PUSH1 0x20 DUP3 ADD SWAP1 POP SWAP2 SWAP1 POP JUMP JUMPDEST PUSH1 0x0 PUSH2 0x32E0 PUSH1 0x1F DUP4 PUSH2 0x3A3D JUMP JUMPDEST SWAP2 POP PUSH2 0x32EB DUP3 PUSH2 0x3F98 JUMP JUMPDEST PUSH1 0x20 DUP3 ADD SWAP1 POP SWAP2 SWAP1 POP JUMP JUMPDEST PUSH1 0x0 PUSH2 0x3303 PUSH1 0x15 DUP4 PUSH2 0x3A3D JUMP JUMPDEST SWAP2 POP PUSH2 0x330E DUP3 PUSH2 0x3FC1 JUMP JUMPDEST PUSH1 0x20 DUP3 ADD SWAP1 POP SWAP2 SWAP1 POP JUMP JUMPDEST PUSH1 0x0 PUSH2 0x3326 PUSH1 0x1F DUP4 PUSH2 0x3A3D JUMP JUMPDEST SWAP2 POP PUSH2 0x3331 DUP3 PUSH2 0x3FEA JUMP JUMPDEST PUSH1 0x20 DUP3 ADD SWAP1 POP SWAP2 SWAP1 POP JUMP JUMPDEST PUSH1 0x0 PUSH2 0x3349 PUSH1 0x32 DUP4 PUSH2 0x3A3D JUMP JUMPDEST SWAP2 POP PUSH2 0x3354 DUP3 PUSH2 0x4013 JUMP JUMPDEST PUSH1 0x40 DUP3 ADD SWAP1 POP SWAP2 SWAP1 POP JUMP JUMPDEST PUSH1 0x0 PUSH2 0x336C PUSH1 0x23 DUP4 PUSH2 0x3A3D JUMP JUMPDEST SWAP2 POP PUSH2 0x3377 DUP3 PUSH2 0x4062 JUMP JUMPDEST PUSH1 0x40 DUP3 ADD SWAP1 POP SWAP2 SWAP1 POP JUMP JUMPDEST PUSH1 0x0 PUSH2 0x338F PUSH1 0x11 DUP4 PUSH2 0x3A3D JUMP JUMPDEST SWAP2 POP PUSH2 0x339A DUP3 PUSH2 0x40B1 JUMP JUMPDEST PUSH1 0x20 DUP3 ADD SWAP1 POP SWAP2 SWAP1 POP JUMP JUMPDEST PUSH1 0x0 PUSH2 0x33B2 PUSH1 0x25 DUP4 PUSH2 0x3A3D JUMP JUMPDEST SWAP2 POP PUSH2 0x33BD DUP3 PUSH2 0x40DA JUMP JUMPDEST PUSH1 0x40 DUP3 ADD SWAP1 POP SWAP2 SWAP1 POP JUMP JUMPDEST PUSH1 0x0 PUSH2 0x33D5 PUSH1 0x1F DUP4 PUSH2 0x3A3D JUMP JUMPDEST SWAP2 POP PUSH2 0x33E0 DUP3 PUSH2 0x4129 JUMP JUMPDEST PUSH1 0x20 DUP3 ADD SWAP1 POP SWAP2 SWAP1 POP JUMP JUMPDEST PUSH1 0x0 PUSH2 0x33F8 PUSH1 0x33 DUP4 PUSH2 0x3A3D JUMP JUMPDEST SWAP2 POP PUSH2 0x3403 DUP3 PUSH2 0x4152 JUMP JUMPDEST PUSH1 0x40 DUP3 ADD SWAP1 POP SWAP2 SWAP1 POP JUMP JUMPDEST PUSH1 0x0 PUSH2 0x341B PUSH1 0x6 DUP4 PUSH2 0x3A3D JUMP JUMPDEST SWAP2 POP PUSH2 0x3426 DUP3 PUSH2 0x41A1 JUMP JUMPDEST PUSH1 0x20 DUP3 ADD SWAP1 POP SWAP2 SWAP1 POP JUMP JUMPDEST PUSH1 0x0 PUSH2 0x343E PUSH1 0xB DUP4 PUSH2 0x3A3D JUMP JUMPDEST SWAP2 POP PUSH2 0x3449 DUP3 PUSH2 0x41CA JUMP JUMPDEST PUSH1 0x20 DUP3 ADD SWAP1 POP SWAP2 SWAP1 POP JUMP JUMPDEST PUSH2 0x345D DUP2 PUSH2 0x3BC7 JUMP JUMPDEST DUP3 MSTORE POP POP JUMP JUMPDEST PUSH2 0x346C DUP2 PUSH2 0x3BD1 JUMP JUMPDEST DUP3 MSTORE POP POP JUMP JUMPDEST PUSH1 0x0 PUSH1 0x20 DUP3 ADD SWAP1 POP PUSH2 0x3487 PUSH1 0x0 DUP4 ADD DUP5 PUSH2 0x30E9 JUMP JUMPDEST SWAP3 SWAP2 POP POP JUMP JUMPDEST PUSH1 0x0 PUSH1 0x40 DUP3 ADD SWAP1 POP PUSH2 0x34A2 PUSH1 0x0 DUP4 ADD DUP6 PUSH2 0x30E9 JUMP JUMPDEST PUSH2 0x34AF PUSH1 0x20 DUP4 ADD DUP5 PUSH2 0x30E9 JUMP JUMPDEST SWAP4 SWAP3 POP POP POP JUMP JUMPDEST PUSH1 0x0 PUSH1 0x60 DUP3 ADD SWAP1 POP PUSH2 0x34CB PUSH1 0x0 DUP4 ADD DUP7 PUSH2 0x30E9 JUMP JUMPDEST PUSH2 0x34D8 PUSH1 0x20 DUP4 ADD DUP6 PUSH2 0x30E9 JUMP JUMPDEST PUSH2 0x34E5 PUSH1 0x40 DUP4 ADD DUP5 PUSH2 0x3454 JUMP JUMPDEST SWAP5 SWAP4 POP POP POP POP JUMP JUMPDEST PUSH1 0x0 PUSH1 0xA0 DUP3 ADD SWAP1 POP PUSH2 0x3502 PUSH1 0x0 DUP4 ADD DUP9 PUSH2 0x30E9 JUMP JUMPDEST PUSH2 0x350F PUSH1 0x20 DUP4 ADD DUP8 PUSH2 0x30E9 JUMP JUMPDEST PUSH2 0x351C PUSH1 0x40 DUP4 ADD DUP7 PUSH2 0x3454 JUMP JUMPDEST PUSH2 0x3529 PUSH1 0x60 DUP4 ADD DUP6 PUSH2 0x3454 JUMP JUMPDEST PUSH2 0x3536 PUSH1 0x80 DUP4 ADD DUP5 PUSH2 0x3454 JUMP JUMPDEST SWAP7 SWAP6 POP POP POP POP POP POP JUMP JUMPDEST PUSH1 0x0 PUSH1 0x40 DUP3 ADD SWAP1 POP PUSH2 0x3555 PUSH1 0x0 DUP4 ADD DUP6 PUSH2 0x30E9 JUMP JUMPDEST PUSH2 0x3562 PUSH1 0x20 DUP4 ADD DUP5 PUSH2 0x3454 JUMP JUMPDEST SWAP4 SWAP3 POP POP POP JUMP JUMPDEST PUSH1 0x0 PUSH1 0x60 DUP3 ADD SWAP1 POP PUSH2 0x357E PUSH1 0x0 DUP4 ADD DUP7 PUSH2 0x30E9 JUMP JUMPDEST PUSH2 0x358B PUSH1 0x20 DUP4 ADD DUP6 PUSH2 0x3454 JUMP JUMPDEST PUSH2 0x3598 PUSH1 0x40 DUP4 ADD DUP5 PUSH2 0x3454 JUMP JUMPDEST SWAP5 SWAP4 POP POP POP POP JUMP JUMPDEST PUSH1 0x0 PUSH1 0x20 DUP3 ADD SWAP1 POP PUSH2 0x35B5 PUSH1 0x0 DUP4 ADD DUP5 PUSH2 0x30F8 JUMP JUMPDEST SWAP3 SWAP2 POP POP JUMP JUMPDEST PUSH1 0x0 PUSH1 0x40 DUP3 ADD SWAP1 POP PUSH2 0x35D0 PUSH1 0x0 DUP4 ADD DUP6 PUSH2 0x3107 JUMP JUMPDEST PUSH2 0x35DD PUSH1 0x20 DUP4 ADD DUP5 PUSH2 0x30E9 JUMP JUMPDEST SWAP4 SWAP3 POP POP POP JUMP JUMPDEST PUSH1 0x0 PUSH1 0x20 DUP3 ADD SWAP1 POP PUSH2 0x35F9 PUSH1 0x0 DUP4 ADD DUP5 PUSH2 0x3116 JUMP JUMPDEST SWAP3 SWAP2 POP POP JUMP JUMPDEST PUSH1 0x0 PUSH1 0x20 DUP3 ADD SWAP1 POP PUSH2 0x3614 PUSH1 0x0 DUP4 ADD DUP5 PUSH2 0x3125 JUMP JUMPDEST SWAP3 SWAP2 POP POP JUMP JUMPDEST PUSH1 0x0 PUSH1 0x20 DUP3 ADD SWAP1 POP PUSH2 0x362F PUSH1 0x0 DUP4 ADD DUP5 PUSH2 0x3134 JUMP JUMPDEST SWAP3 SWAP2 POP POP JUMP JUMPDEST PUSH1 0x0 PUSH1 0x20 DUP3 ADD SWAP1 POP PUSH2 0x364A PUSH1 0x0 DUP4 ADD DUP5 PUSH2 0x3143 JUMP JUMPDEST SWAP3 SWAP2 POP POP JUMP JUMPDEST PUSH1 0x0 PUSH1 0x20 DUP3 ADD SWAP1 POP DUP2 DUP2 SUB PUSH1 0x0 DUP4 ADD MSTORE PUSH2 0x3669 DUP2 PUSH2 0x3152 JUMP JUMPDEST SWAP1 POP SWAP2 SWAP1 POP JUMP JUMPDEST PUSH1 0x0 PUSH1 0x20 DUP3 ADD SWAP1 POP DUP2 DUP2 SUB PUSH1 0x0 DUP4 ADD MSTORE PUSH2 0x3689 DUP2 PUSH2 0x3175 JUMP JUMPDEST SWAP1 POP SWAP2 SWAP1 POP JUMP JUMPDEST PUSH1 0x0 PUSH1 0x20 DUP3 ADD SWAP1 POP DUP2 DUP2 SUB PUSH1 0x0 DUP4 ADD MSTORE PUSH2 0x36A9 DUP2 PUSH2 0x3198 JUMP JUMPDEST SWAP1 POP SWAP2 SWAP1 POP JUMP JUMPDEST PUSH1 0x0 PUSH1 0x20 DUP3 ADD SWAP1 POP DUP2 DUP2 SUB PUSH1 0x0 DUP4 ADD MSTORE PUSH2 0x36C9 DUP2 PUSH2 0x31BB JUMP JUMPDEST SWAP1 POP SWAP2 SWAP1 POP JUMP JUMPDEST PUSH1 0x0 PUSH1 0x20 DUP3 ADD SWAP1 POP DUP2 DUP2 SUB PUSH1 0x0 DUP4 ADD MSTORE PUSH2 0x36E9 DUP2 PUSH2 0x31DE JUMP JUMPDEST SWAP1 POP SWAP2 SWAP1 POP JUMP JUMPDEST PUSH1 0x0 PUSH1 0x20 DUP3 ADD SWAP1 POP DUP2 DUP2 SUB PUSH1 0x0 DUP4 ADD MSTORE PUSH2 0x3709 DUP2 PUSH2 0x3201 JUMP JUMPDEST SWAP1 POP SWAP2 SWAP1 POP JUMP JUMPDEST PUSH1 0x0 PUSH1 0x20 DUP3 ADD SWAP1 POP DUP2 DUP2 SUB PUSH1 0x0 DUP4 ADD MSTORE PUSH2 0x3729 DUP2 PUSH2 0x3224 JUMP JUMPDEST SWAP1 POP SWAP2 SWAP1 POP JUMP JUMPDEST PUSH1 0x0 PUSH1 0x20 DUP3 ADD SWAP1 POP DUP2 DUP2 SUB PUSH1 0x0 DUP4 ADD MSTORE PUSH2 0x3749 DUP2 PUSH2 0x3247 JUMP JUMPDEST SWAP1 POP SWAP2 SWAP1 POP JUMP JUMPDEST PUSH1 0x0 PUSH1 0x20 DUP3 ADD SWAP1 POP DUP2 DUP2 SUB PUSH1 0x0 DUP4 ADD MSTORE PUSH2 0x3769 DUP2 PUSH2 0x326A JUMP JUMPDEST SWAP1 POP SWAP2 SWAP1 POP JUMP JUMPDEST PUSH1 0x0 PUSH1 0x20 DUP3 ADD SWAP1 POP DUP2 DUP2 SUB PUSH1 0x0 DUP4 ADD MSTORE PUSH2 0x3789 DUP2 PUSH2 0x328D JUMP JUMPDEST SWAP1 POP SWAP2 SWAP1 POP JUMP JUMPDEST PUSH1 0x0 PUSH1 0x20 DUP3 ADD SWAP1 POP DUP2 DUP2 SUB PUSH1 0x0 DUP4 ADD MSTORE PUSH2 0x37A9 DUP2 PUSH2 0x32B0 JUMP JUMPDEST SWAP1 POP SWAP2 SWAP1 POP JUMP JUMPDEST PUSH1 0x0 PUSH1 0x20 DUP3 ADD SWAP1 POP DUP2 DUP2 SUB PUSH1 0x0 DUP4 ADD MSTORE PUSH2 0x37C9 DUP2 PUSH2 0x32D3 JUMP JUMPDEST SWAP1 POP SWAP2 SWAP1 POP JUMP JUMPDEST PUSH1 0x0 PUSH1 0x20 DUP3 ADD SWAP1 POP DUP2 DUP2 SUB PUSH1 0x0 DUP4 ADD MSTORE PUSH2 0x37E9 DUP2 PUSH2 0x32F6 JUMP JUMPDEST SWAP1 POP SWAP2 SWAP1 POP JUMP JUMPDEST PUSH1 0x0 PUSH1 0x20 DUP3 ADD SWAP1 POP DUP2 DUP2 SUB PUSH1 0x0 DUP4 ADD MSTORE PUSH2 0x3809 DUP2 PUSH2 0x3319 JUMP JUMPDEST SWAP1 POP SWAP2 SWAP1 POP JUMP JUMPDEST PUSH1 0x0 PUSH1 0x20 DUP3 ADD SWAP1 POP DUP2 DUP2 SUB PUSH1 0x0 DUP4 ADD MSTORE PUSH2 0x3829 DUP2 PUSH2 0x333C JUMP JUMPDEST SWAP1 POP SWAP2 SWAP1 POP JUMP JUMPDEST PUSH1 0x0 PUSH1 0x20 DUP3 ADD SWAP1 POP DUP2 DUP2 SUB PUSH1 0x0 DUP4 ADD MSTORE PUSH2 0x3849 DUP2 PUSH2 0x335F JUMP JUMPDEST SWAP1 POP SWAP2 SWAP1 POP JUMP JUMPDEST PUSH1 0x0 PUSH1 0x20 DUP3 ADD SWAP1 POP DUP2 DUP2 SUB PUSH1 0x0 DUP4 ADD MSTORE PUSH2 0x3869 DUP2 PUSH2 0x3382 JUMP JUMPDEST SWAP1 POP SWAP2 SWAP1 POP JUMP JUMPDEST PUSH1 0x0 PUSH1 0x20 DUP3 ADD SWAP1 POP DUP2 DUP2 SUB PUSH1 0x0 DUP4 ADD MSTORE PUSH2 0x3889 DUP2 PUSH2 0x33A5 JUMP JUMPDEST SWAP1 POP SWAP2 SWAP1 POP JUMP JUMPDEST PUSH1 0x0 PUSH1 0x20 DUP3 ADD SWAP1 POP DUP2 DUP2 SUB PUSH1 0x0 DUP4 ADD MSTORE PUSH2 0x38A9 DUP2 PUSH2 0x33C8 JUMP JUMPDEST SWAP1 POP SWAP2 SWAP1 POP JUMP JUMPDEST PUSH1 0x0 PUSH1 0x20 DUP3 ADD SWAP1 POP DUP2 DUP2 SUB PUSH1 0x0 DUP4 ADD MSTORE PUSH2 0x38C9 DUP2 PUSH2 0x33EB JUMP JUMPDEST SWAP1 POP SWAP2 SWAP1 POP JUMP JUMPDEST PUSH1 0x0 PUSH1 0x20 DUP3 ADD SWAP1 POP DUP2 DUP2 SUB PUSH1 0x0 DUP4 ADD MSTORE PUSH2 0x38E9 DUP2 PUSH2 0x340E JUMP JUMPDEST SWAP1 POP SWAP2 SWAP1 POP JUMP JUMPDEST PUSH1 0x0 PUSH1 0x20 DUP3 ADD SWAP1 POP DUP2 DUP2 SUB PUSH1 0x0 DUP4 ADD MSTORE PUSH2 0x3909 DUP2 PUSH2 0x3431 JUMP JUMPDEST SWAP1 POP SWAP2 SWAP1 POP JUMP JUMPDEST PUSH1 0x0 PUSH1 0x20 DUP3 ADD SWAP1 POP PUSH2 0x3925 PUSH1 0x0 DUP4 ADD DUP5 PUSH2 0x3454 JUMP JUMPDEST SWAP3 SWAP2 POP POP JUMP JUMPDEST PUSH1 0x0 PUSH1 0xC0 DUP3 ADD SWAP1 POP PUSH2 0x3940 PUSH1 0x0 DUP4 ADD DUP10 PUSH2 0x3454 JUMP JUMPDEST PUSH2 0x394D PUSH1 0x20 DUP4 ADD DUP9 PUSH2 0x3454 JUMP JUMPDEST PUSH2 0x395A PUSH1 0x40 DUP4 ADD DUP8 PUSH2 0x3454 JUMP JUMPDEST PUSH2 0x3967 PUSH1 0x60 DUP4 ADD DUP7 PUSH2 0x3454 JUMP JUMPDEST PUSH2 0x3974 PUSH1 0x80 DUP4 ADD DUP6 PUSH2 0x3454 JUMP JUMPDEST PUSH2 0x3981 PUSH1 0xA0 DUP4 ADD DUP5 PUSH2 0x3454 JUMP JUMPDEST SWAP8 SWAP7 POP POP POP POP POP POP POP JUMP JUMPDEST PUSH1 0x0 PUSH1 0x80 DUP3 ADD SWAP1 POP PUSH2 0x39A1 PUSH1 0x0 DUP4 ADD DUP8 PUSH2 0x3454 JUMP JUMPDEST PUSH2 0x39AE PUSH1 0x20 DUP4 ADD DUP7 PUSH2 0x3454 JUMP JUMPDEST PUSH2 0x39BB PUSH1 0x40 DUP4 ADD DUP6 PUSH2 0x3463 JUMP JUMPDEST PUSH2 0x39C8 PUSH1 0x60 DUP4 ADD DUP5 PUSH2 0x3454 JUMP JUMPDEST SWAP6 SWAP5 POP POP POP POP POP JUMP JUMPDEST PUSH1 0x0 PUSH1 0x20 DUP3 ADD SWAP1 POP PUSH2 0x39E6 PUSH1 0x0 DUP4 ADD DUP5 PUSH2 0x3463 JUMP JUMPDEST SWAP3 SWAP2 POP POP JUMP JUMPDEST PUSH1 0x0 PUSH2 0x39F6 PUSH2 0x3A07 JUMP JUMPDEST SWAP1 POP PUSH2 0x3A02 DUP3 DUP3 PUSH2 0x3C71 JUMP JUMPDEST SWAP2 SWAP1 POP JUMP JUMPDEST PUSH1 0x0 PUSH1 0x40 MLOAD SWAP1 POP SWAP1 JUMP JUMPDEST PUSH1 0x0 PUSH8 0xFFFFFFFFFFFFFFFF DUP3 GT ISZERO PUSH2 0x3A2C JUMPI PUSH2 0x3A2B PUSH2 0x3D49 JUMP JUMPDEST JUMPDEST PUSH1 0x20 DUP3 MUL SWAP1 POP PUSH1 0x20 DUP2 ADD SWAP1 POP SWAP2 SWAP1 POP JUMP JUMPDEST PUSH1 0x0 DUP3 DUP3 MSTORE PUSH1 0x20 DUP3 ADD SWAP1 POP SWAP3 SWAP2 POP POP JUMP JUMPDEST PUSH1 0x0 PUSH2 0x3A59 DUP3 PUSH2 0x3BC7 JUMP JUMPDEST SWAP2 POP PUSH2 0x3A64 DUP4 PUSH2 0x3BC7 JUMP JUMPDEST SWAP3 POP DUP3 PUSH32 0xFFFFFFFFFFFFFFFFFFFFFFFFFFFFFFFFFFFFFFFFFFFFFFFFFFFFFFFFFFFFFFFF SUB DUP3 GT ISZERO PUSH2 0x3A99 JUMPI PUSH2 0x3A98 PUSH2 0x3CEB JUMP JUMPDEST JUMPDEST DUP3 DUP3 ADD SWAP1 POP SWAP3 SWAP2 POP POP JUMP JUMPDEST PUSH1 0x0 PUSH2 0x3AAF DUP3 PUSH2 0x3BC7 JUMP JUMPDEST SWAP2 POP PUSH2 0x3ABA DUP4 PUSH2 0x3BC7 JUMP JUMPDEST SWAP3 POP DUP3 PUSH2 0x3ACA JUMPI PUSH2 0x3AC9 PUSH2 0x3D1A JUMP JUMPDEST JUMPDEST DUP3 DUP3 DIV SWAP1 POP SWAP3 SWAP2 POP POP JUMP JUMPDEST PUSH1 0x0 PUSH2 0x3AE0 DUP3 PUSH2 0x3BC7 JUMP JUMPDEST SWAP2 POP PUSH2 0x3AEB DUP4 PUSH2 0x3BC7 JUMP JUMPDEST SWAP3 POP DUP2 PUSH32 0xFFFFFFFFFFFFFFFFFFFFFFFFFFFFFFFFFFFFFFFFFFFFFFFFFFFFFFFFFFFFFFFF DIV DUP4 GT DUP3 ISZERO ISZERO AND ISZERO PUSH2 0x3B24 JUMPI PUSH2 0x3B23 PUSH2 0x3CEB JUMP JUMPDEST JUMPDEST DUP3 DUP3 MUL SWAP1 POP SWAP3 SWAP2 POP POP JUMP JUMPDEST PUSH1 0x0 PUSH2 0x3B3A DUP3 PUSH2 0x3BC7 JUMP JUMPDEST SWAP2 POP PUSH2 0x3B45 DUP4 PUSH2 0x3BC7 JUMP JUMPDEST SWAP3 POP DUP3 DUP3 LT ISZERO PUSH2 0x3B58 JUMPI PUSH2 0x3B57 PUSH2 0x3CEB JUMP JUMPDEST JUMPDEST DUP3 DUP3 SUB SWAP1 POP SWAP3 SWAP2 POP POP JUMP JUMPDEST PUSH1 0x0 PUSH2 0x3B6E DUP3 PUSH2 0x3BA7 JUMP JUMPDEST SWAP1 POP SWAP2 SWAP1 POP JUMP JUMPDEST PUSH1 0x0 DUP2 ISZERO ISZERO SWAP1 POP SWAP2 SWAP1 POP JUMP JUMPDEST PUSH1 0x0 DUP2 SWAP1 POP SWAP2 SWAP1 POP JUMP JUMPDEST PUSH1 0x0 PUSH2 0x3B96 DUP3 PUSH2 0x3B63 JUMP JUMPDEST SWAP1 POP SWAP2 SWAP1 POP JUMP JUMPDEST PUSH1 0x0 DUP2 SWAP1 POP SWAP2 SWAP1 POP JUMP JUMPDEST PUSH1 0x0 PUSH20 0xFFFFFFFFFFFFFFFFFFFFFFFFFFFFFFFFFFFFFFFF DUP3 AND SWAP1 POP SWAP2 SWAP1 POP JUMP JUMPDEST PUSH1 0x0 DUP2 SWAP1 POP SWAP2 SWAP1 POP JUMP JUMPDEST PUSH1 0x0 PUSH4 0xFFFFFFFF DUP3 AND SWAP1 POP SWAP2 SWAP1 POP JUMP JUMPDEST PUSH1 0x0 PUSH2 0x3BEC DUP3 PUSH2 0x3BF3 JUMP JUMPDEST SWAP1 POP SWAP2 SWAP1 POP JUMP JUMPDEST PUSH1 0x0 PUSH2 0x3BFE DUP3 PUSH2 0x3BA7 JUMP JUMPDEST SWAP1 POP SWAP2 SWAP1 POP JUMP JUMPDEST PUSH1 0x0 PUSH2 0x3C10 DUP3 PUSH2 0x3C17 JUMP JUMPDEST SWAP1 POP SWAP2 SWAP1 POP JUMP JUMPDEST PUSH1 0x0 PUSH2 0x3C22 DUP3 PUSH2 0x3BA7 JUMP JUMPDEST SWAP1 POP SWAP2 SWAP1 POP JUMP JUMPDEST PUSH1 0x0 PUSH2 0x3C34 DUP3 PUSH2 0x3C3B JUMP JUMPDEST SWAP1 POP SWAP2 SWAP1 POP JUMP JUMPDEST PUSH1 0x0 PUSH2 0x3C46 DUP3 PUSH2 0x3BA7 JUMP JUMPDEST SWAP1 POP SWAP2 SWAP1 POP JUMP JUMPDEST PUSH1 0x0 PUSH2 0x3C58 DUP3 PUSH2 0x3C5F JUMP JUMPDEST SWAP1 POP SWAP2 SWAP1 POP JUMP JUMPDEST PUSH1 0x0 PUSH2 0x3C6A DUP3 PUSH2 0x3BA7 JUMP JUMPDEST SWAP1 POP SWAP2 SWAP1 POP JUMP JUMPDEST PUSH2 0x3C7A DUP3 PUSH2 0x3D78 JUMP JUMPDEST DUP2 ADD DUP2 DUP2 LT PUSH8 0xFFFFFFFFFFFFFFFF DUP3 GT OR ISZERO PUSH2 0x3C99 JUMPI PUSH2 0x3C98 PUSH2 0x3D49 JUMP JUMPDEST JUMPDEST DUP1 PUSH1 0x40 MSTORE POP POP POP JUMP JUMPDEST PUSH1 0x0 PUSH2 0x3CAD DUP3 PUSH2 0x3BC7 JUMP JUMPDEST SWAP2 POP PUSH32 0xFFFFFFFFFFFFFFFFFFFFFFFFFFFFFFFFFFFFFFFFFFFFFFFFFFFFFFFFFFFFFFFF DUP3 EQ ISZERO PUSH2 0x3CE0 JUMPI PUSH2 0x3CDF PUSH2 0x3CEB JUMP JUMPDEST JUMPDEST PUSH1 0x1 DUP3 ADD SWAP1 POP SWAP2 SWAP1 POP JUMP JUMPDEST PUSH32 0x4E487B7100000000000000000000000000000000000000000000000000000000 PUSH1 0x0 MSTORE PUSH1 0x11 PUSH1 0x4 MSTORE PUSH1 0x24 PUSH1 0x0 REVERT JUMPDEST PUSH32 0x4E487B7100000000000000000000000000000000000000000000000000000000 PUSH1 0x0 MSTORE PUSH1 0x12 PUSH1 0x4 MSTORE PUSH1 0x24 PUSH1 0x0 REVERT JUMPDEST PUSH32 0x4E487B7100000000000000000000000000000000000000000000000000000000 PUSH1 0x0 MSTORE PUSH1 0x41 PUSH1 0x4 MSTORE PUSH1 0x24 PUSH1 0x0 REVERT JUMPDEST PUSH1 0x0 PUSH1 0x1F NOT PUSH1 0x1F DUP4 ADD AND SWAP1 POP SWAP2 SWAP1 POP JUMP JUMPDEST PUSH32 0x6D696E746564206172726179203E20746F74616C20737570706C790000000000 PUSH1 0x0 DUP3 ADD MSTORE POP JUMP JUMPDEST PUSH32 0x7573657220616C6C6F77616E6365203C20616D6F756E74000000000000000000 PUSH1 0x0 DUP3 ADD MSTORE POP JUMP JUMPDEST PUSH32 0x5472616E73666572206661696C65640000000000000000000000000000000000 PUSH1 0x0 DUP3 ADD MSTORE POP JUMP JUMPDEST PUSH32 0x746F6B656E206E6F7420696E206C700000000000000000000000000000000000 PUSH1 0x0 DUP3 ADD MSTORE POP JUMP JUMPDEST PUSH32 0x746F6B656E206E6F7420696E2062616C616E636572204C500000000000000000 PUSH1 0x0 DUP3 ADD MSTORE POP JUMP JUMPDEST PUSH32 0x73656C6C2066756E6374696F6E206E6F742063616C6C656420636F7272656374 PUSH1 0x0 DUP3 ADD MSTORE PUSH32 0x6C79000000000000000000000000000000000000000000000000000000000000 PUSH1 0x20 DUP3 ADD MSTORE POP JUMP JUMPDEST PUSH32 0x726174696F20696E20746F6F2068696768000000000000000000000000000000 PUSH1 0x0 DUP3 ADD MSTORE POP JUMP JUMPDEST PUSH32 0x546F6B656E206E6F7420696E2042616C616E636572204C500000000000000000 PUSH1 0x0 DUP3 ADD MSTORE POP JUMP JUMPDEST PUSH32 0x496E697469616C697A61626C653A20636F6E747261637420697320616C726561 PUSH1 0x0 DUP3 ADD MSTORE PUSH32 0x647920696E697469616C697A6564000000000000000000000000000000000000 PUSH1 0x20 DUP3 ADD MSTORE POP JUMP JUMPDEST PUSH32 0x757365722062616C616E6365203C20616D6F756E740000000000000000000000 PUSH1 0x0 DUP3 ADD MSTORE POP JUMP JUMPDEST PUSH32 0x546F6B656E206E6F7420696E205669727475616C204C50000000000000000000 PUSH1 0x0 DUP3 ADD MSTORE POP JUMP JUMPDEST PUSH32 0x7472616E7366657220746F2044414F204D756C7469736967206661696C656400 PUSH1 0x0 DUP3 ADD MSTORE POP JUMP JUMPDEST PUSH32 0x746F6B656E206E6F7420677265656E6C69737465640000000000000000000000 PUSH1 0x0 DUP3 ADD MSTORE POP JUMP JUMPDEST PUSH32 0x7472616E7366657220746F20444556204D756C7469736967206661696C656400 PUSH1 0x0 DUP3 ADD MSTORE POP JUMP JUMPDEST PUSH32 0x746F6B656E20617070726F766520666F7220636F6E747261637420746F206261 PUSH1 0x0 DUP3 ADD MSTORE PUSH32 0x6C616E63657220706F6F6C206661696C65640000000000000000000000000000 PUSH1 0x20 DUP3 ADD MSTORE POP JUMP JUMPDEST PUSH32 0x7472616E73666572206F66206C7020746F6B656E20746F207573657220666169 PUSH1 0x0 DUP3 ADD MSTORE PUSH32 0x6C65640000000000000000000000000000000000000000000000000000000000 PUSH1 0x20 DUP3 ADD MSTORE POP JUMP JUMPDEST PUSH32 0x736C69707061676520746F6F2068696768000000000000000000000000000000 PUSH1 0x0 DUP3 ADD MSTORE POP JUMP JUMPDEST PUSH32 0x7472616E736665722066726F6D207573657220746F20636F6E74726163742066 PUSH1 0x0 DUP3 ADD MSTORE PUSH32 0x61696C6564000000000000000000000000000000000000000000000000000000 PUSH1 0x20 DUP3 ADD MSTORE POP JUMP JUMPDEST PUSH32 0x5265656E7472616E637947756172643A207265656E7472616E742063616C6C00 PUSH1 0x0 DUP3 ADD MSTORE POP JUMP JUMPDEST PUSH32 0x636F6E747261637420646964206E6F7420726563656976652074686520726967 PUSH1 0x0 DUP3 ADD MSTORE PUSH32 0x687420616D6F756E74206F6620746F6B656E7300000000000000000000000000 PUSH1 0x20 DUP3 ADD MSTORE POP JUMP JUMPDEST PUSH32 0x216F776E65720000000000000000000000000000000000000000000000000000 PUSH1 0x0 DUP3 ADD MSTORE POP JUMP JUMPDEST PUSH32 0x616D6F756E742069732030000000000000000000000000000000000000000000 PUSH1 0x0 DUP3 ADD MSTORE POP JUMP JUMPDEST PUSH2 0x41FC DUP2 PUSH2 0x3B63 JUMP JUMPDEST DUP2 EQ PUSH2 0x4207 JUMPI PUSH1 0x0 DUP1 REVERT JUMPDEST POP JUMP JUMPDEST PUSH2 0x4213 DUP2 PUSH2 0x3B75 JUMP JUMPDEST DUP2 EQ PUSH2 0x421E JUMPI PUSH1 0x0 DUP1 REVERT JUMPDEST POP JUMP JUMPDEST PUSH2 0x422A DUP2 PUSH2 0x3B8B JUMP JUMPDEST DUP2 EQ PUSH2 0x4235 JUMPI PUSH1 0x0 DUP1 REVERT JUMPDEST POP JUMP JUMPDEST PUSH2 0x4241 DUP2 PUSH2 0x3B9D JUMP JUMPDEST DUP2 EQ PUSH2 0x424C JUMPI PUSH1 0x0 DUP1 REVERT JUMPDEST POP JUMP JUMPDEST PUSH2 0x4258 DUP2 PUSH2 0x3BC7 JUMP JUMPDEST DUP2 EQ PUSH2 0x4263 JUMPI PUSH1 0x0 DUP1 REVERT JUMPDEST POP JUMP INVALID LOG2 PUSH5 0x6970667358 0x22 SLT KECCAK256 0xD1 0xD5 PUSH22 0xB514CF7710FDBC07ECEE480324A0D8C8657328720FCA 0x2C 0xE2 SELFDESTRUCT MSTORE JUMPDEST CODECOPY NUMBER PUSH5 0x736F6C6343 STOP ADDMOD MUL STOP CALLER "
        },
        "methodIdentifiers": {
          "ChainLinkFeed()": "75d76266",
          "addTokenToVirtualLP(address)": "cfbe1761",
          "arrayBalancerPool()": "fa32deff",
          "arraySmartPool()": "d0854b77",
          "arrayToken()": "0575f819",
          "buy(address,uint256,uint256)": "a59ac6dd",
          "calculateArrayMintedFromToken(address,uint256)": "b4ae8a5c",
          "calculateLPtokensGivenArrayTokens(uint256)": "54d7a8a4",
          "initialize(address)": "c4d66de8",
          "initialize(address,address,uint256)": "1794bb3c",
          "isTokenInLP(address)": "985e78d8",
          "isTokenInVirtualLP(address)": "da13ae67",
          "maxGasPrice()": "3de39c11",
          "maxSupply()": "d5abeb01",
          "removeTokenFromVirtualLP(address)": "61a25812",
          "reserveRatio()": "0c7d5cd8",
          "sell(bool)": "c60746f6",
          "sell(uint256)": "e4849b32",
          "setDaoPct(uint256)": "961d030f",
          "setDevPct(uint256)": "4f2a082c",
          "setMaxSupply(uint256)": "6f8b44b0",
          "virtualBalance()": "dcd2af17",
          "virtualSupply()": "277b2f97"
        }
      }
    }
  }
}